:020000040800F2
:1000000000500020D10E0008710E00087D0E00087F
:10001000830E0008890E00088F0E00080000000003
:10002000000000000000000000000000950E000825
:10003000A10E000800000000AD0E0008B90E000877
:10004000190F0008190F0008190F0008190F0008F0
:10005000190F0008190F0008190F0008190F0008E0
:10006000190F0008190F0008190F0008190F0008D0
:10007000190F0008190F0008190F0008190F0008C0
:10008000190F0008190F0008190F0008190F0008B0
:10009000190F0008190F0008190F0008190F0008A0
:1000A000190F0008190F0008190F0008190F000890
:1000B000190F0008190F0008190F0008190F000880
:1000C000190F0008190F0008190F0008190F000870
:1000D000190F0008190F0008190F0008190F000860
:1000E000190F0008190F0008190F00080000000080
:1000F0000000000000000000000000000000000000
:0C01000000000000000000005FF808F1A3
:10010C0010B5054C237833B9044B13B10448AFF345
:10011C0000800123237010BD0C00002000000000A3
:10012C00142D000808B5034B1BB103490348AFF36A
:10013C00008008BD0000000010000020142D0008F5
:10014C0080B588B004AF3B4683E80300FB785B01C5
:10015C005AB23B799B005BB213435AB27B795BB2C8
:10016C0013435BB2DBB2FB737B785B015AB2BB7897
:10017C009B005BB213435AB23B785BB213435BB246
:10018C00DBB2BB73FF2302930123019307F10F032F
:10019C0000930123F522EC21094801F0CBFAFF234F
:1001AC0002930123019307F10E0300930123F42220
:1001BC00EC21034801F0BEFA00BF1037BD4680BDEC
:1001CC005000002080B58AB004AF00237B6100236F
:1001DC003B7100237B710023BB71FF23029303232C
:1001EC0001933B1D00930123FA22ED210B4801F0F2
:1001FC009BFB3B793B617B79FB60BB79BB60BB684C
:10020C001A09FB681B011A433B691B0313437B61EF
:10021C007B6918461837BD4680BD00BF50000020D2
:10022C0080B586B004AF0023FB710023BB71FF23A4
:10023C00029301230193FB1D009301238822ED21DE
:10024C002F4801F071FBFF23029301230193BB1D87
:10025C00009301238922ED21294801F065FBFB79EC
:10026C001AB2BB791B021BB213431BB29AB2254BB9
:10027C001A80FF23029301230193FB1D009301239A
:10028C008A22ED211E4801F04FFBFF23029301232C
:10029C000193BB1D009301238B22ED21184801F023
:1002AC0043FBFB791AB2BB791B021BB213431AB284
:1002BC00154B1A80FF23029301230193FB1D00931E
:1002CC0001238C22ED210E4801F02EFBFF2302931B
:1002DC0001230193BB1D009301238D22ED210848BE
:1002EC0001F022FBFB791AB2BB791B021BB2134340
:1002FC001AB2064B1A8000BF0837BD4680BD00BF3E
:10030C00500000202A0000202C0000204600002075
:10031C0080B487B000AF78607B68DA10184B1B880C
:10032C005B00D31A174AB2F9002002FB03F3DB126D
:10033C007B617B681B11124A12889B1A7A68121116
:10034C000F490988521A02FB03F31B130E4AB2F928
:10035C00002002FB03F39B133B617A693B69134456
:10036C000A4A1360094B1A6813469B0013448033E6
:10037C001B12FB60FB6818461C37BD4680BC7047DF
:10038C002A0000202C000020460000204C000020F9
:10039C0080B58AB004AF00237B6100233B7100233E
:1003AC007B710023BB71FF230293032301933B1D3D
:1003BC0000930123F722ED210B4801F0B5FA3B79AC
:1003CC003B617B79FB60BB79BB60BB681A09FB683E
:1003DC001B011A433B691B0313437B617B69184662
:1003EC001837BD4680BD00BF5000002080B586B0D8
:1003FC0004AF0023FB710023BB71FF230293012385
:10040C000193FB1D009301238E22ED21924801F0F4
:10041C008BFAFF23029301230193BB1D009301234D
:10042C008F22ED218C4801F07FFAFB791AB2BB794F
:10043C001B021BB213431BB29AB2884B1A80FF23C8
:10044C00029301230193FB1D009301239022ED21C4
:10045C00814801F069FAFF23029301230193BB1D2C
:10046C00009301239122ED217B4801F05DFAFB7989
:10047C001AB2BB791B021BB213431AB2784B1A8007
:10048C00FF23029301230193FB1D0093012392226E
:10049C00ED21714801F048FAFF23029301230193E7
:1004AC00BB1D009301239322ED216B4801F03CFA14
:1004BC00FB791AB2BB791B021BB213431AB2694BFC
:1004CC001A80FF23029301230193FB1D0093012348
:1004DC009422ED21604801F027FAFF2302930123B7
:1004EC000193BB1D009301239522ED215A4801F085
:1004FC001BFAFB791AB2BB791B021BB213431AB25B
:10050C00594B1A80FF23029301230193FB1D009387
:10051C0001239622ED21504801F006FAFF230293A5
:10052C0001230193BB1D009301239722ED214A481F
:10053C0001F0FAF9FB791AB2BB791B021BB2134317
:10054C001AB24A4B1A80FF23029301230193FB1D1D
:10055C00009301239822ED213F4801F0E5F9FF2398
:10056C00029301230193BB1D009301239922ED21DA
:10057C00394801F0D9F9FB791AB2BB791B021BB2CD
:10058C0013431AB23A4B1A80FF23029301230193AF
:10059C00FB1D009301239A22ED212F4801F0C4F991
:1005AC00FF23029301230193BB1D009301239B2284
:1005BC00ED21294801F0B8F9FB791AB2BB791B027D
:1005CC001BB213431AB22B4B1A80FF230293012345
:1005DC000193FB1D009301239C22ED211E4801F089
:1005EC00A3F9FF23029301230193BB1D0093012365
:1005FC009D22ED21184801F097F9FB791AB2BB79CD
:10060C001B021BB213431AB21B4B1A80FF2302931B
:10061C0001230193FB1D009301239E22ED210E4823
:10062C0001F082F9FF23029301230193BB1D009378
:10063C0001239F22ED21084801F076F9FB791AB2CB
:10064C00BB791B021BB213431AB20C4B1A8000BFAE
:10065C000837BD4680BD00BF500000203E00002082
:10066C003400002040000020360000203C00002018
:10067C0048000020280000204200002044000020F8
:10068C0080B487B000AF78604A4B1B685B10A3F551
:10069C007A433B613B699B103A69921002FB03F36E
:1006AC00DB12454AB2F9002002FB03F3FB60434B1B
:1006BC00B3F900301A463B6903FB02F35B00FA689E
:1006CC001344FB60FB689A103D4BB3F900301B04DC
:1006DC001344FB603B4BB3F9003019463B699B104C
:1006EC003A69921002FB03F35B1303FB01F3DA107C
:1006FC00354BB3F9003019463B6903FB01F35B1032
:10070C0013449B143B613B6903F500432F4A128849
:10071C0002FB03F3DB133B613B69002B01D100238C
:10072C0042E07B685B42FA6812139B1A40F6354232
:10073C0002FB03F303F1434303F5A0037B617B69E5
:10074C00002B06DB7B695A003B69B2FBF3F37B6140
:10075C0005E03B697A69B2FBF3F35B007B611C4BF0
:10076C00B3F9003019467B69DB087A69D20802FBC1
:10077C0003F35B0B03FB01F31B133B617B699B08CE
:10078C001A46144BB3F9003003FB02F35B13FB6006
:10079C003A69FB681344104AB2F9002013441A1149
:1007AC007B6913447B617B6918461C37BD4680BC52
:1007BC00704700BF4C000020480000203C00002087
:1007CC003600002040000020340000203E000020B5
:1007DC0044000020420000202800002080B582B098
:1007EC0000AF0346FB71FB7903F00103DBB21A4641
:1007FC004FF40041294800F04DFEFB795B08DBB259
:10080C0003F00103DBB21A460821254800F042FE32
:10081C00FB799B08DBB203F00103DBB21A46102113
:10082C001F4800F037FEFB79DB08DBB203F0010355
:10083C00DBB21A4620211A4800F02CFEFB791B096A
:10084C00DBB203F00103DBB21A464021144800F07E
:10085C0021FEFB795B09DBB203F00103DBB21A4624
:10086C0080210F4800F016FEFB799B09DBB203F0E8
:10087C000103DBB21A464FF48071094800F00AFEFE
:10088C00FB79DB09DBB21A464FF40071044800F027
:10089C0001FE00BF0837BD4680BD00BF0008014007
:1008AC00000C014080B582B000AF0346FB71002202
:1008BC008021124800F0EEFD002240210F4800F08C
:1008CC00E9FD002220210D4800F0E4FDFB791846DB
:1008DC00FFF784FF012000F07DFB012280210748F7
:1008EC0000F0D8FD012000F075FB002280210348A8
:1008FC0000F0D0FD00BF0837BD4680BD00080140A8
:10090C0080B582B000AF0346FB71002280211248F3
:10091C0000F0C0FD012240210F4800F0BBFD002279
:10092C0020210D4800F0B6FDFB791846FFF756FF65
:10093C00012000F04FFB01228021074800F0AAFDA6
:10094C00012000F047FB00228021034800F0A2FDAB
:10095C0000BF0837BD4680BD0008014080B500AF20
:10096C003820FFF79FFF0C20FFF79CFF0620FFF7B6
:10097C0099FF0120FFF796FF8020FFF793FF00BF40
:10098C0080BD000080B582B000AF78607B68274ADC
:10099C00A2FB03239B09DBB23033DBB21846FFF713
:1009AC00AFFF7A68214BA3FB02139B094FF47A71BA
:1009BC0001FB03F3D31A1E4AA2FB03235B09DBB230
:1009CC003033DBB21846FFF79BFF2E20FFF798FF62
:1009DC007A68174BA3FB02135B09642101FB03F339
:1009EC00D31A144AA2FB0323DB08DBB23033DBB28D
:1009FC001846FFF785FF79680E4BA3FB0123DA0835
:100A0C0013469B0013445B00CA1AD3B23033DBB2DB
:100A1C001846FFF775FFEB20FFF772FF4320FFF737
:100A2C006FFF00BF0837BD4680BD00BFD34D6210BD
:100A3C001F85EB51CDCCCCCC80B582B000AF7860AB
:100A4C007B685B093C4AA2FB0323DB09DBB2303336
:100A5C00DBB21846FFF754FF7A6853093649A1FBFD
:100A6C000313DB09354901FB03F3D31A344AA2FB08
:100A7C0003235B0BDBB23033DBB21846FFF740FFCE
:100A8C007A682F4BA3FB02135B0B42F2107101FB34
:100A9C0003F3D31A2B4AA2FB03239B09DBB230339B
:100AAC00DBB21846FFF72CFF7A68264BA3FB021328
:100ABC009B094FF47A7101FB03F3D31A224AA2FB70
:100ACC0003235B09DBB23033DBB21846FFF718FFA8
:100ADC002E20FFF715FF7A681B4BA3FB02135B0953
:100AEC00642101FB03F3D31A184AA2FB0323DB088E
:100AFC00DBB23033DBB21846FFF702FF7968134BD9
:100B0C00A3FB0123DA0813469B0013445B00CA1AAB
:100B1C00D3B23033DBB21846FFF7F2FE6820FFF792
:100B2C00EFFE5020FFF7ECFE6120FFF7E9FE00BF5F
:100B3C000837BD4680BD00BFC55A7C0AA08601009F
:100B4C005917B7D1D34D62101F85EB51CDCCCCCCFE
:100B5C0080B584B000AF00F0DBF900F035F800F0A0
:100B6C00A7F800F077F8174A3B4692E803001860A4
:100B7C0004331980FFF7F2FE3B4693E80300FFF7BE
:100B8C00DFFAFFF74DFBFFF71DFB03461846FFF797
:100B9C00BFFBF860FB681846FFF7F4FEC020FFF7B8
:100BAC0081FEFFF723FCFFF7F3FB03461846FFF724
:100BBC0067FDB860B868FFF73FFF4FF47A7000F03C
:100BCC0009FAD7E72C2D000880B590B000AF07F1DB
:100BDC00180328220021184602F08EF83B1D002233
:100BEC001A605A609A60DA601A610123BB614FF493
:100BFC008033FB6100233B620123BB6202237B63D6
:100C0C004FF48033BB634FF4E013FB6307F118031D
:100C1C00184601F045FC0346002B01D000F0AAF861
:100C2C000F237B600223BB600023FB604FF48063C7
:100C3C003B6100237B613B1D0221184601F0B0FE95
:100C4C000346002B01D000F095F800BF4037BD469D
:100C5C0080BD000080B500AF124B134A1A60114BD7
:100C6C00124A5A600F4B00229A600E4B0022DA6037
:100C7C000C4B4FF480421A610A4B00225A61094B0B
:100C8C0000229A61074B0022DA61064B00221A629D
:100C9C00044800F017FC0346002B01D000F06AF862
:100CAC0000BF80BD5000002000580040A08601000D
:100CBC0080B588B000AF07F1100300221A605A60AB
:100CCC009A60DA60284B9B69274A43F020039361B2
:100CDC00254B9B6903F02003FB60FB68224B9B694F
:100CEC00214A43F0040393611F4B9B6903F00403F7
:100CFC00BB60BB681C4B9B691B4A43F008039361A8
:100D0C00194B9B6903F008037B607B68002248F257
:100D1C00E001164800F0BEFB00224FF47E7114482F
:100D2C0000F0B8FB48F2E0033B6101237B61002338
:100D3C00BB610223FB6107F1100319460B4800F05D
:100D4C004FFA4FF47E733B6101237B610023BB613F
:100D5C000223FB6107F110031946054800F040FA25
:100D6C0000BF2037BD4680BD001002400008014086
:100D7C00000C014080B400AF00BFBD4680BC704782
:100D8C0080B485B000AF154B9B69144A43F0010346
:100D9C009361124B9B6903F00103BB60BB680F4B63
:100DAC00DB690E4A43F08053D3610C4BDB6903F0D3
:100DBC0080537B607B680A4B5B68FB60FB6823F0AD
:100DCC00E063FB60FB6843F08063FB60044AFB68F4
:100DDC00536000BF1437BD4680BC70470010024002
:100DEC000000014080B588B000AF786007F11003B7
:100DFC0000221A605A609A60DA607B681B68164A97
:100E0C00934224D1154B9B69144A43F00803936118
:100E1C00124B9B6903F00803FB60FB684FF44063C3
:100E2C003B6112237B610323FB6107F1100319461D
:100E3C000B4800F0D5F9094BDB69084A43F48003F1
:100E4C00D361064BDB6903F48003BB60BB6800BF56
:100E5C002037BD4680BD00BF005800400010024046
:100E6C00000C014080B400AF00BFBD4680BC704791
:100E7C0080B400AFFEE780B400AFFEE780B400AFF3
:100E8C00FEE780B400AFFEE780B400AF00BFBD4604
:100E9C0080BC704780B400AF00BFBD4680BC7047BB
:100EAC0080B400AF00BFBD4680BC704780B500AFBA
:100EBC0000F074F800BF80BD80B400AF00BFBD4629
:100ECC0080BC7047002103E00B4B5B58435004314E
:100EDC000A480B4B42189A42F6D30A4A02E0002306
:100EEC0042F8043B084B9A42F9D3FFF7E5FF01F0B7
:100EFC00DFFEFFF72DFE7047682D00080000002074
:100F0C000C0000200C000020A8000020FEE70000D0
:100F1C0080B500AF084B1B68074A43F01003136001
:100F2C00032000F029F9002000F008F8FFF728FF53
:100F3C000023184680BD00BF0020024080B582B05F
:100F4C0000AF7860124B1A68124B1B7819464FF49D
:100F5C007A73B3FBF1F3B2FBF3F3184600F033F9F9
:100F6C000346002B01D001230EE07B680F2B0AD81F
:100F7C00002279684FF0FF3000F009F9064A7B68CF
:100F8C001360002300E0012318460837BD4680BDDE
:100F9C0000000020080000200400002080B400AFF6
:100FAC00054B1B781A46054B1B681344034A136008
:100FBC0000BFBD4680BC704708000020A400002084
:100FCC0080B400AF024B1B681846BD4680BC70470E
:100FDC00A400002080B584B000AF7860FFF7F0FF6C
:100FEC00B8607B68FB60FB68B3F1FF3F05D0094B31
:100FFC001B781A46FB681344FB6000BFFFF7E0FF49
:10100C000246BB68D31AFA689A42F7D800BF103769
:10101C00BD4680BD0800002080B485B000AF78606C
:10102C007B6803F00703FB600C4BDB68BB60BA68A2
:10103C004FF6FF031340BB60FB681A02BB681343F7
:10104C0043F0BF6343F40033BB60044ABB68D36016
:10105C0000BF1437BD4680BC704700BF00ED00E0F8
:10106C0080B400AF044BDB681B0A03F0070318467F
:10107C00BD4680BC704700BF00ED00E080B483B07B
:10108C0000AF03463960FB7197F90730002B0ADB80
:10109C003B68DAB20C4997F907301201D2B20B4413
:1010AC0083F800230AE03B68DAB20849FB7903F0C5
:1010BC000F03043B1201D2B20B441A7600BF0C375B
:1010CC00BD4680BC704700BF00E100E000ED00E0D1
:1010DC0080B489B000AFF860B9607A60FB6803F047
:1010EC000703FB61FB69C3F10703042B28BF04232F
:1010FC00BB61FB690433062B02D9FB69033B00E09F
:10110C0000237B614FF0FF32BB6902FA03F3DA4331
:10111C00BB681A407B699A404FF0FF317B6901FA3A
:10112C0003F3D9437B680B40134318462437BD4661
:10113C0080BC704780B582B000AF78607B68013BA3
:10114C00B3F1807F01D301230FE00A4A7B68013B96
:10115C0053600F214FF0FF30FFF790FF054B00223B
:10116C009A60044B07221A60002318460837BD46C4
:10117C0080BD00BF10E000E080B582B000AF7860A9
:10118C007868FFF749FF00BF0837BD4680BD80B5C2
:10119C0086B000AF0346B9607A60FB7300237B61B5
:1011AC00FFF75EFF78617A68B9687869FFF790FF9E
:1011BC00024697F90F3011461846FFF75FFF00BF44
:1011CC001837BD4680BD80B582B000AF78607868B6
:1011DC00FFF7B0FF034618460837BD4680BD000038
:1011EC0080B48BB000AF7860396000237B62002341
:1011FC003B6227E101227B6A02FA03F3FB613B6845
:10120C001B68FA691340BB61BA69FB699A4240F0EA
:10121C0016813B685B68122B34D0122B0DD8022B35
:10122C002BD0022B04D8002B31D0012B1CD048E042
:10123C00032B43D0112B1BD043E0894A934226D079
:10124C00874A934206D8874A934220D0864A9342D3
:10125C001DD036E0854A934219D0854A934216D068
:10126C00844A934213D02CE03B68DB683B6228E055
:10127C003B68DB6804333B6223E03B68DB68083384
:10128C003B621EE03B68DB680C333B6219E03B6859
:10129C009B68002B02D104233B6212E03B689B68E5
:1012AC00012B05D108233B627B68FA691A6108E0BF
:1012BC0008233B627B68FA695A6102E000233B62B7
:1012CC0000BFBB69FF2B01D87B6801E07B6804334E
:1012DC007B61BB69FF2B02D87B6A9B0002E07B6AB7
:1012EC00083B9B003B617B691A680F213B6901FA43
:1012FC0003F3DB431A40396A3B6901FA03F31A43DF
:10130C007B691A603B685B6803F08053002B00F02C
:10131C009680594B9B69584A43F001039361564B95
:10132C009B6903F00103BB60BB68544A7B6A9B0852
:10133C00023352F82330FB607B6A03F003039B00FB
:10134C000F2202FA03F3DB43FA681340FB607B685D
:10135C004B4A934213D07B684A4A93420DD07B6828
:10136C00494A934207D07B68484A934201D10323F0
:10137C0006E0042304E0022302E0012300E0002342
:10138C007A6A02F0030292009340FA681343FB60FE
:10139C003A497B6A9B080233FA6841F823203B6880
:1013AC005B6803F48033002B06D0394B1A6838493C
:1013BC00BB6913430B6006E0354B1A68BB69DB4312
:1013CC00334913400B603B685B6803F40033002B1C
:1013DC0006D02F4B5A682E49BB6913434B6006E06D
:1013EC002B4B5A68BB69DB43294913404B603B6864
:1013FC005B6803F48013002B06D0254B9A682449B4
:10140C00BB6913438B6006E0214B9A68BB69DB43D5
:10141C001F4913408B603B685B6803F40013002B7F
:10142C0006D01B4BDA681A49BB691343CB6006E044
:10143C00174BDA68BB69DB4315491340CB607B6AF9
:10144C0001337B623B681A687B6A22FA03F3002B38
:10145C007FF4D0AE00BF2C37BD4680BC704700BFB8
:10146C0000002110000011100000121000003110BB
:10147C000000321000002210001002400000014059
:10148C0000080140000C0140001001400014014014
:10149C000004014080B483B000AF78600B467B80C1
:1014AC0013467B707B78002B03D07A887B681A619B
:1014BC0003E07B881A047B681A6100BF0C37BD46B9
:1014CC0080BC704780B584B000AF78607B68002B1F
:1014DC0001D101231FE17B6893F83D30DBB2002B77
:1014EC0006D17B68002283F83C207868FFF77AFCF1
:1014FC007B68242283F83D207B681B681A687B6814
:10150C001B6822F001021A607B681B681A687B68F2
:10151C001B6842F400421A607B681B681A687B687F
:10152C001B6822F400421A6001F090FBF8607B68A3
:10153C005B687B4A934207D8FB687A4A934294BF14
:10154C0001230023DBB206E0FB68774A934294BF89
:10155C0001230023DBB2002B01D00123DBE0FB686D
:10156C00724AA2FB03239B0CBB607B681B685B6805
:10157C0023F03F017B681B68BA680A435A607B689A
:10158C001B681B6A23F03F017B685B68644A9342CB
:10159C0002D8BB68013309E0BB684FF4967202FBBA
:1015AC0003F3634AA2FB03239B0901337A68126895
:1015BC000B4313627B681B68DB6923F44F4222F0F8
:1015CC00FF027B685B6856498B420DD8FB68591E3D
:1015DC007B685B685B00B1FBF3F30133C3F30B0374
:1015EC00042B38BF04234FE07B689B68002B11D180
:1015FC00FB68581E7B6859680B465B000B44B0FBBC
:10160C00F3F30133C3F30B03002B0CBF01230023B3
:10161C00DBB212E0FB68581E7B6859680B469B00D6
:10162C000B4499000B44B0FBF3F30133C3F30B03EE
:10163C00002B0CBF01230023DBB2002B01D00123B4
:10164C0022E07B689B68002B0ED1FB68581E7B68E0
:10165C0059680B465B000B44B0FBF3F30133C3F347
:10166C000B0343F400430FE0FB68581E7B6859687A
:10167C000B469B000B4499000B44B0FBF3F3013376
:10168C00C3F30B0343F44043796809681343CB61FC
:10169C007B681B681B6823F0C0017B68DA697B6878
:1016AC001B6A1A437B681B680A431A607B681B68B9
:1016BC009B6823F4034323F0FF037A6811697A686B
:1016CC00D26811437A6812680B4393607B681B687D
:1016DC00DB6823F0FF017B685A697B689B691A43BE
:1016EC007B681B680A43DA607B681B681A687B6836
:1016FC001B6842F001021A607B6800221A647B6846
:10170C00202283F83D207B6800221A637B6800222C
:10171C0083F83E20002318461037BD4680BD00BF1D
:10172C00A08601007F841E00FF083D0083DE1B4362
:10173C00D34D621080B588B002AFF86008461146F0
:10174C001A4603467B810B463B811346FB80FFF711
:10175C0037FC7861FB6893F83D30DBB2202B40F00E
:10176C00D9807B690093192301226D49F86800F038
:10177C00BBFC0346002B01D00223CCE0FB6893F8A2
:10178C003C30012B01D10223C5E0FB68012283F818
:10179C003C20FB681B681B6803F00103012B07D07E
:1017AC00FB681B681A68FB681B6842F001021A6030
:1017BC00FB681B681A68FB681B6822F400621A60DD
:1017CC00FB68212283F83D20FB68402283F83E20F1
:1017DC00FB6800221A64FB683A6A5A62FB68BA8C8E
:1017EC005A85FB685B8D9AB2FB681A85FB684D4A7B
:1017FC00DA62F8883A8979897B690193BB6A00932C
:10180C000346F86800F0F2FA0346002B52D001238D
:10181C0081E07A69B96AF86800F03CFD0346002B58
:10182C000DD0FB681B6C042B07D1FB681B681A6876
:10183C00FB681B6842F400721A6001236BE0FB68C2
:10184C005B6A1A78FB681B681A61FB685B6A5A1C36
:10185C00FB685A62FB681B8D013B9AB2FB681A85C8
:10186C00FB685B8D9BB2013B9AB2FB685A85FB68A7
:10187C001B685B6903F00403042B1BD1FB681B8DF5
:10188C00002B17D0FB685B6A1A78FB681B681A611F
:10189C00FB685B6A5A1CFB685A62FB681B8D013B38
:1018AC009AB2FB681A85FB685B8D9BB2013B9AB2BE
:1018BC00FB685A85FB681B8D002BAAD17A69B96A23
:1018CC00F86800F028FD0346002B0DD0FB681B6C5C
:1018DC00042B07D1FB681B681A68FB681B6842F471
:1018EC0000721A60012316E0FB681B681A68FB681B
:1018FC001B6842F400721A60FB68202283F83D20BA
:10190C00FB68002283F83E20FB68002283F83C2011
:10191C00002300E0022318461837BD4680BD00BFE7
:10192C00020010000000FFFF80B58CB002AFF86021
:10193C00084611461A4603467B810B463B811346EB
:10194C00FB8000233B62FFF73BFB7862FB6893F85C
:10195C003D30DBB2202B40F03D827B6A0093192393
:10196C0001228149F86800F0BFFB0346002B01D02F
:10197C00022330E2FB6893F83C30012B01D10223A7
:10198C0029E2FB68012283F83C20FB681B681B687A
:10199C0003F00103012B07D0FB681B681A68FB6876
:1019AC001B6842F001021A60FB681B681A68FB682E
:1019BC001B6822F400621A60FB68222283F83D2027
:1019CC00FB68402283F83E20FB6800221A64FB6807
:1019DC003A6B5A62FB68BA8E5A85FB685B8D9AB279
:1019EC00FB681A85FB68614ADA62F8883A8979895A
:1019FC007B6A0193BB6B00930346F86800F08CFA8A
:101A0C000346002B01D00123E5E1FB681B8D002B65
:101A1C0013D10023FB61FB681B685B69FB61FB68EE
:101A2C001B689B69FB61FB69FB681B681A68FB6898
:101A3C001B6842F400721A60B9E1FB681B8D012B24
:101A4C001DD1FB681B681A68FB681B6822F4806256
:101A5C001A6072B60023BB61FB681B685B69BB61D3
:101A6C00FB681B689B69BB61BB69FB681B681A68D8
:101A7C00FB681B6842F400721A6062B697E1FB685F
:101A8C001B8D022B1DD1FB681B681A68FB681B6839
:101A9C0042F400621A6072B600237B61FB681B681B
:101AAC005B697B61FB681B689B697B617B69FB687D
:101ABC001B681A68FB681B6822F480621A6062B6A5
:101ACC0075E1FB681B681A68FB681B6842F480624E
:101ADC001A6000233B61FB681B685B693B61FB6818
:101AEC001B689B693B613B6961E1FB681B8D032BA8
:101AFC0000F21A81FB681B8D012B23D17A6AB96B1A
:101B0C00F86800F049FC0346002B01D0012362E188
:101B1C00FB681B681A69FB685B6AD2B21A70FB68B7
:101B2C005B6A5A1CFB685A62FB681B8D013B9AB2BC
:101B3C00FB681A85FB685B8D9BB2013B9AB2FB6814
:101B4C005A8534E1FB681B8D022B50D17B6A0093C4
:101B5C00BB6B00220649F86800F0C6FA0346002B5E
:101B6C0008D0012337E100BF020010000000FFFF86
:101B7C000400010072B6FB681B681A68FB681B68DE
:101B8C0042F400721A60FB681B681A69FB685B6A96
:101B9C00D2B21A70FB685B6A5A1CFB685A62FB680B
:101BAC001B8D013B9AB2FB681A85FB685B8D9BB25F
:101BBC00013B9AB2FB685A8562B6FB681B681A69CE
:101BCC00FB685B6AD2B21A70FB685B6A5A1CFB68D2
:101BDC005A62FB681B8D013B9AB2FB681A85FB6845
:101BEC005B8D9BB2013B9AB2FB685A85DFE07B6A46
:101BFC000093BB6B00227A49F86800F075FA034633
:101C0C00002B01D00123E6E0FB681B681A68FB6817
:101C1C001B6822F480621A6072B6FB681B681A6932
:101C2C00FB685B6AD2B21A70FB685B6A5A1CFB6871
:101C3C005A62FB681B8D013B9AB2FB681A85FB68E4
:101C4C005B8D9BB2013B9AB2FB685A85654B1B6856
:101C5C00DB08654AA2FB03231A0A13469B001344B4
:101C6C00DA00D31A3B623B6A013B3B623B6A002BB6
:101C7C0017D1FB6800221A63FB68202283F83D20F1
:101C8C00FB68002283F83E20FB681B6C43F02002AB
:101C9C00FB681A6462B6FB68002283F83C200123BF
:101CAC0099E0FB681B685B6903F00403042BDAD131
:101CBC00FB681B681A68FB681B6842F400721A60A8
:101CCC00FB681B681A69FB685B6AD2B21A70FB6806
:101CDC005B6A5A1CFB685A62FB681B8D013B9AB20B
:101CEC00FB681A85FB685B8D9BB2013B9AB2FB6863
:101CFC005A8562B6FB681B681A69FB685B6AD2B2CC
:101D0C001A70FB685B6A5A1CFB685A62FB681B8D75
:101D1C00013B9AB2FB681A85FB685B8D9BB2013B59
:101D2C009AB2FB685A8542E07A6AB96BF86800F09F
:101D3C0033FB0346002B01D001234CE0FB681B68EE
:101D4C001A69FB685B6AD2B21A70FB685B6A5A1C30
:101D5C00FB685A62FB681B8D013B9AB2FB681A85C3
:101D6C00FB685B8D9BB2013B9AB2FB685A85FB68A2
:101D7C001B685B6903F00403042B18D1FB681B6818
:101D8C001A69FB685B6AD2B21A70FB685B6A5A1CF0
:101D9C00FB685A62FB681B8D013B9AB2FB681A8583
:101DAC00FB685B8D9BB2013B9AB2FB685A85FB6862
:101DBC001B8D002B7FF499AEFB68202283F83D200D
:101DCC00FB68002283F83E20FB68002283F83C204D
:101DDC00002300E0022318462837BD4680BD00BF13
:101DEC00040001000000002089B5F81480B588B00B
:101DFC0002AFF860084611461A4603467B810B4633
:101E0C003B811346FB80FB681B681A68FB681B68E8
:101E1C0042F480721A607B6A00933B6A00224FF096
:101E2C000111F86800F060F90346002B0DD0FB6837
:101E3C001B681B6803F48073B3F5807F03D1FB68C8
:101E4C004FF400721A6403235FE07B89DBB21A46FD
:101E5C00FB681B6802F0FE021A617B6A3A6A2D4924
:101E6C00F86800F098F90346002B01D001234CE0F0
:101E7C0000237B61FB681B685B697B61FB681B68EB
:101E8C009B697B617B697A6A396AF86800F002FAAF
:101E9C000346002B0DD0FB681B6C042B07D1FB6891
:101EAC001B681A68FB681B6842F400721A600123F5
:101EBC002BE0FB88012B05D13B89DAB2FB681B6850
:101ECC001A6121E03B891B0A9BB2DAB2FB681B68E2
:101EDC001A617A6A396AF86800F0DCF90346002B5B
:101EEC000DD0FB681B6C042B07D1FB681B681A68B0
:101EFC00FB681B6842F400721A60012305E03B8901
:101F0C00DAB2FB681B681A61002318461837BD4605
:101F1C0080BD00BF0200010080B588B002AFF86040
:101F2C00084611461A4603467B810B463B811346F5
:101F3C00FB80FB681B681A68FB681B6842F48062B4
:101F4C001A60FB681B681A68FB681B6842F4807295
:101F5C001A607B6A00933B6A00224FF00111F8680B
:101F6C0000F0C2F80346002B0DD0FB681B681B6801
:101F7C0003F48073B3F5807F03D1FB684FF40072D8
:101F8C001A640323AAE07B89DBB21A46FB681B6840
:101F9C0002F0FE021A617B6A3A6A5249F86800F054
:101FAC00FAF80346002B01D0012397E000237B6154
:101FBC00FB681B685B697B61FB681B689B697B61C9
:101FCC007B697A6A396AF86800F064F90346002B79
:101FDC000DD0FB681B6C042B07D1FB681B681A68BF
:101FEC00FB681B6842F400721A60012376E0FB88E0
:101FFC00012B05D13B89DAB2FB681B681A6121E021
:10200C003B891B0A9BB2DAB2FB681B681A617A6ABD
:10201C00396AF86800F03EF90346002B0DD0FB68D6
:10202C001B6C042B07D1FB681B681A68FB681B68C8
:10203C0042F400721A60012350E03B89DAB2FB686B
:10204C001B681A617A6A396AF86800F023F903464A
:10205C00002B0DD0FB681B6C042B07D1FB681B6895
:10206C001A68FB681B6842F400721A60012335E0A1
:10207C00FB681B681A68FB681B6842F480721A6064
:10208C007B6A00933B6A00224FF00111F86800F064
:10209C002BF80346002B0DD0FB681B681B6803F460
:1020AC008073B3F5807F03D1FB684FF400721A6420
:1020BC00032313E07B89DBB243F00103DAB2FB6844
:1020CC001B681A617B6A3A6A0649F86800F063F883
:1020DC000346002B01D0012300E0002318461837DB
:1020EC00BD4680BD0200010080B584B000AFF86031
:1020FC00B9603B601346FB7125E03B68B3F1FF3FD1
:10210C0021D0FEF75DFF0246BB69D31A3A689A42AA
:10211C0002D33B68002B16D1FB6800221A63FB68C4
:10212C00202283F83D20FB68002283F83E20FB68C8
:10213C001B6C43F02002FB681A64FB68002283F8D6
:10214C003C20012323E0BB681B0CDBB2012B0DD11F
:10215C00FB681B685B69DA43BB6813409BB2002BBE
:10216C000CBF01230023DBB21A460CE0FB681B6892
:10217C009B69DA43BB6813409BB2002B0CBF012355
:10218C000023DBB21A46FB799A42B6D000231846DC
:10219C001037BD4680BD80B584B000AFF860B96023
:1021AC007A603B6051E0FB681B685B6903F48063F9
:1021BC00B3F5806F23D1FB681B681A68FB681B683A
:1021CC0042F400721A60FB681B686FF480625A61FB
:1021DC00FB6800221A63FB68202283F83D20FB6811
:1021EC00002283F83E20FB681B6C43F00402FB6862
:1021FC001A64FB68002283F83C20012346E07B68CC
:10220C00B3F1FF3F21D0FEF7DBFE02463B68D31A49
:10221C007A689A4202D37B68002B16D1FB680022A5
:10222C001A63FB68202283F83D20FB68002283F8A8
:10223C003E20FB681B6C43F02002FB681A64FB68B1
:10224C00002283F83C20012320E0BB681B0CDBB28E
:10225C00012B0CD1FB681B685B69DA43BB6813402C
:10226C009BB2002B14BF01230023DBB20BE0FB68F5
:10227C001B689B69DA43BB6813409BB2002B14BFED
:10228C0001230023DBB2002B8DD10023184610371D
:10229C00BD4680BD80B584B000AFF860B9607A608F
:1022AC002DE0F86800F0CEF80346002B01D0012396
:1022BC002DE0BB68B3F1FF3F21D0FEF781FE024653
:1022CC007B68D31ABA689A4202D3BB68002B16D12A
:1022DC00FB6800221A63FB68202283F83D20FB6810
:1022EC00002283F83E20FB681B6C43F02002FB6845
:1022FC001A64FB68002283F83C20012307E0FB688A
:10230C001B685B6903F08003802BCAD1002318463D
:10231C001037BD4680BD80B584B000AFF860B960A1
:10232C007A602DE0F86800F08DF80346002B01D0A0
:10233C0001232DE0BB68B3F1FF3F21D0FEF740FE37
:10234C0002467B68D31ABA689A4202D3BB68002B48
:10235C0016D1FB6800221A63FB68202283F83D200B
:10236C00FB68002283F83E20FB681B6C43F02002C4
:10237C00FB681A64FB68002283F83C20012307E009
:10238C00FB681B685B6903F00403042BCAD10023B0
:10239C0018461037BD4680BD80B584B000AFF860DC
:1023AC00B9607A6042E0FB681B685B6903F010035C
:1023BC00102B19D1FB681B686FF010025A61FB6877
:1023CC0000221A63FB68202283F83D20FB68002260
:1023DC0083F83E20FB681A6CFB681A64FB680022C9
:1023EC0083F83C20012329E0FEF7EAFD02467B68D6
:1023FC00D31ABA689A4202D3BB68002B16D1FB6879
:10240C0000221A63FB68202283F83D20FB6800221F
:10241C0083F83E20FB681B6C43F02002FB681A64B7
:10242C00FB68002283F83C20012307E0FB681B6853
:10243C005B6903F04003402BB5D1002318461037DD
:10244C00BD4680BD80B483B000AF78607B681B68EC
:10245C005B6903F48063B3F5806F1BD17B681B68E9
:10246C006FF480625A617B6800221A637B682022B9
:10247C0083F83D207B68002283F83E207B681B6C30
:10248C0043F004027B681A647B68002283F83C20CA
:10249C00012300E0002318460C37BD4680BC704772
:1024AC0080B586B000AF78607B68002B01D101232A
:1024BC006CE27B681B6803F00103002B00F0878043
:1024CC00924B5B6803F00C03042B0CD08F4B5B68B6
:1024DC0003F00C03082B12D18C4B5B6803F4803394
:1024EC00B3F5803F0BD1894B1B6803F40033002BF1
:1024FC006CD07B685B68002B68D1012346E27B685B
:10250C005B68B3F5803F06D1804B1B687F4A43F470
:10251C00803313602EE07B685B68002B0CD17B4B07
:10252C001B687A4A23F480331360784B1B68774A14
:10253C0023F4802313601DE07B685B68B3F5A02F48
:10254C000CD1724B1B68714A43F4802313606F4BA0
:10255C001B686E4A43F4803313600BE06B4B1B68B3
:10256C006A4A23F480331360684B1B68674A23F470
:10257C00802313607B685B68002B13D0FEF720FD73
:10258C00386108E0FEF71CFD02463B69D31A642B48
:10259C0001D90323FAE15D4B1B6803F40033002BD4
:1025AC00F0D014E0FEF70CFD386108E0FEF708FDF2
:1025BC0002463B69D31A642B01D90323E6E1534B42
:1025CC001B6803F40033002BF0D100E000BF7B68E4
:1025DC001B6803F00203002B63D04C4B5B6803F0C9
:1025EC000C03002B0BD0494B5B6803F00C03082B3E
:1025FC001CD1464B5B6803F48033002B16D1434B44
:10260C001B6803F00203002B05D07B681B69012BB0
:10261C0001D00123BAE13D4B1B6823F0F8027B6823
:10262C005B69DB00394913430B603AE07B681B693B
:10263C00002B20D0364B01221A60FEF7C1FC38610A
:10264C0008E0FEF7BDFC02463B69D31A022B01D908
:10265C0003239BE12D4B1B6803F00203002BF0D0EE
:10266C002A4B1B6823F0F8027B685B69DB00274967
:10267C0013430B6015E0264B00221A60FEF7A0FCFA
:10268C00386108E0FEF79CFC02463B69D31A022B2A
:10269C0001D903237AE11D4B1B6803F00203002BC5
:1026AC00F0D17B681B6803F00803002B3AD07B68E1
:1026BC009B69002B19D0174B01221A60FEF780FC86
:1026CC00386108E0FEF77CFC02463B69D31A022B0A
:1026DC0001D903235AE10D4B5B6A03F00203002B73
:1026EC00F0D0012000F0C6FA1CE00A4B00221A6060
:1026FC00FEF766FC38610FE0FEF762FC02463B69B0
:10270C00D31A022B08D9032340E100BF001002406A
:10271C0000004242800442429E4B5B6A03F002037B
:10272C00002BE9D17B681B6803F00403002B00F03D
:10273C00A6800023FB75974BDB6903F08053002BBD
:10274C000DD1944BDB69934A43F08053D361914B89
:10275C00DB6903F08053BB60BB680123FB758E4BB8
:10276C001B6803F48073002B18D18B4B1B688A4AAF
:10277C0043F480731360FEF723FC386108E0FEF726
:10278C001FFC02463B69D31A642B01D90323FDE0DD
:10279C00814B1B6803F48073002BF0D07B68DB68E3
:1027AC00012B06D17B4B1B6A7A4A43F0010313625F
:1027BC002DE07B68DB68002B0CD1764B1B6A754ACD
:1027CC0023F001031362734B1B6A724A23F0040358
:1027DC0013621CE07B68DB68052B0CD16D4B1B6A0C
:1027EC006C4A43F0040313626A4B1B6A694A43F058
:1027FC00010313620BE0674B1B6A664A23F001036B
:10280C001362644B1B6A634A23F0040313627B68F4
:10281C00DB68002B15D0FEF7D3FB38610AE0FEF71E
:10282C00CFFB02463B69D31A41F28832934201D95D
:10283C000323ABE0574B1B6A03F00203002BEED0D3
:10284C0014E0FEF7BDFB38610AE0FEF7B9FB024667
:10285C003B69D31A41F28832934201D9032395E0A4
:10286C004C4B1B6A03F00203002BEED1FB7D012BBA
:10287C0005D1484BDB69474A23F08053D3617B6811
:10288C00DB69002B00F08180424B5B6803F00C038A
:10289C00082B61D07B68DB69022B46D13F4B0022B1
:1028AC001A60FEF78DFB386108E0FEF789FB0246E3
:1028BC003B69D31A022B01D9032367E0354B1B6804
:1028CC0003F00073002BF0D17B681B6AB3F5803FDB
:1028DC0008D1304B5B6823F400327B689B682D4930
:1028EC0013434B602B4B5B6823F474127B68196A9F
:1028FC007B685B6A0B43274913434B60274B0122D0
:10290C001A60FEF75DFB386108E0FEF759FB0246E2
:10291C003B69D31A022B01D9032337E01D4B1B68EB
:10292C0003F00073002BF0D02FE01C4B00221A6038
:10293C00FEF746FB386108E0FEF742FB02463B69B6
:10294C00D31A022B01D9032320E0124B1B6803F08E
:10295C000073002BF0D118E07B68DB69012B01D1EF
:10296C00012313E00B4B5B68FB60FB6803F48032C4
:10297C007B681B6A9A4206D1FB6803F470127B6871
:10298C005B6A9A4201D0012300E0002318461837F5
:10299C00BD4680BD00100240007000406000424205
:1029AC0080B584B000AF786039607B68002B01D1B2
:1029BC000123D0E06A4B1B6803F007033A689A4284
:1029CC0010D9674B1B6823F0070265493B6813431A
:1029DC000B60634B1B6803F007033A689A4201D003
:1029EC000123B8E07B681B6803F00203002B20D0A6
:1029FC007B681B6803F00403002B05D0594B5B6804
:102A0C00584A43F4E06353607B681B6803F0080387
:102A1C00002B05D0534B5B68524A43F46053536010
:102A2C00504B5B6823F0F0027B689B684D49134365
:102A3C004B607B681B6803F00103002B40D07B6864
:102A4C005B68012B07D1474B1B6803F40033002B49
:102A5C0015D101237FE07B685B68022B07D1414BCA
:102A6C001B6803F00073002B09D1012373E03D4B6D
:102A7C001B6803F00203002B01D101236BE0394BDF
:102A8C005B6823F003027B685B68364913434B6039
:102A9C00FEF796FAF8600AE0FEF792FA0246FB6837
:102AAC00D31A41F28832934201D9032353E02D4BC0
:102ABC005B6803F00C027B685B689B009A42EBD16D
:102ACC00274B1B6803F007033A689A4210D2244B39
:102ADC001B6823F0070222493B6813430B60204B11
:102AEC001B6803F007033A689A4201D0012332E0D5
:102AFC007B681B6803F00403002B08D0194B5B6840
:102B0C0023F4E0627B68DB68164913434B607B68F7
:102B1C001B6803F00803002B09D0124B5B6823F4ED
:102B2C0060527B681B69DB000E4913434B6000F05D
:102B3C0021F801460B4B5B681B0903F00F030A4A93
:102B4C00D35C21FA03F3094A1360094B1B6818463E
:102B5C00FEF7F4F9002318461037BD4680BD00BFC0
:102B6C000020024000100240482D00080000002008
:102B7C000400002090B48AB000AF2A4B3C1D0FCB50
:102B8C0084E80F00284B1B883B800023FB6100234B
:102B9C00BB6100237B6200237B6100233B62234BE0
:102BAC005B68FB61FB6903F00C03042B02D0082B60
:102BBC0003D02DE01E4B3B622DE0FB699B0C03F018
:102BCC000F0307F12802134413F8243C7B61FB69C3
:102BDC0003F48033002B13D0144B5B685B0C03F0B5
:102BEC00010307F12802134413F8283CBB617B69ED
:102BFC000F4A02FB03F2BB69B2FBF3F37B6204E006
:102C0C007B690C4A02FB03F37B627B6A3B6202E04A
:102C1C00074B3B6200BF3B6A18462837BD4690BC49
:102C2C00704700BF342D0008442D000800100240EE
:102C3C0000127A0000093D0080B400AF024B1B6803
:102C4C001846BD4680BC70470000002080B500AF20
:102C5C00FFF7F2FF0146054B5B681B0A03F0070305
:102C6C00034AD35C21FA03F3184680BD00100240DE
:102C7C00582D000880B485B000AF78600A4B1B68F3
:102C8C000A4AA2FB03235B0A7A6802FB03F3FB608C
:102C9C0000BFFB685A1EFA60002BF9D100BF143735
:102CAC00BD4680BC704700BF00000020D34D6210B1
:102CBC0070B500250C4E0D4CA41BA410A54209D1D7
:102CCC0000F022F800250A4E0A4CA41BA410A542C1
:102CDC0005D170BD56F8253098470135EEE756F80A
:102CEC00253098470135F2E7602D0008602D00086B
:102CFC00602D0008642D000803460244934200D165
:102D0C00704703F8011BF9E7F8B500BFF8BC08BC25
:102D1C009E467047F8B500BFF8BC08BC9E4670478D
:102D2C000301030004000000020304050607080960
:102D3C000A0B0C0D0E0F1010010200000000000019
:102D4C00000000000102030406070809000000004F
:042D5C000102030469
:042D60003101000835
:042D64000D01000855
:0C2D68000024F400100000000100000036
:0400000508000ED110
:00000001FF
