:020000040800F2
:1000000000500020ED0300088D030008990300084C
:100010009F030008A5030008AB03000800000000D0
:10002000000000000000000000000000B103000814
:10003000BD03000800000000C9030008D503000844
:1000400035040008350400083504000835040008AC
:10005000350400083504000835040008350400089C
:10006000350400083504000835040008350400088C
:10007000350400083504000835040008350400087C
:10008000350400083504000835040008350400086C
:10009000350400083504000835040008350400085C
:1000A000350400083504000835040008350400084C
:1000B000350400083504000835040008350400083C
:1000C000350400083504000835040008350400082C
:1000D000350400083504000835040008350400081C
:1000E000350400083504000835040008000000004D
:1000F0000000000000000000000000000000000000
:0C01000000000000000000005FF808F1A3
:10010C0010B5054C237833B9044B13B10448AFF345
:10011C0000800123237010BD0C00002000000000A3
:10012C001016000808B5034B1BB103490348AFF385
:10013C00008008BD00000000100000201016000810
:10014C0080B582B000AF00F071F900F029F800F032
:10015C006DF801F0D7F94FF4FA6000F0C9F901F02D
:10016C00B1F80023FB7111E0FB790C4AD35C184603
:10017C0001F0DCF9202001F097F9FB79022B02D178
:10018C00C02001F063F9FB790133FB71FB79042B7F
:10019C00EAD94FF47A7000F0ABF9DAE728000020C6
:1001AC0080B590B000AF07F1180328220021184643
:1001BC0001F020FA3B1D00221A605A609A60DA6046
:1001CC001A610123BB614FF48033FB6100233B6256
:1001DC000123BB6202237B634FF48033BB634FF478
:1001EC00E013FB6307F11803184600F011FC0346FB
:1001FC00002B01D000F08CF80F237B600223BB6036
:10020C000023FB604FF480633B6100237B613B1D4B
:10021C000221184600F07CFE0346002B01D000F0B2
:10022C0077F800BF4037BD4680BD000080B588B070
:10023C0000AF07F1100300221A605A609A60DA606E
:10024C00304B9B692F4A43F0200393612D4B9B69E4
:10025C0003F02003FB60FB682A4B9B69294A43F09F
:10026C0004039361274B9B6903F00403BB60BB68D9
:10027C00244B9B69234A43F008039361214B9B69F0
:10028C0003F008037B607B68002248F6E0011E48FF
:10029C0000F0A5FB00224FF47E711C4800F09FFB80
:1002AC0048F2E0033B6101237B610023BB61022325
:1002BC00FB6107F110031946134800F01FFA4FF4C5
:1002CC0000633B6111237B610023BB610223FB6153
:1002DC0007F1100319460C4800F010FA4FF47E7326
:1002EC003B6101237B610023BB610223FB6107F1AE
:1002FC0010031946054800F001FA00BF2037BD462F
:10030C0080BD00BF0010024000080140000C0140FD
:10031C0080B400AF00BFBD4680BC704780B485B0D0
:10032C0000AF154B9B69144A43F001039361124BC8
:10033C009B6903F00103BB60BB680F4BDB690E4A82
:10034C0043F08053D3610C4BDB6903F080537B602B
:10035C007B680A4B5B68FB60FB6823F0E063FB6027
:10036C00FB6843F08063FB60044AFB68536000BF8A
:10037C001437BD4680BC704700100240000001409D
:10038C0080B400AF00BFBD4680BC704780B400AFE6
:10039C00FEE780B400AFFEE780B400AFFEE780B4A8
:1003AC0000AFFEE780B400AF00BFBD4680BC704715
:1003BC0080B400AF00BFBD4680BC704780B400AFB6
:1003CC0000BFBD4680BC704780B500AF00F074F82C
:1003DC0000BF80BD80B400AF00BFBD4680BC70477D
:1003EC00002103E00B4B5B58435004310A480B4B84
:1003FC0042189A42F6D30A4A02E0002342F8043B20
:10040C00084B9A42F9D3FFF7E5FF01F0CFF8FFF75D
:10041C0097FE704754160008000000200C000020C6
:10042C000C00002034000020FEE7000080B500AF77
:10043C00084B1B68074A43F010031360032000F0BD
:10044C0029F9002000F008F8FFF768FF0023184690
:10045C0080BD00BF0020024080B582B000AF786044
:10046C00124B1A68124B1B7819464FF47A73B3FB74
:10047C00F1F3B2FBF3F3184600F033F90346002B0B
:10048C0001D001230EE07B680F2B0AD8002279687B
:10049C004FF0FF3000F009F9064A7B681360002327
:1004AC0000E0012318460837BD4680BD000000203F
:1004BC00080000200400002080B400AF054B1B781E
:1004CC001A46054B1B681344034A136000BFBD4614
:1004DC0080BC7047080000203000002080B400AFC2
:1004EC00024B1B681846BD4680BC7047300000208C
:1004FC0080B584B000AF7860FFF7F0FFB8607B6820
:10050C00FB60FB68B3F1FF3F05D0094B1B781A4623
:10051C00FB681344FB6000BFFFF7E0FF0246BB68BB
:10052C00D31AFA689A42F7D800BF1037BD4680BD7F
:10053C000800002080B485B000AF78607B6803F0C1
:10054C000703FB600C4BDB68BB60BA684FF6FF031C
:10055C001340BB60FB681A02BB68134343F0BF63D4
:10056C0043F40033BB60044ABB68D36000BF14374C
:10057C00BD4680BC704700BF00ED00E080B400AF0A
:10058C00044BDB681B0A03F007031846BD4680BC0E
:10059C00704700BF00ED00E080B483B000AF0346AD
:1005AC003960FB7197F90730002B0ADB3B68DAB234
:1005BC000C4997F907301201D2B20B4483F800238F
:1005CC000AE03B68DAB20849FB7903F00F03043BFD
:1005DC001201D2B20B441A7600BF0C37BD4680BC58
:1005EC00704700BF00E100E000ED00E080B489B08E
:1005FC0000AFF860B9607A60FB6803F00703FB6139
:10060C00FB69C3F10703042B28BF0423BB61FB69FF
:10061C000433062B02D9FB69033B00E000237B610A
:10062C004FF0FF32BB6902FA03F3DA43BB681A409E
:10063C007B699A404FF0FF317B6901FA03F3D94390
:10064C007B680B40134318462437BD4680BC70476B
:10065C0080B582B000AF78607B68013BB3F1807FDE
:10066C0001D301230FE00A4A7B68013B53600F2141
:10067C004FF0FF30FFF790FF054B00229A60044BC0
:10068C0007221A60002318460837BD4680BD00BFFC
:10069C0010E000E080B582B000AF78607868FFF7BA
:1006AC0049FF00BF0837BD4680BD80B586B000AF9E
:1006BC000346B9607A60FB7300237B61FFF75EFF32
:1006CC0078617A68B9687869FFF790FF024697F904
:1006DC000F3011461846FFF75FFF00BF1837BD46B5
:1006EC0080BD80B582B000AF78607868FFF7B0FF4E
:1006FC00034618460837BD4680BD000080B48BB059
:10070C0000AF7860396000237B6200233B6227E1F5
:10071C0001227B6A02FA03F3FB613B681B68FA69EE
:10072C001340BB61BA69FB699A4240F016813B6881
:10073C005B68122B34D0122B0DD8022B2BD0022B32
:10074C0004D8002B31D0012B1CD048E0032B43D014
:10075C00112B1BD043E0894A934226D0874A9342FF
:10076C0006D8874A934220D0864A93421DD036E061
:10077C00854A934219D0854A934216D0844A9342B3
:10078C0013D02CE03B68DB683B6228E03B68DB68FD
:10079C0004333B6223E03B68DB6808333B621EE0BA
:1007AC003B68DB680C333B6219E03B689B68002BB1
:1007BC0002D104233B6212E03B689B68012B05D1FC
:1007CC0008233B627B68FA691A6108E008233B62E4
:1007DC007B68FA695A6102E000233B6200BFBB6987
:1007EC00FF2B01D87B6801E07B6804337B61BB691C
:1007FC00FF2B02D87B6A9B0002E07B6A083B9B00C4
:10080C003B617B691A680F213B6901FA03F3DB43F7
:10081C001A40396A3B6901FA03F31A437B691A607F
:10082C003B685B6803F08053002B00F09680594BBB
:10083C009B69584A43F001039361564B9B6903F043
:10084C000103BB60BB68544A7B6A9B08023352F8B5
:10085C002330FB607B6A03F003039B000F2202FA38
:10086C0003F3DB43FA681340FB607B684B4A93420B
:10087C0013D07B684A4A93420DD07B68494A934215
:10088C0007D07B68484A934201D1032306E0042336
:10089C0004E0022302E0012300E000237A6A02F064
:1008AC00030292009340FA681343FB603A497B6A57
:1008BC009B080233FA6841F823203B685B6803F419
:1008CC008033002B06D0394B1A683849BB69134367
:1008DC000B6006E0354B1A68BB69DB4333491340A8
:1008EC000B603B685B6803F40033002B06D02F4B86
:1008FC005A682E49BB6913434B6006E02B4B5A6870
:10090C00BB69DB43294913404B603B685B6803F4CC
:10091C008013002B06D0254B9A682449BB691343DE
:10092C008B6006E0214B9A68BB69DB431F4913407F
:10093C008B603B685B6803F40013002B06D01B4BE9
:10094C00DA681A49BB691343CB6006E0174BDA68C7
:10095C00BB69DB4315491340CB607B6A01337B6277
:10096C003B681A687B6A22FA03F3002B7FF4D0AE43
:10097C0000BF2C37BD4680BC704700BF0000211063
:10098C000000111000001210000031100000321095
:10099C00000022100010024000000140000801403D
:1009AC00000C014000100140001401400004014003
:1009BC0080B485B000AF78600B467B807B689A680A
:1009CC007B881340002B02D00123FB7301E0002332
:1009DC00FB73FB7B18461437BD4680BC704780B454
:1009EC0083B000AF78600B467B8013467B707B78BE
:1009FC00002B03D07A887B681A6103E07B881A0489
:100A0C007B681A6100BF0C37BD4680BC7047000084
:100A1C0080B586B000AF78607B68002B01D10123D4
:100A2C006CE27B681B6803F00103002B00F08780ED
:100A3C00924B5B6803F00C03042B0CD08F4B5B6860
:100A4C0003F00C03082B12D18C4B5B6803F480333E
:100A5C00B3F5803F0BD1894B1B6803F40033002B9B
:100A6C006CD07B685B68002B68D1012346E27B6805
:100A7C005B68B3F5803F06D1804B1B687F4A43F41B
:100A8C00803313602EE07B685B68002B0CD17B4BB2
:100A9C001B687A4A23F480331360784B1B68774ABF
:100AAC0023F4802313601DE07B685B68B3F5A02FF3
:100ABC000CD1724B1B68714A43F4802313606F4B4B
:100ACC001B686E4A43F4803313600BE06B4B1B685E
:100ADC006A4A23F480331360684B1B68674A23F41B
:100AEC00802313607B685B68002B13D0FFF7F6FC48
:100AFC00386108E0FFF7F2FC02463B69D31A642B1D
:100B0C0001D90323FAE15D4B1B6803F40033002B7E
:100B1C00F0D014E0FFF7E2FC386108E0FFF7DEFCF0
:100B2C0002463B69D31A642B01D90323E6E1534BEC
:100B3C001B6803F40033002BF0D100E000BF7B688E
:100B4C001B6803F00203002B63D04C4B5B6803F073
:100B5C000C03002B0BD0494B5B6803F00C03082BE8
:100B6C001CD1464B5B6803F48033002B16D1434BEE
:100B7C001B6803F00203002B05D07B681B69012B5B
:100B8C0001D00123BAE13D4B1B6823F0F8027B68CE
:100B9C005B69DB00394913430B603AE07B681B69E6
:100BAC00002B20D0364B01221A60FFF797FC3861DE
:100BBC0008E0FFF793FC02463B69D31A022B01D9DC
:100BCC0003239BE12D4B1B6803F00203002BF0D099
:100BDC002A4B1B6823F0F8027B685B69DB00274912
:100BEC0013430B6015E0264B00221A60FFF776FCCE
:100BFC00386108E0FFF772FC02463B69D31A022BFE
:100C0C0001D903237AE11D4B1B6803F00203002B6F
:100C1C00F0D17B681B6803F00803002B3AD07B688B
:100C2C009B69002B19D0174B01221A60FFF756FC59
:100C3C00386108E0FFF752FC02463B69D31A022BDD
:100C4C0001D903235AE10D4B5B6A03F00203002B1D
:100C5C00F0D0012000F0B2FA1CE00A4B00221A601E
:100C6C00FFF73CFC38610FE0FFF738FC02463B69AC
:100C7C00D31A022B08D9032340E100BF0010024015
:100C8C0000004242800442429E4B5B6A03F0020326
:100C9C00002BE9D17B681B6803F00403002B00F0E8
:100CAC00A6800023FB75974BDB6903F08053002B68
:100CBC000DD1944BDB69934A43F08053D361914B34
:100CCC00DB6903F08053BB60BB680123FB758E4B63
:100CDC001B6803F48073002B18D18B4B1B688A4A5A
:100CEC0043F480731360FFF7F9FB386108E0FFF7FA
:100CFC00F5FB02463B69D31A642B01D90323FDE0B3
:100D0C00814B1B6803F48073002BF0D07B68DB688D
:100D1C00012B06D17B4B1B6A7A4A43F00103136209
:100D2C002DE07B68DB68002B0CD1764B1B6A754A77
:100D3C0023F001031362734B1B6A724A23F0040302
:100D4C0013621CE07B68DB68052B0CD16D4B1B6AB6
:100D5C006C4A43F0040313626A4B1B6A694A43F002
:100D6C00010313620BE0674B1B6A664A23F0010315
:100D7C001362644B1B6A634A23F0040313627B689F
:100D8C00DB68002B15D0FFF7A9FB38610AE0FFF7F1
:100D9C00A5FB02463B69D31A41F28832934201D932
:100DAC000323ABE0574B1B6A03F00203002BEED07E
:100DBC0014E0FFF793FB38610AE0FFF78FFB024664
:100DCC003B69D31A41F28832934201D9032395E04F
:100DDC004C4B1B6A03F00203002BEED1FB7D012B65
:100DEC0005D1484BDB69474A23F08053D3617B68BC
:100DFC00DB69002B00F08180424B5B6803F00C0335
:100E0C00082B61D07B68DB69022B46D13F4B00225B
:100E1C001A60FFF763FB386108E0FFF75FFB0246DF
:100E2C003B69D31A022B01D9032367E0354B1B68AE
:100E3C0003F00073002BF0D17B681B6AB3F5803F85
:100E4C0008D1304B5B6823F400327B689B682D49DA
:100E5C0013434B602B4B5B6823F474127B68196A49
:100E6C007B685B6A0B43274913434B60274B01227A
:100E7C001A60FFF733FB386108E0FFF72FFB0246DF
:100E8C003B69D31A022B01D9032337E01D4B1B6896
:100E9C0003F00073002BF0D02FE01C4B00221A60E3
:100EAC00FFF71CFB386108E0FFF718FB02463B69B3
:100EBC00D31A022B01D9032320E0124B1B6803F039
:100ECC000073002BF0D118E07B68DB69012B01D19A
:100EDC00012313E00B4B5B68FB60FB6803F480326F
:100EEC007B681B6A9A4206D1FB6803F470127B681C
:100EFC005B6A9A4201D0012300E0002318461837A0
:100F0C00BD4680BD001002400070004060004242AF
:100F1C0080B584B000AF786039607B68002B01D15C
:100F2C000123D0E06A4B1B6803F007033A689A422E
:100F3C0010D9674B1B6823F0070265493B681343C4
:100F4C000B60634B1B6803F007033A689A4201D0AD
:100F5C000123B8E07B681B6803F00203002B20D050
:100F6C007B681B6803F00403002B05D0594B5B68AE
:100F7C00584A43F4E06353607B681B6803F0080332
:100F8C00002B05D0534B5B68524A43F460535360BB
:100F9C00504B5B6823F0F0027B689B684D49134310
:100FAC004B607B681B6803F00103002B40D07B680F
:100FBC005B68012B07D1474B1B6803F40033002BF4
:100FCC0015D101237FE07B685B68022B07D1414B75
:100FDC001B6803F00073002B09D1012373E03D4B18
:100FEC001B6803F00203002B01D101236BE0394B8A
:100FFC005B6823F003027B685B68364913434B60E4
:10100C00FFF76CFAF8600AE0FFF768FA0246FB6833
:10101C00D31A41F28832934201D9032353E02D4B6A
:10102C005B6803F00C027B685B689B009A42EBD117
:10103C00274B1B6803F007033A689A4210D2244BE3
:10104C001B6823F0070222493B6813430B60204BBB
:10105C001B6803F007033A689A4201D0012332E07F
:10106C007B681B6803F00403002B08D0194B5B68EA
:10107C0023F4E0627B68DB68164913434B607B68A2
:10108C001B6803F00803002B09D0124B5B6823F498
:10109C0060527B681B69DB000E4913434B6000F008
:1010AC0021F801460B4B5B681B0903F00F030A4A3E
:1010BC00D35C21FA03F3094A1360094B1B681846E9
:1010CC00FFF7CAF9002318461037BD4680BD00BF94
:1010DC0000200240001002403C16000800000020D6
:1010EC000400002090B48AB000AF2A4B3C1D0FCBFB
:1010FC0084E80F00284B1B883B800023FB610023F6
:10110C00BB6100237B6200237B6100233B62234B8A
:10111C005B68FB61FB6903F00C03042B02D0082B0A
:10112C0003D02DE01E4B3B622DE0FB699B0C03F0C2
:10113C000F0307F12802134413F8243C7B61FB696D
:10114C0003F48033002B13D0144B5B685B0C03F05F
:10115C00010307F12802134413F8283CBB617B6997
:10116C000F4A02FB03F2BB69B2FBF3F37B6204E0B0
:10117C007B690C4A02FB03F37B627B6A3B6202E0F5
:10118C00074B3B6200BF3B6A18462837BD4690BCF4
:10119C00704700BF281600083816000800100240DF
:1011AC0000127A0000093D0080B400AF024B1B68AE
:1011BC001846BD4680BC70470000002080B485B046
:1011CC0000AF78600A4B1B680A4AA2FB03235B0A38
:1011DC007A6802FB03F3FB6000BFFB685A1EFA60DF
:1011EC00002BF9D100BF1437BD4680BC704700BF3F
:1011FC0000000020D34D621080B584B000AF786041
:10120C00FFF7D2FF0246094BA3FB02231A0D7B68A2
:10121C0002FB03F3FB6000BFFB685A1EFA60002B55
:10122C00FAD100BF1037BD4680BD00BF83DE1B4323
:10123C0080B582B000AF0023FB710023BB7100238B
:10124C007B7134E00123BB7100BF4FF400611C487B
:10125C00FFF7AEFB0346002B04D1BB795A1CBA71C5
:10126C00002BF2D11C20FFF7C7FFFB795B00FB7151
:10127C004FF400611248FFF79BFB0346002B03D091
:10128C00FB7943F00103FB710123BB7100BF4FF4E9
:10129C0000610B48FFF78CFB0346002B04D0BB7995
:1012AC005A1CBA71002BF2D17B7901337B717B799B
:1012BC00072BC7D9FB7918460837BD4680BD00BF40
:1012CC000008014090B583B000AF01224FF40061DB
:1012DC002948FFF784FB1420FFF78EFF00224FF400
:1012EC0000612548FFF77BFB1420FFF701F9012271
:1012FC004FF400612048FFF772FB1420FFF77CFFCE
:10130C004FF400611C48FFF753FB0346002B2FD111
:10131C001A4B01221A7000BF4FF400611648FFF7F8
:10132C0047FB0346002B07D1144B1B785A1CD1B238
:10133C00124A1170002BEFD1104B01221A7000BF12
:10134C004FF400610C48FFF733FB0346002BF7D139
:10135C000023FB7109E0FC79FFF76AFF03461A468C
:10136C00074B1A55FB790133FB71FB79042BF2D92E
:10137C0000BF0C37BD4690BD00080140090000209D
:10138C002800002080B582B000AF0346FB71FB79CA
:10139C0003F00103DBB21A464FF400412948FFF772
:1013AC001EFBFB795B08DBB203F00103DBB21A46D0
:1013BC0008212548FFF713FBFB799B08DBB203F0F0
:1013CC000103DBB21A4610211F48FFF708FBFB791B
:1013DC00DB08DBB203F00103DBB21A4620211A480A
:1013EC00FFF7FDFAFB791B09DBB203F00103DBB25B
:1013FC001A4640211448FFF7F2FAFB795B09DBB27D
:10140C0003F00103DBB21A4680210F48FFF7E7FA1D
:10141C00FB799B09DBB203F00103DBB21A464FF4F4
:10142C0080710948FFF7DBFAFB79DB09DBB21A465E
:10143C004FF400710448FFF7D2FA00BF0837BD46DD
:10144C0080BD00BF00080140000C014080B582B097
:10145C0000AF0346FB71002280211248FFF7BFFA50
:10146C00002240210F48FFF7BAFA002220210D4834
:10147C00FFF7B5FAFB791846FFF784FF0120FFF759
:10148C0037F8012280210748FFF7A9FA0120FFF75E
:10149C002FF8002280210348FFF7A1FA00BF08377C
:1014AC00BD4680BD0008014080B582B000AF034648
:1014BC00FB71002280211248FFF791FA0122402192
:1014CC000F48FFF78CFA002220210D48FFF787FA0E
:1014DC00FB791846FFF756FF0120FFF709F80122A8
:1014EC0080210748FFF77BFA0120FFF701F8002263
:1014FC0080210348FFF773FA00BF0837BD4680BD53
:10150C000008014080B500AF3820FFF79FFF0C208A
:10151C00FFF79CFF0620FFF799FF0120FFF796FFCE
:10152C008020FFF793FF00BF80BD000080B582B024
:10153C0000AF0346FB71FB791A4AA2FB03235B093C
:10154C00DBB23033DBB21846FFF7AEFFFB79154A3E
:10155C00A2FB03125209642101FB02F29B1ADBB2BB
:10156C00114AA2FB0323DB08DBB23033DBB2184693
:10157C00FFF79AFFFA790C4BA3FB0213D9080B4621
:10158C009B000B445B00D31ADBB23033DBB2184642
:10159C00FFF78AFF4FF47A70FEF7AAFF00BF0837F7
:1015AC00BD4680BD1F85EB51CDCCCCCC70B5002594
:1015BC000C4E0D4CA41BA410A54209D100F022F82E
:1015CC0000250A4E0A4CA41BA410A54205D170BDDF
:1015DC0056F8253098470135EEE756F825309847F0
:1015EC000135F2E74C1600084C1600084C160008A2
:1015FC005016000803460244934200D1704703F88A
:10160C00011BF9E7F8B500BFF8BC08BC9E46704753
:0C161C00F8B500BFF8BC08BC9E46704743
:1016280002030405060708090A0B0C0D0E0F10101B
:101638000102000000000000000000000102030495
:041648000607080980
:04164C003101000860
:041650000D01000880
:0C1654000024F400100000000101000060
:04000005080003EDFF
:00000001FF
