:020000040800F2
:100000000050002049070008C1060008CD0600087E
:10001000D3060008D9060008DF060008000000002B
:10002000000000000000000000000000E5060008DD
:10003000F106000800000000FD060008090700089E
:100040009107000891070008910700089107000830
:100050009107000891070008910700089107000820
:100060009107000891070008910700089107000810
:100070009107000891070008910700089107000800
:1000800091070008910700089107000891070008F0
:1000900091070008910700089107000891070008E0
:1000A00091070008910700089107000891070008D0
:1000B000150700089107000891070008910700083C
:1000C00091070008910700089107000891070008B0
:1000D0009107000829070008910700089107000808
:1000E0009107000891070008910700080000000030
:1000F0000000000000000000000000000000000000
:0C01000000000000000000005FF808F1A3
:10010C0010B5054C237833B9044B13B10448AFF345
:10011C0000800123237010BD4C0000200000000063
:10012C00D850000808B5034B1BB103490348AFF383
:10013C00008008BD0000000050000020D8500008CE
:10014C00034613F8012B002AFBD1181A013870470B
:10015C0090B587B000AF00F017FB00F05FF800F02F
:10016C0047F900F0A1F800F0CDF800F017F9274A94
:10017C003B1D92E8030018600433198004F0D0FD95
:10018C003B1D93E8030004F0C9F8802004F06CFDDB
:10019C0004F034F904F018FA04F002F90346184696
:1001AC0004F0A4F938613B69184604F079FE04F0B8
:1001BC0069FC174804F0C8FD0023FB7508E0FB7DC3
:1001CC00144AD35C184604F07DFDFB7D0133FB75AE
:1001DC00FC7D1048FFF7B4FF03469C42EFD3C020D0
:1001EC0004F042FD04F0C2F90346184604F036FB55
:1001FC00F860F86804F0B0FE04F0A4FC064B1B8811
:10020C00184604F0D3FD04F059F8BEE7F05000088E
:10021C0068000020000000206E00002080B590B027
:10022C0000AF07F1180328220021184604F046FFFE
:10023C003B1D00221A605A609A60DA601A61012331
:10024C00BB614FF48033FB6100233B620123BB6233
:10025C0002237B634FF48033BB634FF4E013FB63E7
:10026C0007F11803184602F0B7FA0346002B01D029
:10027C0000F030F90F237B600223BB600023FB608E
:10028C004FF480633B6100237B613B1D02211846C8
:10029C0002F022FD0346002B01D000F01BF900BF39
:1002AC004037BD4680BD000080B500AF124B134AED
:1002BC001A60114B124A5A600F4B00229A600E4B77
:1002CC000022DA600C4B4FF480421A610A4B002278
:1002DC005A61094B00229A61074B0022DA61064BE6
:1002EC0000221A62044800F0E1FD0346002B01D005
:1002FC0000F0F0F800BF80BD7400002000580040F2
:10030C00A086010080B586B000AF07F1080300227B
:10031C001A605A609A60DA603B4600221A605A6092
:10032C001D4B4FF080421A601B4B00225A601A4B37
:10033C0000229A60184B4FF6FF72DA60164B0022BF
:10034C001A61154B00229A61134802F061FE0346B4
:10035C00002B01D000F0BEF84FF48053BB6007F1C6
:10036C00080319460C4802F0AAFF0346002B01D0E3
:10037C0000F0B0F800233B6000237B603B4619463D
:10038C00054803F079F90346002B01D000F0A2F8E0
:10039C0000BF1837BD4680BD2001002080B500AFDE
:1003AC00114B124A1A60104B4FF416525A600E4BF6
:1003BC0000229A600C4B0022DA600B4B00221A616F
:1003CC00094B0C225A61084B00229A61064B002201
:1003DC00DA61054803F0C0F90346002B01D000F0A8
:1003EC0079F800BF80BD00BFD80000200038014064
:1003FC0080B588B000AF07F1100300221A605A6074
:10040C009A60DA60304B9B692F4A43F0200393616A
:10041C002D4B9B6903F02003FB60FB682A4B9B6907
:10042C00294A43F004039361274B9B6903F00403AF
:10043C00BB60BB68244B9B69234A43F00803936160
:10044C00214B9B6903F008037B607B68002248F614
:10045C00E0011E4800F011FD00224FF47E711C4893
:10046C0000F00BFD48F2E0033B6101237B610023AC
:10047C00BB610223FB6107F110031946134800F01E
:10048C008BFB4FF400633B6111237B610023BB6149
:10049C000223FB6107F1100319460C4800F07CFBAA
:1004AC004FF47E733B6101237B610023BB6102230C
:1004BC00FB6107F110031946054800F06DFB00BF06
:1004CC002037BD4680BD00BF00100240000801402F
:1004DC00000C014080B400AF00BFBD4680BC70472B
:1004EC0080B485B000AF154B9B69144A43F00103EF
:1004FC009361124B9B6903F00103BB60BB680F4B0C
:10050C00DB690E4A43F08053D3610C4BDB6903F07B
:10051C0080537B607B680A4B5B68FB60FB6823F055
:10052C00E063FB60FB6843F08063FB60044AFB689C
:10053C00536000BF1437BD4680BC704700100240AA
:10054C000000014080B588B000AF786007F110035F
:10055C0000221A605A609A60DA607B681B68164A3F
:10056C00934224D1154B9B69144A43F008039361C1
:10057C00124B9B6903F00803FB60FB684FF440636C
:10058C003B6112237B610323FB6107F110031946C6
:10059C000B4800F001FB094BDB69084A43F480036C
:1005AC00D361064BDB6903F48003BB60BB6800BFFF
:1005BC002037BD4680BD00BF0058004000100240EF
:1005CC00000C014080B584B000AF78607B681B687C
:1005DC00B3F1804F13D10C4BDB690B4A43F0010391
:1005EC00D361094BDB6903F00103FB60FB6800225C
:1005FC0000211C2000F023FA1C2000F03CFA00BF64
:10060C001037BD4680BD00BF0010024080B588B0D9
:10061C0000AF786007F1100300221A605A609A60EC
:10062C00DA607B681B68204A934239D11F4B9B6967
:10063C001E4A43F4804393611C4B9B6903F4804333
:10064C00FB60FB68194B9B69184A43F004039361E8
:10065C00164B9B6903F00403BB60BB684FF400733B
:10066C003B6102237B610323FB6107F110031946F5
:10067C000F4800F091FA4FF480633B6100237B61DB
:10068C000023BB6107F110031946094800F084FAF6
:10069C0000220021252000F0D2F9252000F0EBF9F2
:1006AC0000BF2037BD4680BD00380140001002401D
:1006BC000008014080B400AF00BFBD4680BC70474D
:1006CC0080B400AFFEE780B400AFFEE780B400AFAB
:1006DC00FEE780B400AFFEE780B400AF00BFBD46BC
:1006EC0080BC704780B400AF00BFBD4680BC704773
:1006FC0080B400AF00BFBD4680BC704780B500AF72
:10070C0000F088F800BF80BD80B500AF024802F051
:10071C00CEFC00BF80BD00BF2001002080B500AF23
:10072C00024803F0F9F800BF80BD00BFD8000020DC
:10073C0080B400AF00BFBD4680BC7047002103E011
:10074C000B4B5B58435004310A480B4B42189A42EE
:10075C00F6D30A4A02E0002342F8043B084B9A42C3
:10076C00F9D3FFF7E5FF04F085FCFFF7F1FC7047C8
:10077C0048510008000000204C0000204C000020D4
:10078C0078010020FEE7000080B500AF084B1B6825
:10079C00074A43F010031360032000F045F90020D2
:1007AC0000F008F8FFF79CFE0023184680BD00BF40
:1007BC000020024080B582B000AF7860124B1A68FE
:1007CC00124B1B7819464FF47A73B3FBF1F3B2FB5F
:1007DC00F3F3184600F05DF90346002B01D001231A
:1007EC000EE07B680F2B0AD8002279684FF0FF309F
:1007FC0000F025F9064A7B681360002300E0012312
:10080C0018460837BD4680BD0800002010000020A7
:10081C000C00002080B400AF054B1B781A46054B2A
:10082C001B681344034A136000BFBD4680BC70476D
:10083C00100000207001002080B400AF024B1B6838
:10084C001846BD4680BC70477001002080B584B04E
:10085C0000AF7860FFF7F0FFB8607B68FB60FB6867
:10086C00B3F1FF3F05D0094B1B781A46FB681344C4
:10087C00FB6000BFFFF7E0FF0246BB68D31AFA68C3
:10088C009A42F7D800BF1037BD4680BD100000203B
:10089C0080B485B000AF78607B6803F00703FB6021
:1008AC000C4BDB68BB60BA684FF6FF031340BB60B0
:1008BC00FB681A02BB68134343F0BF6343F4003375
:1008CC00BB60044ABB68D36000BF1437BD4680BC14
:1008DC00704700BF00ED00E080B400AF044BDB6854
:1008EC001B0A03F007031846BD4680BC704700BFC7
:1008FC0000ED00E080B483B000AF0346FB7197F9C4
:10090C000730002B0BDBFB7903F01F02064997F92C
:10091C0007305B09012000FA02F241F8232000BFE6
:10092C000C37BD4680BC704700E100E080B483B05A
:10093C0000AF03463960FB7197F90730002B0ADBD7
:10094C003B68DAB20C4997F907301201D2B20B446A
:10095C0083F800230AE03B68DAB20849FB7903F01C
:10096C000F03043B1201D2B20B441A7600BF0C37B2
:10097C00BD4680BC704700BF00E100E000ED00E028
:10098C0080B489B000AFF860B9607A60FB6803F09E
:10099C000703FB61FB69C3F10703042B28BF042386
:1009AC00BB61FB690433062B02D9FB69033B00E0F6
:1009BC0000237B614FF0FF32BB6902FA03F3DA4389
:1009CC00BB681A407B699A404FF0FF317B6901FA92
:1009DC0003F3D9437B680B40134318462437BD46B9
:1009EC0080BC704780B582B000AF78607B68013BFB
:1009FC00B3F1807F01D301230FE00A4A7B68013BEE
:100A0C0053600F214FF0FF30FFF790FF054B002292
:100A1C009A60044B07221A60002318460837BD461B
:100A2C0080BD00BF10E000E080B582B000AF786000
:100A3C007868FFF72DFF00BF0837BD4680BD80B535
:100A4C0086B000AF0346B9607A60FB7300237B610C
:100A5C00FFF742FF78617A68B9687869FFF790FF11
:100A6C00024697F90F3011461846FFF75FFF00BF9B
:100A7C001837BD4680BD80B582B000AF0346FB7110
:100A8C0097F907301846FFF735FF00BF0837BD460A
:100A9C0080BD80B582B000AF78607868FFF7A2FFA8
:100AAC00034618460837BD4680BD000080B584B0AB
:100ABC0000AF78600023FB737B6893F82130022B26
:100ACC0005D07B6804229A630123FB7351E07B6899
:100ADC001B681A687B681B6822F00E021A607B6820
:100AEC001B681A687B681B6822F001021A607B681D
:100AFC001B68224A934229D07B681B68204A934288
:100B0C0022D07B681B681F4A93421AD07B681B68F3
:100B1C001D4A934212D07B681B681C4A93420AD030
:100B2C007B681B681A4A934202D14FF480130EE083
:100B3C004FF080730BE04FF4803308E04FF4805398
:100B4C0005E04FF4807302E0102300E00123114A0A
:100B5C0053607B68012283F821207B68002283F894
:100B6C0020207B685B6B002B03D07B685B6B786809
:100B7C009847FB7B18461037BD4680BD08000240E5
:100B8C001C00024030000240440002405800024069
:100B9C006C0002400000024080B48BB000AF786063
:100BAC00396000237B6200233B6227E101227B6AD0
:100BBC0002FA03F3FB613B681B68FA691340BB61E3
:100BCC00BA69FB699A4240F016813B685B68122B4C
:100BDC0034D0122B0DD8022B2BD0022B04D8002B87
:100BEC0031D0012B1CD048E0032B43D0112B1BD050
:100BFC0043E0894A934226D0874A934206D8874AD3
:100C0C00934220D0864A93421DD036E0854A9342C7
:100C1C0019D0854A934216D0844A934213D02CE0C3
:100C2C003B68DB683B6228E03B68DB6804333B6273
:100C3C0023E03B68DB6808333B621EE03B68DB6803
:100C4C000C333B6219E03B689B68002B02D10423F8
:100C5C003B6212E03B689B68012B05D108233B6289
:100C6C007B68FA691A6108E008233B627B68FA69C1
:100C7C005A6102E000233B6200BFBB69FF2B01D825
:100C8C007B6801E07B6804337B61BB69FF2B02D876
:100C9C007B6A9B0002E07B6A083B9B003B617B69A3
:100CAC001A680F213B6901FA03F3DB431A40396AD6
:100CBC003B6901FA03F31A437B691A603B685B6872
:100CCC0003F08053002B00F09680594B9B69584AD7
:100CDC0043F001039361564B9B6903F00103BB6026
:100CEC00BB68544A7B6A9B08023352F82330FB6082
:100CFC007B6A03F003039B000F2202FA03F3DB432E
:100D0C00FA681340FB607B684B4A934213D07B68B4
:100D1C004A4A93420DD07B68494A934207D07B687C
:100D2C00484A934201D1032306E0042304E0022342
:100D3C0002E0012300E000237A6A02F00302920031
:100D4C009340FA681343FB603A497B6A9B08023371
:100D5C00FA6841F823203B685B6803F48033002B6E
:100D6C0006D0394B1A683849BB6913430B6006E04F
:100D7C00354B1A68BB69DB43334913400B603B6846
:100D8C005B6803F40033002B06D02F4B5A682E49B6
:100D9C00BB6913434B6006E02B4B5A68BB69DB43C2
:100DAC00294913404B603B685B6803F48013002BAC
:100DBC0006D0254B9A682449BB6913438B6006E027
:100DCC00214B9A68BB69DB431F4913408B603B681E
:100DDC005B6803F40013002B06D01B4BDA681A492E
:100DEC00BB691343CB6006E0174BDA68BB69DB4386
:100DFC0015491340CB607B6A01337B623B681A68F0
:100E0C007B6A22FA03F3002B7FF4D0AE00BF2C37A1
:100E1C00BD4680BC704700BF0000211000001110BF
:100E2C0000001210000031100000321000002210DF
:100E3C00001002400000014000080140000C01407D
:100E4C0000100140001401400004014080B485B042
:100E5C0000AF78600B467B807B689A687B88134078
:100E6C00002B02D00123FB7301E00023FB73FB7BFF
:100E7C0018461437BD4680BC704780B483B000AFB1
:100E8C0078600B467B8013467B707B78002B03D0FD
:100E9C007A887B681A6103E07B881A047B681A6184
:100EAC0000BF0C37BD4680BC7047000080B584B0D5
:100EBC0000AF78607B68002B01D101231FE17B68B8
:100ECC0093F83D30DBB2002B06D17B68002283F80F
:100EDC003C207868FFF736FB7B68242283F83D20A2
:100EEC007B681B681A687B681B6822F001021A6019
:100EFC007B681B681A687B681B6842F400421A60A6
:100F0C007B681B681A687B681B6822F400421A60B5
:100F1C0002F038F8F8607B685B687B4A934207D82C
:100F2C00FB687A4A934294BF01230023DBB206E0AC
:100F3C00FB68774A934294BF01230023DBB2002B5A
:100F4C0001D00123DBE0FB68724AA2FB03239B0C5C
:100F5C00BB607B681B685B6823F03F017B681B6888
:100F6C00BA680A435A607B681B681B6A23F03F010E
:100F7C007B685B68644A934202D8BB68013309E022
:100F8C00BB684FF4967202FB03F3634AA2FB032384
:100F9C009B0901337A6812680B4313627B681B68E8
:100FAC00DB6923F44F4222F0FF027B685B685649F1
:100FBC008B420DD8FB68591E7B685B685B00B1FBEC
:100FCC00F3F30133C3F30B03042B38BF04234FE0BB
:100FDC007B689B68002B11D1FB68581E7B68596895
:100FEC000B465B000B44B0FBF3F30133C3F30B0371
:100FFC00002B0CBF01230023DBB212E0FB68581E50
:10100C007B6859680B469B000B4499000B44B0FB62
:10101C00F3F30133C3F30B03002B0CBF01230023A9
:10102C00DBB2002B01D0012322E07B689B68002BF4
:10103C000ED1FB68581E7B6859680B465B000B444D
:10104C00B0FBF3F30133C3F30B0343F400430FE0A2
:10105C00FB68581E7B6859680B469B000B44990033
:10106C000B44B0FBF3F30133C3F30B0343F44043E2
:10107C00796809681343CB617B681B681B6823F094
:10108C00C0017B68DA697B681B6A1A437B681B6842
:10109C000A431A607B681B689B6823F4034323F0A4
:1010AC00FF037A6811697A68D26811437A6812680A
:1010BC000B4393607B681B68DB6823F0FF017B6844
:1010CC005A697B689B691A437B681B680A43DA6020
:1010DC007B681B681A687B681B6842F001021A6007
:1010EC007B6800221A647B68202283F83D207B6891
:1010FC0000221A637B68002283F83E2000231846E6
:10110C001037BD4680BD00BFA08601007F841E0045
:10111C00FF083D0083DE1B43D34D621080B588B0C1
:10112C0002AFF8607A601A460B467B8113463B810E
:10113C00FFF782FB7861FB6893F83D30DBB2202B24
:10114C0040F0E0807B690093192301227049F86814
:10115C0001F066F90346002B01D00223D3E0FB68B3
:10116C0093F83C30012B01D10223CCE0FB68012227
:10117C0083F83C20FB681B681B6803F00103012B00
:10118C0007D0FB681B681A68FB681B6842F00102F9
:10119C001A60FB681B681A68FB681B6822F4006203
:1011AC001A60FB68212283F83D20FB68102283F82B
:1011BC003E20FB6800221A64FB687A685A62FB685E
:1011CC003A895A85FB685B8D9AB2FB681A85FB6875
:1011DC00504ADA6279897B693A6AF86800F052FE03
:1011EC000346002B01D001238DE000233B61FB68FB
:1011FC001B685B693B61FB681B689B693B613B69D6
:10120C0066E07A69396AF86801F0E0F90346002B68
:10121C000DD0FB681B6C042B07D1FB681B681A688C
:10122C00FB681B6842F400721A6001236BE0FB68D8
:10123C005B6A1A78FB681B681A61FB685B6A5A1C4C
:10124C00FB685A62FB685B8D9BB2013B9AB2FB68F0
:10125C005A85FB681B8D013B9AB2FB681A85FB68AB
:10126C001B685B6903F00403042B1BD1FB681B8D0B
:10127C00002B17D0FB685B6A1A78FB681B681A6135
:10128C00FB685B6A5A1CFB685A62FB685B8D9BB2FD
:10129C00013B9AB2FB685A85FB681B8D013B9AB2E5
:1012AC00FB681A857A69396AF86801F0D0F9034647
:1012BC00002B0DD0FB681B6C042B07D1FB681B6843
:1012CC001A68FB681B6842F400721A6001231AE06A
:1012DC00FB681B8D002B94D1FB681B681A68FB689C
:1012EC001B6842F400721A60FB68202283F83D20D0
:1012FC00FB68002283F83E20FB68002283F83C2028
:10130C00002300E0022318461837BD4680BD00BFFD
:10131C00020010000000FFFF80B58CB002AFF86037
:10132C007A601A460B467B8113463B8100233B6255
:10133C00FFF782FA7862FB6893F83D30DBB2202B22
:10134C0040F038827B6A0093192301227E49F868A9
:10135C0001F066F80346002B01D002232BE2FB6858
:10136C0093F83C30012B01D1022324E2FB680122CB
:10137C0083F83C20FB681B681B6803F00103012BFE
:10138C0007D0FB681B681A68FB681B6842F00102F7
:10139C001A60FB681B681A68FB681B6822F4006201
:1013AC001A60FB68222283F83D20FB68102283F828
:1013BC003E20FB6800221A64FB687A685A62FB685C
:1013CC003A895A85FB685B8D9AB2FB681A85FB6873
:1013DC005E4ADA6279897B6A3A6BF86800F0D4FD70
:1013EC000346002B01D00123E5E1FB681B8D002B8C
:1013FC0013D10023FB61FB681B685B69FB61FB6815
:10140C001B689B69FB61FB69FB681B681A68FB68BE
:10141C001B6842F400721A60B9E1FB681B8D012B4A
:10142C001DD1FB681B681A68FB681B6822F480627C
:10143C001A6072B60023BB61FB681B685B69BB61F9
:10144C00FB681B689B69BB61BB69FB681B681A68FE
:10145C00FB681B6842F400721A6062B697E1FB6885
:10146C001B8D022B1DD1FB681B681A68FB681B685F
:10147C0042F400621A6072B600237B61FB681B6841
:10148C005B697B61FB681B689B697B617B69FB68A3
:10149C001B681A68FB681B6822F480621A6062B6CB
:1014AC0075E1FB681B681A68FB681B6842F4806274
:1014BC001A6000233B61FB681B685B693B61FB683E
:1014CC001B689B693B613B6961E1FB681B8D032BCE
:1014DC0000F21A81FB681B8D012B23D17A6A396BC0
:1014EC00F86801F0F5F80346002B01D0012362E106
:1014FC00FB681B681A69FB685B6AD2B21A70FB68DE
:10150C005B6A5A1CFB685A62FB681B8D013B9AB2E2
:10151C00FB681A85FB685B8D9BB2013B9AB2FB683A
:10152C005A8534E1FB681B8D022B50D17B6A0093EA
:10153C003B6B00220649F86800F072FF0346002B53
:10154C0008D0012337E100BF020010000000FFFFAC
:10155C000400010072B6FB681B681A68FB681B6804
:10156C0042F400721A60FB681B681A69FB685B6ABC
:10157C00D2B21A70FB685B6A5A1CFB685A62FB6831
:10158C001B8D013B9AB2FB681A85FB685B8D9BB285
:10159C00013B9AB2FB685A8562B6FB681B681A69F4
:1015AC00FB685B6AD2B21A70FB685B6A5A1CFB68F8
:1015BC005A62FB681B8D013B9AB2FB681A85FB686B
:1015CC005B8D9BB2013B9AB2FB685A85DFE07B6A6C
:1015DC0000933B6B00227A49F86800F021FF034628
:1015EC00002B01D00123E6E0FB681B681A68FB683E
:1015FC001B6822F480621A6072B6FB681B681A6959
:10160C00FB685B6AD2B21A70FB685B6A5A1CFB6897
:10161C005A62FB681B8D013B9AB2FB681A85FB680A
:10162C005B8D9BB2013B9AB2FB685A85654B1B687C
:10163C00DB08654AA2FB03231A0A13469B001344DA
:10164C00DA00D31A3B623B6A013B3B623B6A002BDC
:10165C0017D1FB6800221A63FB68202283F83D2017
:10166C00FB68002283F83E20FB681B6C43F02002D1
:10167C00FB681A6462B6FB68002283F83C200123E5
:10168C0099E0FB681B685B6903F00403042BDAD157
:10169C00FB681B681A68FB681B6842F400721A60CE
:1016AC00FB681B681A69FB685B6AD2B21A70FB682C
:1016BC005B6A5A1CFB685A62FB681B8D013B9AB231
:1016CC00FB681A85FB685B8D9BB2013B9AB2FB6889
:1016DC005A8562B6FB681B681A69FB685B6AD2B2F2
:1016EC001A70FB685B6A5A1CFB685A62FB681B8D9C
:1016FC00013B9AB2FB681A85FB685B8D9BB2013B80
:10170C009AB2FB685A8542E07A6A396BF86800F045
:10171C00DFFF0346002B01D001234CE0FB681B6864
:10172C001A69FB685B6AD2B21A70FB685B6A5A1C56
:10173C00FB685A62FB681B8D013B9AB2FB681A85E9
:10174C00FB685B8D9BB2013B9AB2FB685A85FB68C8
:10175C001B685B6903F00403042B18D1FB681B683E
:10176C001A69FB685B6AD2B21A70FB685B6A5A1C16
:10177C00FB685A62FB681B8D013B9AB2FB681A85A9
:10178C00FB685B8D9BB2013B9AB2FB685A85FB6888
:10179C001B8D002B7FF499AEFB68202283F83D2033
:1017AC00FB68002283F83E20FB68002283F83C2073
:1017BC00002300E0022318462837BD4680BD00BF39
:1017CC00040001000800002089B5F81480B588B029
:1017DC0002AFF860084611461A4603467B810B4659
:1017EC003B811346FB80FFF727F87861FB6893F881
:1017FC003D30DBB2202B40F0D9807B69009319235C
:10180C0001226D49F86800F00BFE0346002B01D055
:10181C000223CCE0FB6893F83C30012B01D102236E
:10182C00C5E0FB68012283F83C20FB681B681B6841
:10183C0003F00103012B07D0FB681B681A68FB68D7
:10184C001B6842F001021A60FB681B681A68FB688F
:10185C001B6822F400621A60FB68212283F83D2089
:10186C00FB68402283F83E20FB6800221A64FB6868
:10187C003A6A5A62FB68BA8C5A85FB685B8D9AB2DD
:10188C00FB681A85FB684D4ADA62F8883A897989CF
:10189C007B690193BB6A00930346F86800F042FC35
:1018AC000346002B52D0012381E07A69B96AF868AB
:1018BC0000F08CFE0346002B0DD0FB681B6C042B38
:1018CC0007D1FB681B681A68FB681B6842F400723E
:1018DC001A6001236BE0FB685B6A1A78FB681B6873
:1018EC001A61FB685B6A5A1CFB685A62FB681B8DA9
:1018FC00013B9AB2FB681A85FB685B8D9BB2013B7E
:10190C009AB2FB685A85FB681B685B6903F0040399
:10191C00042B1BD1FB681B8D002B17D0FB685B6A5B
:10192C001A78FB681B681A61FB685B6A5A1CFB68B7
:10193C005A62FB681B8D013B9AB2FB681A85FB68E7
:10194C005B8D9BB2013B9AB2FB685A85FB681B8D81
:10195C00002BAAD17A69B96AF86800F078FE0346C0
:10196C00002B0DD0FB681B6C042B07D1FB681B688C
:10197C001A68FB681B6842F400721A60012316E0B7
:10198C00FB681B681A68FB681B6842F400721A60DB
:10199C00FB68202283F83D20FB68002283F83E2060
:1019AC00FB68002283F83C20002300E00223184649
:1019BC001837BD4680BD00BF020010000000FFFFBD
:1019CC0080B58CB002AFF860084611461A46034643
:1019DC007B810B463B811346FB8000233B62FEF769
:1019EC002BFF7862FB6893F83D30DBB2202B40F084
:1019FC003D827B6A0093192301228149F86800F02B
:101A0C000FFD0346002B01D0022330E2FB6893F854
:101A1C003C30012B01D1022329E2FB68012283F81F
:101A2C003C20FB681B681B6803F00103012B07D0EB
:101A3C00FB681B681A68FB681B6842F001021A609D
:101A4C00FB681B681A68FB681B6822F400621A604A
:101A5C00FB68222283F83D20FB68402283F83E205D
:101A6C00FB6800221A64FB683A6B5A62FB68BA8EF8
:101A7C005A85FB685B8D9AB2FB681A85FB68614AD4
:101A8C00DA62F8883A8979897B6A0193BB6B009397
:101A9C000346F86800F0DCFB0346002B01D0012361
:101AAC00E5E1FB681B8D002B13D10023FB61FB6868
:101ABC001B685B69FB61FB681B689B69FB61FB69CD
:101ACC00FB681B681A68FB681B6842F400721A609A
:101ADC00B9E1FB681B8D012B1DD1FB681B681A68D3
:101AEC00FB681B6822F480621A6072B60023BB612B
:101AFC00FB681B685B69BB61FB681B689B69BB610E
:101B0C00BB69FB681B681A68FB681B6842F40072AF
:101B1C001A6062B697E1FB681B8D022B1DD1FB6826
:101B2C001B681A68FB681B6842F400621A6072B684
:101B3C0000237B61FB681B685B697B61FB681B682E
:101B4C009B697B617B69FB681B681A68FB681B6877
:101B5C0022F480621A6062B675E1FB681B681A6831
:101B6C00FB681B6842F480621A6000233B61FB68CF
:101B7C001B685B693B61FB681B689B693B613B694C
:101B8C0061E1FB681B8D032B00F21A81FB681B8D36
:101B9C00012B23D17A6AB96BF86800F099FD0346E2
:101BAC00002B01D0012362E1FB681B681A69FB68FA
:101BBC005B6AD2B21A70FB685B6A5A1CFB685A6289
:101BCC00FB681B8D013B9AB2FB681A85FB685B8D29
:101BDC009BB2013B9AB2FB685A8534E1FB681B8DC2
:101BEC00022B50D17B6A0093BB6B00220649F8682C
:101BFC0000F016FC0346002B08D0012337E100BF90
:101C0C00020010000000FFFF0400010072B6FB6828
:101C1C001B681A68FB681B6842F400721A60FB6848
:101C2C001B681A69FB685B6AD2B21A70FB685B6A44
:101C3C005A1CFB685A62FB681B8D013B9AB2FB680D
:101C4C001A85FB685B8D9BB2013B9AB2FB685A8587
:101C5C0062B6FB681B681A69FB685B6AD2B21A70C1
:101C6C00FB685B6A5A1CFB685A62FB681B8D013B64
:101C7C009AB2FB681A85FB685B8D9BB2013B9AB2EA
:101C8C00FB685A85DFE07B6A0093BB6B00227A49C4
:101C9C00F86800F0C5FB0346002B01D00123E6E0F9
:101CAC00FB681B681A68FB681B6822F480621A6068
:101CBC0072B6FB681B681A69FB685B6AD2B21A7051
:101CCC00FB685B6A5A1CFB685A62FB681B8D013B04
:101CDC009AB2FB681A85FB685B8D9BB2013B9AB28A
:101CEC00FB685A85654B1B68DB08654AA2FB03231E
:101CFC001A0A13469B001344DA00D31A3B623B6A60
:101D0C00013B3B623B6A002B17D1FB6800221A6334
:101D1C00FB68202283F83D20FB68002283F83E20DC
:101D2C00FB681B6C43F02002FB681A6462B6FB680C
:101D3C00002283F83C20012399E0FB681B685B6957
:101D4C0003F00403042BDAD1FB681B681A68FB68E8
:101D5C001B6842F400721A60FB681B681A69FB6806
:101D6C005B6AD2B21A70FB685B6A5A1CFB685A62D7
:101D7C00FB681B8D013B9AB2FB681A85FB685B8D77
:101D8C009BB2013B9AB2FB685A8562B6FB681B6832
:101D9C001A69FB685B6AD2B21A70FB685B6A5A1CE0
:101DAC00FB685A62FB681B8D013B9AB2FB681A8573
:101DBC00FB685B8D9BB2013B9AB2FB685A8542E093
:101DCC007A6AB96BF86800F083FC0346002B01D0EB
:101DDC0001234CE0FB681B681A69FB685B6AD2B292
:101DEC001A70FB685B6A5A1CFB685A62FB681B8D95
:101DFC00013B9AB2FB681A85FB685B8D9BB2013B79
:101E0C009AB2FB685A85FB681B685B6903F0040394
:101E1C00042B18D1FB681B681A69FB685B6AD2B289
:101E2C001A70FB685B6A5A1CFB685A62FB681B8D54
:101E3C00013B9AB2FB681A85FB685B8D9BB2013B38
:101E4C009AB2FB685A85FB681B8D002B7FF499AE08
:101E5C00FB68202283F83D20FB68002283F83E209B
:101E6C00FB68002283F83C20002300E00223184684
:101E7C002837BD4680BD00BF0400010008000020CB
:101E8C0089B5F81480B588B002AFF8607A603B6011
:101E9C000B467B81FB68DB6A7B617B69082B06D078
:101EAC007B69012B03D07B6913F5803F08D1FB685C
:101EBC001B681A68FB681B6842F480721A600BE09E
:101ECC00FB681B6B122B07D1FB681B681A68FB683D
:101EDC001B6842F480721A603B6800937B68002296
:101EEC004FF00111F86800F09BFA0346002B0DD05F
:101EFC00FB681B681B6803F48073B3F5807F03D108
:101F0C00FB684FF400721A64032335E0FB681B690D
:101F1C00B3F5804F08D17B89DBB21A46FB681B688E
:101F2C0002F0FE021A611BE07B89DB11DBB203F0CD
:101F3C000603DBB263F00F03DAB2FB681B681A61AD
:101F4C003B687A680E49F86800F0C1FA0346002B2A
:101F5C0001D0012310E07B89DAB2FB681B681A619F
:101F6C003B687A680749F86800F0B1FA0346002B21
:101F7C0001D0012300E0002318461837BD4680BD70
:101F8C00080001000200010080B588B002AFF860C3
:101F9C007A603B600B467B81FB68DB6A7B61FB688C
:101FAC001B681A68FB681B6842F480621A607B69C4
:101FBC00082B06D07B69012B03D07B6913F5803F7E
:101FCC0008D1FB681B681A68FB681B6842F48072B6
:101FDC001A600BE0FB681B6B112B07D1FB681B68AD
:101FEC001A68FB681B6842F480721A603B680093A5
:101FFC007B6800224FF00111F86800F011FA0346DB
:10200C00002B0DD0FB681B681B6803F48073B3F5C1
:10201C00807F03D1FB684FF400721A64032379E0CC
:10202C00FB681B69B3F5804F08D17B89DBB243F0A9
:10203C000103DAB2FB681B681A615FE07B89DB1174
:10204C00DBB203F00603DBB263F00F03DAB2FB681A
:10205C001B681A613B687A683049F86800F037FAF7
:10206C000346002B01D0012354E07B89DAB2FB68D4
:10207C001B681A613B687A682949F86800F027FAEE
:10208C000346002B01D0012344E000233B61FB6895
:10209C001B685B693B61FB681B689B693B613B6927
:1020AC00FB681B681A68FB681B6842F480721A6034
:1020BC003B6800937B6800224FF00111F86800F038
:1020CC00AFF90346002B0DD0FB681B681B6803F4AB
:1020DC008073B3F5807F03D1FB684FF400721A64F0
:1020EC00032317E07B89DB11DBB203F00603DBB2C1
:1020FC0063F00E03DAB2FB681B681A613B687A68FE
:10210C000749F86800F0E3F90346002B01D00123DE
:10211C0000E0002318461837BD4680BD08000100BA
:10212C000200010080B588B002AFF8600846114685
:10213C001A4603467B810B463B811346FB80FB68AA
:10214C001B681A68FB681B6842F480721A607B6A11
:10215C0000933B6A00224FF00111F86800F060F91F
:10216C000346002B0DD0FB681B681B6803F48073BF
:10217C00B3F5807F03D1FB684FF400721A6403231C
:10218C005FE07B89DBB21A46FB681B6802F0FE023B
:10219C001A617B6A3A6A2D49F86800F098F903468F
:1021AC00002B01D001234CE000237B61FB681B68F2
:1021BC005B697B61FB681B689B697B617B697A6AE5
:1021CC00396AF86800F002FA0346002B0DD0FB6860
:1021DC001B6C042B07D1FB681B681A68FB681B6817
:1021EC0042F400721A6001232BE0FB88012B05D10D
:1021FC003B89DAB2FB681B681A6121E03B891B0A38
:10220C009BB2DAB2FB681B681A617A6A396AF868A1
:10221C0000F0DCF90346002B0DD0FB681B6C042B83
:10222C0007D1FB681B681A68FB681B6842F40072D4
:10223C001A60012305E03B89DAB2FB681B681A615E
:10224C00002318461837BD4680BD00BF02000100B0
:10225C0080B588B002AFF860084611461A460346AE
:10226C007B810B463B811346FB80FB681B681A681D
:10227C00FB681B6842F480621A60FB681B681A6872
:10228C00FB681B6842F480721A607B6A00933B6A9D
:10229C0000224FF00111F86800F0C2F80346002B41
:1022AC000DD0FB681B681B6803F48073B3F5807F4B
:1022BC0003D1FB684FF400721A640323AAE07B89F4
:1022CC00DBB21A46FB681B6802F0FE021A617B6ADD
:1022DC003A6A5249F86800F0FAF80346002B01D02C
:1022EC00012397E000237B61FB681B685B697B61C2
:1022FC00FB681B689B697B617B697A6A396AF86841
:10230C0000F064F90346002B0DD0FB681B6C042B0A
:10231C0007D1FB681B681A68FB681B6842F40072E3
:10232C001A60012376E0FB88012B05D13B89DAB2D8
:10233C00FB681B681A6121E03B891B0A9BB2DAB26D
:10234C00FB681B681A617A6A396AF86800F03EF912
:10235C000346002B0DD0FB681B6C042B07D1FB68CC
:10236C001B681A68FB681B6842F400721A60012330
:10237C0050E03B89DAB2FB681B681A617A6A396AE9
:10238C00F86800F023F90346002B0DD0FB681B6C9A
:10239C00042B07D1FB681B681A68FB681B6842F4A6
:1023AC0000721A60012335E0FB681B681A68FB6831
:1023BC001B6842F480721A607B6A00933B6A0022AD
:1023CC004FF00111F86800F02BF80346002B0DD0EC
:1023DC00FB681B681B6803F48073B3F5807F03D123
:1023EC00FB684FF400721A64032313E07B89DBB2A1
:1023FC0043F00103DAB2FB681B681A617B6A3A6A24
:10240C000649F86800F063F80346002B01D001235D
:10241C0000E0002318461837BD4680BD02000100BD
:10242C0080B584B000AFF860B9603B601346FB71B7
:10243C0025E03B68B3F1FF3F21D0FEF7FDF90246E2
:10244C00BB69D31A3A689A4202D33B68002B16D167
:10245C00FB6800221A63FB68202283F83D20FB688E
:10246C00002283F83E20FB681B6C43F02002FB68C3
:10247C001A64FB68002283F83C20012323E0BB682C
:10248C001B0CDBB2012B0DD1FB681B685B69DA43BB
:10249C00BB6813409BB2002B0CBF01230023DBB2A3
:1024AC001A460CE0FB681B689B69DA43BB68134057
:1024BC009BB2002B0CBF01230023DBB21A46FB7925
:1024CC009A42B6D0002318461037BD4680BD80B561
:1024DC0084B000AFF860B9607A603B6051E0FB6893
:1024EC001B685B6903F48063B3F5806F23D1FB68D1
:1024FC001B681A68FB681B6842F400721A60FB6860
:10250C001B686FF480625A61FB6800221A63FB68D7
:10251C00202283F83D20FB68002283F83E20FB68D4
:10252C001B6C43F00402FB681A64FB68002283F8FE
:10253C003C20012346E07B68B3F1FF3F21D0FEF73E
:10254C007BF902463B68D31A7A689A4202D37B68BD
:10255C00002B16D1FB6800221A63FB68202283F83B
:10256C003D20FB68002283F83E20FB681B6C43F087
:10257C002002FB681A64FB68002283F83C200123CC
:10258C0020E0BB681B0CDBB2012B0CD1FB681B6879
:10259C005B69DA43BB6813409BB2002B14BF012369
:1025AC000023DBB20BE0FB681B689B69DA43BB685A
:1025BC0013409BB2002B14BF01230023DBB2002B72
:1025CC008DD1002318461037BD4680BD80B584B030
:1025DC0000AFF860B9607A602DE0F86800F0CEF8D2
:1025EC000346002B01D001232DE0BB68B3F1FF3F64
:1025FC0021D0FEF721F902467B68D31ABA689A42B9
:10260C0002D3BB68002B16D1FB6800221A63FB684F
:10261C00202283F83D20FB68002283F83E20FB68D3
:10262C001B6C43F02002FB681A64FB68002283F8E1
:10263C003C20012307E0FB681B685B6903F0800307
:10264C00802BCAD1002318461037BD4680BD80B5FB
:10265C0084B000AFF860B9607A602DE0F86800F0E3
:10266C008DF80346002B01D001232DE0BB68B3F19C
:10267C00FF3F21D0FEF7E0F802467B68D31ABA6818
:10268C009A4202D3BB68002B16D1FB6800221A6356
:10269C00FB68202283F83D20FB68002283F83E2053
:1026AC00FB681B6C43F02002FB681A64FB68002279
:1026BC0083F83C20012307E0FB681B685B6903F08F
:1026CC000403042BCAD1002318461037BD4680BD25
:1026DC0080B584B000AFF860B9607A6042E0FB6806
:1026EC001B685B6903F01003102B19D1FB681B6886
:1026FC006FF010025A61FB6800221A63FB682022FB
:10270C0083F83D20FB68002283F83E20FB681A6C9E
:10271C00FB681A64FB68002283F83C20012329E043
:10272C00FEF78AF802467B68D31ABA689A4202D33B
:10273C00BB68002B16D1FB6800221A63FB682022B1
:10274C0083F83D20FB68002283F83E20FB681B6C5D
:10275C0043F02002FB681A64FB68002283F83C20DB
:10276C00012307E0FB681B685B6903F04003402B07
:10277C00B5D1002318461037BD4680BD80B483B058
:10278C0000AF78607B681B685B6903F48063B3F50A
:10279C00806F1BD17B681B686FF480625A617B6809
:1027AC0000221A637B68202283F83D207B6800227C
:1027BC0083F83E207B681B6C43F004027B681A6430
:1027CC007B68002283F83C20012300E0002318469C
:1027DC000C37BD4680BC704780B586B000AF7860C2
:1027EC007B68002B01D101236CE27B681B6803F032
:1027FC000103002B00F08780924B5B6803F00C0305
:10280C00042B0CD08F4B5B6803F00C03082B12D1FC
:10281C008C4B5B6803F48033B3F5803F0BD1894B51
:10282C001B6803F40033002B6CD07B685B68002BB7
:10283C0068D1012346E27B685B68B3F5803F06D123
:10284C00804B1B687F4A43F4803313602EE07B6817
:10285C005B68002B0CD17B4B1B687A4A23F48033CA
:10286C001360784B1B68774A23F4802313601DE0B8
:10287C007B685B68B3F5A02F0CD1724B1B68714A57
:10288C0043F4802313606F4B1B686E4A43F4803310
:10289C0013600BE06B4B1B686A4A23F480331360A4
:1028AC00684B1B68674A23F4802313607B685B6862
:1028BC00002B13D0FDF7C0FF386108E0FDF7BCFF1B
:1028CC0002463B69D31A642B01D90323FAE15D4B11
:1028DC001B6803F40033002BF0D014E0FDF7ACFFC1
:1028EC00386108E0FDF7A8FF02463B69D31A642B58
:1028FC0001D90323E6E1534B1B6803F40033002B8F
:10290C00F0D100E000BF7B681B6803F00203002BD2
:10291C0063D04C4B5B6803F00C03002B0BD0494B82
:10292C005B6803F00C03082B1CD1464B5B6803F46B
:10293C008033002B16D1434B1B6803F00203002B92
:10294C0005D07B681B69012B01D00123BAE13D4BFB
:10295C001B6823F0F8027B685B69DB003949134381
:10296C000B603AE07B681B69002B20D0364B0122B0
:10297C001A60FDF761FF386108E0FDF75DFF024664
:10298C003B69D31A022B01D903239BE12D4B1B6806
:10299C0003F00203002BF0D02A4B1B6823F0F80243
:1029AC007B685B69DB00274913430B6015E0264B02
:1029BC0000221A60FDF740FF386108E0FDF73CFF8C
:1029CC0002463B69D31A022B01D903237AE11D4B32
:1029DC001B6803F00203002BF0D17B681B6803F02B
:1029EC000803002B3AD07B689B69002B19D0174B3E
:1029FC0001221A60FDF720FF386108E0FDF71CFF8B
:102A0C0002463B69D31A022B01D903235AE10D4B21
:102A1C005B6A03F00203002BF0D0012000F0DAFA1D
:102A2C001CE00A4B00221A60FDF706FF38610FE02C
:102A3C00FDF702FF02463B69D31A022B08D9032388
:102A4C0040E100BF001002400000424280044242BC
:102A5C009E4B5B6A03F00203002BE9D17B681B6879
:102A6C0003F00403002B00F0A6800023FB75974BAA
:102A7C00DB6903F08053002B0DD1944BDB69934A37
:102A8C0043F08053D361914BDB6903F08053BB60FF
:102A9C00BB680123FB758E4B1B6803F48073002B02
:102AAC0018D18B4B1B688A4A43F480731360FDF773
:102ABC00C3FE386108E0FDF7BFFE02463B69D31A3E
:102ACC00642B01D90323FDE0814B1B6803F4807355
:102ADC00002BF0D07B68DB68012B06D17B4B1B6A8B
:102AEC007A4A43F0010313622DE07B68DB68002B0C
:102AFC000CD1764B1B6A754A23F001031362734B9E
:102B0C001B6A724A23F0040313621CE07B68DB68C7
:102B1C00052B0CD16D4B1B6A6C4A43F004031362FA
:102B2C006A4B1B6A694A43F0010313620BE0674B63
:102B3C001B6A664A23F001031362644B1B6A634AE7
:102B4C0023F0040313627B68DB68002B15D0FDF7C0
:102B5C0073FE38610AE0FDF76FFE02463B69D31A3B
:102B6C0041F28832934201D90323ABE0574B1B6AE5
:102B7C0003F00203002BEED014E0FDF75DFE38618C
:102B8C000AE0FDF759FE02463B69D31A41F288323E
:102B9C00934201D9032395E04C4B1B6A03F00203CB
:102BAC00002BEED1FB7D012B05D1484BDB69474A4D
:102BBC0023F08053D3617B68DB69002B00F08180AC
:102BCC00424B5B6803F00C03082B61D07B68DB691C
:102BDC00022B46D13F4B00221A60FDF72DFE3861C7
:102BEC0008E0FDF729FE02463B69D31A022B01D9F6
:102BFC00032367E0354B1B6803F00073002BF0D107
:102C0C007B681B6AB3F5803F08D1304B5B6823F4BB
:102C1C0000327B689B682D4913434B602B4B5B68E0
:102C2C0023F474127B68196A7B685B6A0B4327492F
:102C3C0013434B60274B01221A60FDF7FDFD3861F1
:102C4C0008E0FDF7F9FD02463B69D31A022B01D9C6
:102C5C00032337E01D4B1B6803F00073002BF0D0EF
:102C6C002FE01C4B00221A60FDF7E6FD386108E0EE
:102C7C00FDF7E2FD02463B69D31A022B01D903236F
:102C8C0020E0124B1B6803F00073002BF0D118E00E
:102C9C007B68DB69012B01D1012313E00B4B5B68D3
:102CAC00FB60FB6803F480327B681B6A9A4206D196
:102CBC00FB6803F470127B685B6A9A4201D00123B3
:102CCC0000E0002318461837BD4680BD00100240B6
:102CDC00007000406000424280B584B000AF786064
:102CEC0039607B68002B01D10123D0E06A4B1B6853
:102CFC0003F007033A689A4210D9674B1B6823F01C
:102D0C00070265493B6813430B60634B1B6803F078
:102D1C0007033A689A4201D00123B8E07B681B682C
:102D2C0003F00203002B20D07B681B6803F0040324
:102D3C00002B05D0594B5B68584A43F4E063536051
:102D4C007B681B6803F00803002B05D0534B5B68B2
:102D5C00524A43F460535360504B5B6823F0F002CB
:102D6C007B689B684D4913434B607B681B6803F081
:102D7C000103002B40D07B685B68012B07D1474BCC
:102D8C001B6803F40033002B15D101237FE07B6813
:102D9C005B68022B07D1414B1B6803F00073002BBF
:102DAC0009D1012373E03D4B1B6803F00203002B98
:102DBC0001D101236BE0394B5B6823F003027B6884
:102DCC005B68364913434B60FDF736FDF8600AE04B
:102DDC00FDF732FD0246FB68D31A41F2883293426A
:102DEC0001D9032353E02D4B5B6803F00C027B6885
:102DFC005B689B009A42EBD1274B1B6803F00703DF
:102E0C003A689A4210D2244B1B6823F007022249DD
:102E1C003B6813430B60204B1B6803F007033A68B5
:102E2C009A4201D0012332E07B681B6803F0040353
:102E3C00002B08D0194B5B6823F4E0627B68DB68DD
:102E4C00164913434B607B681B6803F00803002B87
:102E5C0009D0124B5B6823F460527B681B69DB0062
:102E6C000E4913434B6000F021F801460B4B5B6895
:102E7C001B0903F00F030A4AD35C21FA03F3094A36
:102E8C001360094B1B681846FDF794FC0023184689
:102E9C001037BD4680BD00BF00200240001002402C
:102EAC0028510008080000200C00002090B48AB0C3
:102EBC0000AF2A4B3C1D0FCB84E80F00284B1B881E
:102ECC003B800023FB610023BB6100237B6200235A
:102EDC007B6100233B62234B5B68FB61FB6903F066
:102EEC000C03042B02D0082B03D02DE01E4B3B62AD
:102EFC002DE0FB699B0C03F00F0307F12802134430
:102F0C0013F8243C7B61FB6903F48033002B13D052
:102F1C00144B5B685B0C03F0010307F128021344AC
:102F2C0013F8283CBB617B690F4A02FB03F2BB69B7
:102F3C00B2FBF3F37B6204E07B690C4A02FB03F304
:102F4C007B627B6A3B6202E0074B3B6200BF3B6AE1
:102F5C0018462837BD4690BC704700BFF850000893
:102F6C00085100080010024000127A0000093D00D0
:102F7C0080B400AF024B1B681846BD4680BC70473E
:102F8C000800002080B500AFFFF7F2FF0146054BAB
:102F9C005B681B0A03F00703034AD35C21FA03F3B3
:102FAC00184680BD001002403851000880B500AFB3
:102FBC00FFF7DEFF0146054B5B68DB0A03F00703F6
:102FCC00034AD35C21FA03F3184680BD001002407B
:102FDC003851000880B485B000AF78600A4B1B688C
:102FEC000A4AA2FB03235B0A7A6802FB03F3FB6029
:102FFC0000BFFB685A1EFA60002BF9D100BF1437D2
:10300C00BD4680BC704700BF08000020D34D621045
:10301C0080B582B000AF78607B68002B01D10123B2
:10302C0041E07B6893F83D30DBB2002B06D17B6826
:10303C00002283F83C207868FDF7C4FA7B680222F2
:10304C0083F83D207B681A687B6804331946104668
:10305C0000F01AFA7B68012283F846207B68012273
:10306C0083F83E207B68012283F83F207B68012295
:10307C0083F840207B68012283F841207B68012281
:10308C0083F842207B68012283F843207B6801226D
:10309C0083F844207B68012283F845207B68012259
:1030AC0083F83D20002318460837BD4680BD80B507
:1030BC0082B000AF78607B681B681B6903F0020369
:1030CC00022B22D17B681B68DB6803F00203022B06
:1030DC001BD17B681B686FF002021A617B680122AE
:1030EC001A777B681B689B6903F00303002B03D0E2
:1030FC00786800F0ADF905E0786800F0A0F9786820
:10310C0000F0AFF97B6800221A777B681B681B699B
:10311C0003F00403042B22D17B681B68DB6803F0EB
:10312C000403042B1BD17B681B686FF004021A612B
:10313C007B6802221A777B681B689B6903F44073D7
:10314C00002B03D0786800F083F905E0786800F074
:10315C0076F9786800F085F97B6800221A777B682D
:10316C001B681B6903F00803082B22D17B681B68C2
:10317C00DB6803F00803082B1BD17B681B686FF01E
:10318C0008021A617B6804221A777B681B68DB696A
:10319C0003F00303002B03D0786800F059F905E025
:1031AC00786800F04CF9786800F05BF97B680022D5
:1031BC001A777B681B681B6903F01003102B22D154
:1031CC007B681B68DB6803F01003102B1BD17B683A
:1031DC001B686FF010021A617B6808221A777B68F3
:1031EC001B68DB6903F44073002B03D0786800F094
:1031FC002FF905E0786800F022F9786800F031F9D1
:10320C007B6800221A777B681B681B6903F001033B
:10321C00012B0ED17B681B68DB6803F00103012BCB
:10322C0007D17B681B686FF001021A61786800F0A7
:10323C00FDF87B681B681B6903F08003802B0ED1A3
:10324C007B681B68DB6803F08003802B07D17B68ED
:10325C001B686FF080021A61786800F074FA7B6862
:10326C001B681B6903F04003402B0ED17B681B6865
:10327C00DB6803F04003402B07D17B681B686FF0C1
:10328C0040021A61786800F0F5F87B681B681B69CE
:10329C0003F02003202B0ED17B681B68DB6803F046
:1032AC002003202B07D17B681B686FF020021A616A
:1032BC00786800F03FFA00BF0837BD4680BD80B586
:1032CC0084B000AF786039607B6893F83C30012B98
:1032DC0001D10223A6E07B68012283F83C207B68A5
:1032EC00022283F83D207B681B689B68FB60FB68AF
:1032FC0023F07703FB60FB6823F47F43FB607B6860
:10330C001B68FA689A603B681B68402B67D0402B9F
:10331C000BD8102B73D0102B02D8002B6FD078E069
:10332C00202B6CD0302B6AD073E0702B0DD0702B0F
:10333C0004D8502B33D0602B41D06AE0B3F5805FBA
:10334C0066D0B3F5005F17D063E07B6818683B6804
:10335C0099683B685A683B68DB6800F06EF97B68DB
:10336C001B689B68FB60FB6843F07703FB607B6822
:10337C001B68FA689A604CE07B6818683B6899682F
:10338C003B685A683B68DB6800F057F97B681B6840
:10339C009A687B681B6842F480429A6039E07B68CB
:1033AC0018683B6859683B68DB681A4600F0CEF831
:1033BC007B681B685021184600F025F929E07B68D2
:1033CC0018683B6859683B68DB681A4600F0ECF8F3
:1033DC007B681B686021184600F015F919E07B68C2
:1033EC0018683B6859683B68DB681A4600F0AEF811
:1033FC007B681B684021184600F005F909E07B68E2
:10340C001A683B681B681946104600F0FCF800E08F
:10341C0000BF7B68012283F83D207B68002283F883
:10342C003C20002318461037BD4680BD80B483B0C5
:10343C0000AF786000BF0C37BD4680BC704780B4CD
:10344C0083B000AF786000BF0C37BD4680BC7047BE
:10345C0080B483B000AF786000BF0C37BD4680BC31
:10346C00704780B483B000AF786000BF0C37BD46A6
:10347C0080BC704780B483B000AF786000BF0C375D
:10348C00BD4680BC7047000080B485B000AF78604A
:10349C0039607B681B68FB607B68294A93420BD0C0
:1034AC007B68B3F1804F07D07B68264A934203D0E8
:1034BC007B68254A934208D1FB6823F07003FB60BC
:1034CC003B685B68FA681343FB607B681C4A934259
:1034DC000BD07B68B3F1804F07D07B68194A9342BD
:1034EC0003D07B68184A934208D1FB6823F44073DD
:1034FC00FB603B68DB68FA681343FB60FB6823F0F6
:10350C0080023B685B691343FB607B68FA681A6056
:10351C003B689A687B68DA623B681A687B689A62D7
:10352C007B68074A934203D13B681A697B681A632C
:10353C007B6801225A6100BF1437BD4680BC7047BE
:10354C00002C0140000400400008004080B487B00B
:10355C0000AFF860B9607A60FB681B6A7B61FB683E
:10356C001B6A23F00102FB681A62FB689B693B61D2
:10357C003B6923F0F0033B617B681B013A69134301
:10358C003B617B6923F00A037B617A69BB68134357
:10359C007B61FB683A699A61FB687A691A6200BFC1
:1035AC001C37BD4680BC704780B487B000AFF86054
:1035BC00B9607A60FB681B6A23F01002FB681A6220
:1035CC00FB689B697B61FB681B6A3B617B6923F42D
:1035DC0070437B617B681B037A6913437B613B6996
:1035EC0023F0A0033B61BB681B013A6913433B61A9
:1035FC00FB687A699A61FB683A691A6200BF1C37EA
:10360C00BD4680BC704780B485B000AF786039602F
:10361C007B689B68FB60FB6823F07003FB603A6877
:10362C00FB68134343F00703FB607B68FA689A60FE
:10363C0000BF1437BD4680BC704780B487B000AF64
:10364C00F860B9607A603B60FB689B687B617B6962
:10365C0023F47F437B613B681A027B681A43BB6887
:10366C0013437A6913437B61FB687A699A6000BFE4
:10367C001C37BD4680BC704780B485B000AF786005
:10368C0039607B6893F83C30012B01D1022346E072
:10369C007B68012283F83C207B68022283F83D2062
:1036AC007B681B685B68FB607B681B689B68BB6006
:1036BC00FB6823F07003FB603B681B68FA681343DC
:1036CC00FB607B681B68FA685A607B681B68164A4B
:1036DC0093420ED07B681B68B3F1804F09D07B6896
:1036EC001B68124A934204D07B681B68104A9342B1
:1036FC000CD1BB6823F08003BB603B685B68BA6885
:10370C001343BB607B681B68BA689A607B680122B4
:10371C0083F83D207B68002283F83C200023184668
:10372C001437BD4680BC7047002C0140000400409B
:10373C000008004080B483B000AF786000BF0C3745
:10374C00BD4680BC704780B483B000AF786000BFCA
:10375C000C37BD4680BC704780B582B000AF786036
:10376C007B68002B01D101233FE07B6893F8393053
:10377C00DBB2002B06D17B68002283F838207868F6
:10378C00FCF744FF7B68242283F839207B681B6894
:10379C00DA687B681B6822F40052DA60786800F003
:1037AC0039FB7B681B681A697B681B6822F49042A2
:1037BC001A617B681B685A697B681B6822F02A02B5
:1037CC005A617B681B68DA687B681B6842F400529C
:1037DC00DA607B680022DA637B68202283F8392068
:1037EC007B68202283F83A20002318460837BD4610
:1037FC0080BD80B58AB002AFF860B9603B601346FB
:10380C00FB8000237B61FB6893F83930DBB2202B03
:10381C007CD1BB68002B02D0FB88002B01D101238B
:10382C0075E0FB6893F83830012B01D102236EE070
:10383C00FB68012283F83820FB680022DA63FB68FE
:10384C00212283F83920FCF7F7FF7861FB68FA88AE
:10385C009A84FB68FA88DA84FB689B68B3F5805F0E
:10386C0008D1FB681B69002B04D10023FB61BB68EA
:10387C00BB6103E0BB68FB610023BB61FB680022FA
:10388C0083F838202AE03B6800937B690022802172
:10389C00F86800F05CF90346002B01D0032336E0F6
:1038AC00FB69002B0BD1BB691B881A46FB681B6894
:1038BC00C2F308025A60BB690233BB6107E0FB69C3
:1038CC001A78FB681B685A60FB690133FB61FB6863
:1038DC00DB8C9BB2013B9AB2FB68DA84FB68DB8C15
:1038EC009BB2002BCFD13B6800937B690022402117
:1038FC00F86800F02CF90346002B01D0032306E0F6
:10390C00FB68202283F83920002300E002231846AC
:10391C002037BD4680BD000080B588B000AF786010
:10392C007B681B681B68FB617B681B68DB68BB6181
:10393C007B681B685B697B6100233B610023FB6038
:10394C00FB6903F00F033B613B69002B0DD1FB6955
:10395C0003F02003002B08D0BB6903F02003002BDD
:10396C0003D0786800F0D5F9D1E03B69002B00F06A
:10397C00B0807B6903F00103002B05D1BB6903F414
:10398C009073002B00F0A580FB6903F00103002B62
:10399C000AD0BB6903F48073002B05D07B68DB6B0A
:1039AC0043F001027B68DA63FB6903F00403002B2C
:1039BC000AD07B6903F00103002B05D07B68DB6B1D
:1039CC0043F002027B68DA63FB6903F00203002B0D
:1039DC000AD07B6903F00103002B05D07B68DB6BFD
:1039EC0043F004027B68DA63FB6903F00803002BE5
:1039FC000FD0BB6903F02003002B04D17B6903F0CB
:103A0C000103002B05D07B68DB6B43F008027B685D
:103A1C00DA637B68DB6B002B78D0FB6903F0200347
:103A2C00002B07D0BB6903F02003002B02D0786871
:103A3C0000F06FF97B681B685B6903F04003002B97
:103A4C0014BF01230023DBB2FB607B68DB6B03F04C
:103A5C000803002B02D1FB68002B31D0786800F0F2
:103A6C00C0F87B681B685B6903F04003002B23D014
:103A7C007B681B685A697B681B6822F040025A619C
:103A8C007B685B6B002B13D07B685B6B214A5A63A2
:103A9C007B685B6B1846FDF709F80346002B16D0C4
:103AAC007B685B6B5B6B7A68526B104698470EE0D9
:103ABC00786800F043F80AE0786800F03FF806E018
:103ACC00786800F03BF87B680022DA631EE000BFE8
:103ADC001CE0FB6903F08003002B08D0BB6903F0EA
:103AEC008003002B03D0786800F0ACF80FE0FB6982
:103AFC0003F04003002B0AD0BB6903F04003002BFA
:103B0C0005D0786800F0EDF800BF00E000BF20376A
:103B1C00BD4680BD293C000880B483B000AF7860FE
:103B2C0000BF0C37BD4680BC704780B483B000AF7B
:103B3C00786000BF0C37BD4680BC704780B483B042
:103B4C0000AF786000BF0C37BD4680BC704780B5B5
:103B5C0084B000AFF860B9603B601346FB712CE099
:103B6C00BB69B3F1FF3F28D0BB69002B07D0FCF732
:103B7C0063FE02463B68D31ABA699A421DD2FB68AF
:103B8C001B68DA68FB681B6822F4D072DA60FB6889
:103B9C001B685A69FB681B6822F001025A61FB68BA
:103BAC00202283F83920FB68202283F83A20FB6816
:103BBC00002283F8382003230FE0FB681B681A6887
:103BCC00BB681340BA689A420CBF01230023DBB2D6
:103BDC001A46FB799A42C3D0002318461037BD46CB
:103BEC0080BD80B483B000AF78607B681B68DA68F6
:103BFC007B681B6822F49072DA607B681B685A69D8
:103C0C007B681B6822F001025A617B68202283F8D2
:103C1C003A2000BF0C37BD4680BC704780B584B0DD
:103C2C0000AF78607B685B6AFB60FB680022DA851A
:103C3C00FB680022DA84F868FFF780FF00BF1037BA
:103C4C00BD4680BD80B485B000AF78607B6893F8CA
:103C5C003930DBB2212B3ED17B689B68B3F5805F9A
:103C6C0014D17B681B69002B10D17B681B6AFB602D
:103C7C00FB681B881A467B681B68C2F308025A60F3
:103C8C007B681B6A9A1C7B681A6208E07B681B6A5B
:103C9C00591C7A6811621A787B681B685A607B68B9
:103CAC00DB8C9BB2013B9BB27A681946D184002B0A
:103CBC000FD17B681B68DA687B681B6822F0800276
:103CCC00DA607B681B68DA687B681B6842F040022C
:103CDC00DA60002300E0022318461437BD4680BC8E
:103CEC00704780B582B000AF78607B681B68DA687B
:103CFC007B681B6822F04002DA607B68202283F824
:103D0C0039207868FFF708FF002318460837BD46AE
:103D1C0080BD80B584B000AF78607B6893F83A3092
:103D2C00DBB2222B70D17B689B68B3F5805F17D117
:103D3C007B681B69002B13D10023FB607B689B6A9B
:103D4C00BB607B681B685B689BB2C3F308039AB2C9
:103D5C00BB681A807B689B6A9A1C7B689A6226E017
:103D6C007B689B6AFB600023BB607B689B68B3F538
:103D7C00805F07D07B689B68002B0AD17B681B692E
:103D8C00002B06D17B681B685B68DAB2FB681A7083
:103D9C0008E07B681B685B68DBB203F07F03DAB278
:103DAC00FB681A707B689B6A5A1C7B689A627B68FA
:103DBC00DB8D9BB2013B9BB27A681946D185002BF7
:103DCC0020D17B681B68DA687B681B6822F02002B4
:103DDC00DA607B681B68DA687B681B6822F4807287
:103DEC00DA607B681B685A697B681B6822F00102E9
:103DFC005A617B68202283F83A207868FFF795FE99
:103E0C00002302E0002300E0022318461037BD46D1
:103E1C0080BD000080B584B000AF78607B681B6803
:103E2C001B6923F440517B68DA687B681B680A4382
:103E3C001A617B689A687B681B691A437B685B69AB
:103E4C001343BB607B681B68DB6823F4B05323F01F
:103E5C000C037A681268B9680B43D3607B681B68E3
:103E6C005B6923F440717B689A697B681B680A4321
:103E7C005A617B681B682C4A934203D1FFF796F872
:103E8C00F86002E0FFF77EF8F860FA6813469B00D2
:103E9C0013449A001A447B685B689B00B2FBF3F3F3
:103EAC00224AA2FB03235B091901FA6813469B0003
:103EBC0013449A001A447B685B689B00B2FBF3F2D4
:103ECC001A4BA3FB02035B09642000FB03F3D31A18
:103EDC001B013233154AA2FB03235B0903F0F003E9
:103EEC001944FA6813469B0013449A001A447B68E1
:103EFC005B689B00B2FBF3F20C4BA3FB02035B0968
:103F0C00642000FB03F3D31A1B013233074AA2FBD4
:103F1C0003235B0903F00F027B681B680A449A6059
:103F2C0000BF1037BD4680BD003801401F85EB51E6
:103F3C0080B582B000AF00233B7100237B71252339
:103F4C00BB71144B1B78144AA2FB0323DB08DBB2B6
:103F5C003033DBB23B710F4B1A780F4BA3FB0213C0
:103F6C00D9080B469B000B445B00D31ADBB23033F1
:103F7C00DBB27B71FF230A2208490948FFF739FCA1
:103F8C00391DFF2303220648FFF733FC00BF083717
:103F9C00BD4680BD68000020CDCCCCCC14000020E8
:103FAC00D800002080B584B000AF334A3B1D92E8A6
:103FBC00030018600433198002330A0C1A7000F0E5
:103FCC00EFF90346184600F091FAF860FB682B4AAB
:103FDC0082FB03129211DB17D31ADBB23033DBB244
:103FEC003B71FA68254B83FB02139911D317CB1A3B
:103FFC004FF47A7101FB03F3D31A214A82FB0312AB
:10400C005211DB17D31ADBB23033DBB27B71FA6897
:10401C001B4B83FB02135911D317CB1A642101FBE1
:10402C0003F3D31A174A82FB03129210DB17D31A2D
:10403C00DBB23033DBB2FB71FA68124B83FB021339
:10404C009910D317C91A0B469B000B445B00D11A6D
:10405C00CBB23033DBB23B72FF230D220A490B4843
:10406C00FFF7C7FB391DFF2307220848FFF7C1FBE9
:10407C0000BF1037BD4680BD0C510008D34D6210F7
:10408C001F85EB516766666620000020D800002073
:10409C0080B584B000AF3D4A3B4607CA03C31A80C3
:1040AC0000F064FA0346184600F0D8FBF860FB6891
:1040BC005B09374AA2FB0323DB09DBB23033DBB2EB
:1040CC003B70FA6853093249A1FB0313DB093149F0
:1040DC0001FB03F3D31A304AA2FB03235B0BDBB2C5
:1040EC003033DBB27B70FA682B4BA3FB02135B0BF8
:1040FC0042F2107101FB03F3D31A284AA2FB0323EB
:10410C009B09DBB23033DBB2BB70FA68234BA3FBE9
:10411C0002139B094FF47A7101FB03F3D31A204A63
:10412C00A2FB03235B09DBB23033DBB2FB70FA6812
:10413C001B4BA3FB02135B09642101FB03F3D31A92
:10414C00184AA2FB0323DB08DBB23033DBB27B71F2
:10415C00F968144BA3FB0123DA0813469B001344A4
:10416C005B00CA1AD3B23033DBB2BB71FF230A2215
:10417C000D490E48FFF73DFB3946FF230A220B4839
:10418C00FFF737FB00BF1037BD4680BD1451000848
:10419C00C55A7C0AA08601005917B7D1D34D6210BD
:1041AC001F85EB51CDCCCCCC3C000020D80000209E
:1041BC0080B582B000AF394A3B4692E803001860E4
:1041CC000433198002330A0C1A70354B1B88354A9C
:1041DC00A2FB03235B0B9BB2DBB23033DBB23B7035
:1041EC002F4B1B882F4AA2FB0312520B42F2107169
:1041FC0001FB02F29B1A9BB22B4AA2FB03239B09E5
:10420C009BB2DBB23033DBB27B70254B1B88264A6A
:10421C00A2FB031292094FF47A7101FB02F29B1A72
:10422C009BB2224AA2FB03235B099BB2DBB2303365
:10423C00DBB2BB701A4B1B881C4AA2FB031252093F
:10424C00642101FB02F29B1A9BB2194AA2FB0323C5
:10425C00DB089BB2DBB23033DBB2FB70104B1A883D
:10426C00134BA3FB0213D9080B469B000B445B00BA
:10427C00D31A9BB2DBB23033DBB23B71FF230B2280
:10428C000C490D48FFF7B5FA3946FF2307220A48B7
:10429C00FFF7AFFA00BF0837BD4680BD20510008BC
:1042AC006E0000205917B7D1D34D62101F85EB510A
:1042BC00CDCCCCCC30000020D800002080B500AF95
:1042CC00FFF770FEFF23012211491248FFF791FA04
:1042DC00FFF72EFEFF2301220D490E48FFF789FA46
:1042EC00FFF7D6FEFF23012209490A48FFF781FA9E
:1042FC00FFF75EFFFF23012205490648FFF779FA15
:10430C00FF23012204490348FFF773FA00BF80BD65
:10431C0047000020D80000204600002080B588B05F
:10432C0004AF3B4683E80300FB785B015AB23B7950
:10433C009B005BB213435AB27B795BB213435BB203
:10434C00DBB2FB737B785B015AB2BB789B005BB230
:10435C0013435AB23B785BB213435BB2DBB2BB7311
:10436C00FF2302930123019307F10F030093012311
:10437C00F522EC210948FDF729FAFF2302930123CA
:10438C00019307F10E0300930123F422EC2103485F
:10439C00FDF71CFA00BF1037BD4680BD740000202D
:1043AC0080B58AB004AF00237B6100233B710023EE
:1043BC007B710023BB71FF230293032301933B1DED
:1043CC0000930123FA22ED210B48FDF7F9FA3B7912
:1043DC003B617B79FB60BB79BB60BB681A09FB68EE
:1043EC001B011A433B691B0313437B617B69184612
:1043FC001837BD4680BD00BF7400002080B586B064
:10440C0004AF0023FB710023BB71FF230293012334
:10441C000193FB1D009301238822ED212F48FDF70A
:10442C00CFFAFF23029301230193BB1D00930123B9
:10443C008922ED212948FDF7C3FAFB791AB2BB7921
:10444C001B021BB213431BB29AB2254B1A80FF23DB
:10445C00029301230193FB1D009301238A22ED217A
:10446C001E48FDF7ADFAFF23029301230193BB1DF8
:10447C00009301238B22ED211848FDF7A1FAFB795B
:10448C001AB2BB791B021BB213431AB2154B1A801A
:10449C00FF23029301230193FB1D009301238C2224
:1044AC00ED210E48FDF78CFAFF23029301230193B3
:1044BC00BB1D009301238D22ED210848FDF780FAE6
:1044CC00FB791AB2BB791B021BB213431AB2064B0F
:1044DC001A8000BF0837BD4680BD00BF74000020A5
:1044EC0072000020C80000206A01002080B487B050
:1044FC0000AF78607B68DA10184B1B885B00D31A0E
:10450C00174AB2F9002002FB03F3DB127B617B68D4
:10451C001B11124A12889B1A7A6812110F490988CA
:10452C00521A02FB03F31B130E4AB2F9002002FBD2
:10453C0003F39B133B617A693B6913440A4A13608A
:10454C00094B1A6813469B00134480331B12FB6003
:10455C00FB6818461C37BD4680BC704772000020B3
:10456C00C80000206A0100207401002080B58AB0C8
:10457C0004AF00237B6100233B7100237B7100237C
:10458C00BB71FF230293032301933B1D0093012373
:10459C00F722ED210B48FDF713FA3B793B617B7950
:1045AC00FB60BB79BB60BB681A09FB681B011A4333
:1045BC003B691B0313437B617B6918461837BD4667
:1045CC0080BD00BF7400002080B586B004AF00230E
:1045DC00FB710023BB71FF23029301230193FB1D8D
:1045EC00009301238E22ED219248FDF7E9F9FF2378
:1045FC00029301230193BB1D009301238F22ED2114
:10460C008C48FDF7DDF9FB791AB2BB791B021BB2A2
:10461C0013431BB29AB2884B1A80FF2302930123D7
:10462C000193FB1D009301239022ED218148FDF79E
:10463C00C7F9FF23029301230193BB1D00930123B0
:10464C009122ED217B48FDF7BBF9FB791AB2BB79BE
:10465C001B021BB213431AB2784B1A80FF2302932E
:10466C0001230193FB1D009301239222ED2171483C
:10467C00FDF7A6F9FF23029301230193BB1D0093C1
:10468C0001239322ED216B48FDF79AF9FB791AB2BD
:10469C00BB791B021BB213431AB2694B1A80FF235E
:1046AC00029301230193FB1D009301239422ED211E
:1046BC006048FDF785F9FF23029301230193BB1D8D
:1046CC00009301239522ED215A48FDF779F9FB79E6
:1046DC001AB2BB791B021BB213431AB2594B1A8084
:1046EC00FF23029301230193FB1D009301239622C8
:1046FC00ED215048FDF764F9FF2302930123019348
:10470C00BB1D009301239722ED214A48FDF758F970
:10471C00FB791AB2BB791B021BB213431AB24A4B78
:10472C001A80FF23029301230193FB1D00930123A5
:10473C009822ED213F48FDF743F9FF230293012313
:10474C000193BB1D009301239922ED213948FDF7FC
:10475C0037F9FB791AB2BB791B021BB213431AB29D
:10476C003A4B1A80FF23029301230193FB1D009304
:10477C0001239A22ED212F48FDF722F9FF23029302
:10478C0001230193BB1D009301239B22ED2129489A
:10479C00FDF716F9FB791AB2BB791B021BB2134356
:1047AC001AB22B4B1A80FF23029301230193FB1D9A
:1047BC00009301239C22ED211E48FDF701F9FF23F4
:1047CC00029301230193BB1D009301239D22ED2134
:1047DC001848FDF7F5F8FB791AB2BB791B021BB22E
:1047EC0013431AB21B4B1A80FF230293012301932C
:1047FC00FB1D009301239E22ED210E48FDF7E0F8EE
:10480C00FF23029301230193BB1D009301239F22DD
:10481C00ED210848FDF7D4F8FB791AB2BB791B02DD
:10482C001BB213431AB20C4B1A8000BF0837BD469B
:10483C0080BD00BF740000201A010020D0000020B1
:10484C001C010020D2000020180100206C01002067
:10485C00700000201E0100206801002080B487B089
:10486C0000AF78604A4B1B685B10A3F57A433B6141
:10487C003B699B103A69921002FB03F3DB12454A29
:10488C00B2F9002002FB03F3FB60434BB3F9003099
:10489C001A463B6903FB02F35B00FA681344FB60A6
:1048AC00FB689A103D4BB3F900301B041344FB60BA
:1048BC003B4BB3F9003019463B699B103A69921097
:1048CC0002FB03F35B1303FB01F3DA10354BB3F973
:1048DC00003019463B6903FB01F35B1013449B1436
:1048EC003B613B6903F500432F4A128802FB03F33B
:1048FC00DB133B613B69002B01D1002342E07B6859
:10490C005B42FA6812139B1A40F6354202FB03F322
:10491C0003F1434303F5A0037B617B69002B06DBAA
:10492C007B695A003B69B2FBF3F37B6105E03B69A1
:10493C007A69B2FBF3F35B007B611C4BB3F900307B
:10494C0019467B69DB087A69D20802FB03F35B0B1F
:10495C0003FB01F31B133B617B699B081A46144B49
:10496C00B3F9003003FB02F35B13FB603A69FB689D
:10497C001344104AB2F9002013441A117B691344F2
:10498C007B617B6918461C37BD4680BC704700BFF5
:10499C00740100206C01002018010020D2000020BE
:1049AC001C010020D00000201A010020680100200A
:1049BC001E0100207000002080B584B000AF78602C
:1049CC00FEF7D6FA0246094BA3FB02231A0D7B68AD
:1049DC0002FB03F3FB6000BFFB685A1EFA60002B5E
:1049EC00FAD100BF1037BD4680BD00BF83DE1B432C
:1049FC0080B582B000AF0023FB710023BB71002394
:104A0C007B7134E00123BB7100BF4FF400611C4883
:104A1C00FCF71CFA0346002B04D1BB795A1CBA7163
:104A2C00002BF2D11C20FFF7C7FFFB795B00FB7159
:104A3C004FF400611248FCF709FA0346002B03D02F
:104A4C00FB7943F00103FB710123BB7100BF4FF4F1
:104A5C0000610B48FCF7FAF90346002B04D0BB7934
:104A6C005A1CBA71002BF2D17B7901337B717B79A3
:104A7C00072BC7D9FB7918460837BD4680BD00BF48
:104A8C000008014090B583B000AF01224FF40061E3
:104A9C002948FCF7F2F91420FFF78EFF00224FF49F
:104AAC0000612548FCF7E9F91420FBF7CFFE012241
:104ABC004FF400612048FCF7E0F91420FFF77CFF6D
:104ACC004FF400611C48FCF7C1F90346002B2FD1B1
:104ADC001A4B01221A7000BF4FF400611648FCF704
:104AEC00B5F90346002B07D1144B1B785A1CD1B2D5
:104AFC00124A1170002BEFD1104B01221A7000BF1B
:104B0C004FF400610C48FCF7A1F90346002BF7D1D8
:104B1C000023FB7109E0FC79FFF76AFF03461A4694
:104B2C00074B1A55FB790133FB71FB79042BF2D936
:104B3C0000BF0C37BD4690BD000801404800002066
:104B4C006800002080B584B002AF00233B710023C5
:104B5C007B711023FB70FA1CFF2300930123462169
:104B6C000D48FCF7DBFAC820FBF770FE3A1DFF235B
:104B7C000093022347210848FCF7CEFB3B791B022C
:104B8C001AB27B791BB213431BB29AB2034B1A8035
:104B9C0000BF0837BD4680BD740000206E000020A9
:104BAC0080B582B000AF0346FB71FB7903F00103C3
:104BBC00DBB21A464FF400412948FCF75EF9FB7949
:104BCC005B08DBB203F00103DBB21A46082125486F
:104BDC00FCF753F9FB799B08DBB203F00103DBB262
:104BEC001A4610211F48FCF748F9FB79DB08DBB2A9
:104BFC0003F00103DBB21A4620211A48FCF73DF9F9
:104C0C00FB791B09DBB203F00103DBB21A4640212E
:104C1C001448FCF732F9FB795B09DBB203F00103B2
:104C2C00DBB21A4680210F48FCF727F9FB799B0968
:104C3C00DBB203F00103DBB21A464FF48071094872
:104C4C00FCF71BF9FB79DB09DBB21A464FF4007158
:104C5C000448FCF712F900BF0837BD4680BD00BF01
:104C6C0000080140000C014080B582B000AF034643
:104C7C00FB71002280211248FCF7FFF80022402132
:104C8C000F48FCF7FAF8002220210D48FCF7F5F844
:104C9C00FB791846FFF784FF0120FBF7D7FD0122B3
:104CAC0080210748FCF7E9F80120FBF7CFFD002233
:104CBC0080210348FCF7E1F800BF0837BD4680BDF2
:104CCC000008014080B582B000AF0346FB710022A2
:104CDC0080211248FCF7D1F8012240210F48FCF743
:104CEC00CCF8002220210D48FCF7C7F8FB791846B8
:104CFC00FFF756FF0120FBF7A9FD01228021074891
:104D0C00FCF7BBF80120FBF7A1FD00228021034832
:104D1C00FCF7B3F800BF0837BD4680BD0008014062
:104D2C0080B500AF3820FFF79FFF0C20FFF79CFFEA
:104D3C000620FFF799FF0120FFF796FF8020FFF771
:104D4C0093FF00BF80BD000080B582B000AF7860DB
:104D5C007B681B78144AA2FB0323DB08DBB23033DD
:104D6C00DBB21846FFF7AEFF7B681A780E4BA3FB3D
:104D7C000213D9080B469B000B445B00D31ADBB221
:104D8C003033DBB21846FFF79DFF2520FFF79AFF63
:104D9C002020FFF797FF4FF47A70FBF757FD00BF09
:104DAC000837BD4680BD00BFCDCCCCCC80B582B021
:104DBC0000AF0346FB80FB88354AA2FB03235B0B49
:104DCC009BB2DBB23033DBB21846FFF77BFFFB88BC
:104DDC002F4AA2FB0312520B42F2107101FB02F29A
:104DEC009B1A9BB22B4AA2FB03239B099BB2DBB2FF
:104DFC003033DBB21846FFF765FFFB88254AA2FB70
:104E0C00031292094FF47A7101FB02F29B1A9BB2C6
:104E1C00214AA2FB03235B099BB2DBB23033DBB22A
:104E2C001846FFF74FFFFB881B4AA2FB03125209DF
:104E3C00642101FB02F29B1A9BB2184AA2FB0323CA
:104E4C00DB089BB2DBB23033DBB21846FFF73AFF1C
:104E5C00FA88124BA3FB0213D9080B469B000B4498
:104E6C005B00D31A9BB2DBB23033DBB21846FFF7D0
:104E7C0029FF4C20FFF726FF7820FFF723FF4FF484
:104E8C007A70FBF7E3FC00BF0837BD4680BD00BF5E
:104E9C005917B7D1D34D62101F85EB51CDCCCCCC6B
:104EAC0080B582B000AF78607B68284AA2FB0323F0
:104EBC009B09DBB23033DBB21846FFF703FF7A688D
:104ECC00224BA3FB02139B094FF47A7101FB03F3F2
:104EDC00D31A1F4AA2FB03235B09DBB23033DBB2CC
:104EEC001846FFF7EFFE2E20FFF7ECFE7A68184B02
:104EFC00A3FB02135B09642101FB03F3D31A154ACC
:104F0C00A2FB0323DB08DBB23033DBB21846FFF71E
:104F1C00D9FE79680F4BA3FB0123DA0813469B00DB
:104F2C0013445B00CA1AD3B23033DBB21846FFF716
:104F3C00C9FEDF20FFF7C6FE4320FFF7C3FE20208B
:104F4C00FFF7C0FE00BF0837BD4680BDD34D6210D1
:104F5C001F85EB51CDCCCCCC80B582B000AF786046
:104F6C007B685B093D4AA2FB0323DB09DBB23033D0
:104F7C00DBB21846FFF7A6FE7A6853093749A1FB46
:104F8C000313DB09364901FB03F3D31A354AA2FBA1
:104F9C0003235B0BDBB23033DBB21846FFF792FE18
:104FAC007A68304BA3FB02135B0B42F2107101FBCE
:104FBC0003F3D31A2C4AA2FB03239B09DBB2303335
:104FCC00DBB21846FFF77EFE7A68274BA3FB021371
:104FDC009B094FF47A7101FB03F3D31A234AA2FB0A
:104FEC0003235B09DBB23033DBB21846FFF76AFEF2
:104FFC002E20FFF767FE7A681C4BA3FB02135B099C
:10500C00642101FB03F3D31A194AA2FB0323DB0827
:10501C00DBB23033DBB21846FFF754FE7968144B21
:10502C00A3FB0123DA0813469B0013445B00CA1A46
:10503C00D3B23033DBB21846FFF744FE6820FFF7DB
:10504C0041FE5020FFF73EFE6120FFF73BFE202083
:10505C00FFF738FE00BF0837BD4680BDC55A7C0A35
:10506C00A08601005917B7D1D34D62101F85EB51A3
:10507C00CDCCCCCC70B500250C4E0D4CA41BA41083
:10508C00A54209D100F022F800250A4E0A4CA41BB7
:10509C00A410A54205D170BD56F8253098470135AE
:1050AC00EEE756F8253098470135F2E740510008F5
:1050BC004051000840510008445100080346024486
:1050CC00934200D1704703F8011BF9E7F8B500BF14
:1050DC00F8BC08BC9E467047F8B500BFF8BC08BCCD
:0450EC009E46704725
:1050F0000301030004000000020304050607080979
:105100000A0B0C0D0E0F10100102000000002E0003
:1051100000604300000000002E00006850610000A5
:1051200000000000004C78000000000000000000BB
:10513000010203040607080900000000010203043D
:045140003101000831
:045144000D01000851
:10514800204C5558000000000024F4001000000016
:105158000100000068756D69646974793A0000009F
:1051680074656D70657261747572653A000000004F
:105178006C756D696E616E63653A00007072657377
:0C518800737572653A000A2001000000F7
:04000005080007499F
:00000001FF
