:020000040800F2
:1000000000500020C1060008390600084506000817
:100010004B060008510600085706000800000000C3
:100020000000000000000000000000005D06000865
:100030006906000800000000750600088106000837
:100040000907000809070008090700080907000850
:100050000907000809070008090700080907000840
:100060000907000809070008090700080907000830
:100070000907000809070008090700080907000820
:100080000907000809070008090700080907000810
:100090000907000809070008090700080907000800
:1000A00009070008090700080907000809070008F0
:1000B0008D0600080907000809070008090700085D
:1000C00009070008090700080907000809070008D0
:1000D00009070008A1060008090700080907000829
:1000E00009070008090700080907000800000000C8
:1000F0000000000000000000000000000000000000
:0C01000000000000000000005FF808F1A3
:10010C0010B5054C237833B9044B13B10448AFF345
:10011C0000800123237010BD380000200000000077
:10012C00A03D000808B5034B1BB103490348AFF3CE
:10013C00008008BD000000003C000020A03D00082D
:10014C0080B500AF00F0DCFA00F024F800F00CF9F8
:10015C0000F066F800F092F800F0DCF803F0D0FC48
:10016C00802003F071FC03F07DFB084803F0DCFCFD
:10017C00C02003F069FC03F0D5FB054B1B88184627
:10018C0003F062FD03F0E0FAEAE700BF5400002040
:10019C005A00002080B590B000AF07F11803282258
:1001AC000021184603F0EEFD3B1D00221A605A6038
:1001BC009A60DA601A610123BB614FF48033FB61F2
:1001CC0000233B620123BB6202237B634FF4803329
:1001DC00BB634FF4E013FB6307F11803184601F0FF
:1001EC00DDFD0346002B01D000F030F90F237B60BE
:1001FC000223BB600023FB604FF480633B61002350
:10020C007B613B1D0221184602F048F80346002B87
:10021C0001D000F01BF900BF4037BD4680BD000087
:10022C0080B500AF124B134A1A60114B124A5A6038
:10023C000F4B00229A600E4B0022DA600C4B4FF4ED
:10024C0080421A610A4B00225A61094B00229A61C2
:10025C00074B0022DA61064B00221A62044800F0B8
:10026C00E1FD0346002B01D000F0F0F800BF80BD8B
:10027C005C00002000580040A086010080B586B0CC
:10028C0000AF07F1080300221A605A609A60DA6026
:10029C003B4600221A605A601D4B4FF080421A6098
:1002AC001B4B00225A601A4B00229A60184B4FF6D7
:1002BC00FF72DA60164B00221A61154B00229A610C
:1002CC00134802F087F90346002B01D000F0BEF86A
:1002DC004FF48053BB6007F1080319460C4802F039
:1002EC00D0FA0346002B01D000F0B0F800233B609D
:1002FC0000237B603B461946054802F09FFC0346F1
:10030C00002B01D000F0A2F800BF1837BD4680BD0D
:10031C00F000002080B500AF114B124A1A60104B50
:10032C004FF416525A600E4B00229A600C4B00226E
:10033C00DA600B4B00221A61094B0C225A61084BF4
:10034C0000229A61064B0022DA61054802F0E6FCB5
:10035C000346002B01D000F079F800BF80BD00BF30
:10036C00B00000200038014080B588B000AF07F124
:10037C00100300221A605A609A60DA60304B9B6955
:10038C002F4A43F0200393612D4B9B6903F020030C
:10039C00FB60FB682A4B9B69294A43F00403936179
:1003AC00274B9B6903F00403BB60BB68244B9B6920
:1003BC00234A43F008039361214B9B6903F0080324
:1003CC007B607B68002248F6E0011E4800F011FDBE
:1003DC0000224FF47E711C4800F00BFD48F2E00344
:1003EC003B6101237B610023BB610223FB6107F1AD
:1003FC0010031946134800F08BFB4FF400633B616C
:10040C0011237B610023BB610223FB6107F1100305
:10041C0019460C4800F07CFB4FF47E733B610123C2
:10042C007B610023BB610223FB6107F110031946BA
:10043C00054800F06DFB00BF2037BD4680BD00BFF6
:10044C000010024000080140000C014080B400AFD5
:10045C0000BFBD4680BC704780B485B000AF154B63
:10046C009B69144A43F001039361124B9B6903F09F
:10047C000103BB60BB680F4BDB690E4A43F0805332
:10048C00D3610C4BDB6903F080537B607B680A4BB8
:10049C005B68FB60FB6823F0E063FB60FB6843F088
:1004AC008063FB60044AFB68536000BF1437BD4691
:1004BC0080BC7047001002400000014080B588B03D
:1004CC0000AF786007F1100300221A605A609A603E
:1004DC00DA607B681B68164A934224D1154B9B69E2
:1004EC00144A43F008039361124B9B6903F0080311
:1004FC00FB60FB684FF440633B6112237B61032379
:10050C00FB6107F1100319460B4800F001FB094B86
:10051C00DB69084A43F48003D361064BDB6903F4BF
:10052C008003BB60BB6800BF2037BD4680BD00BFE9
:10053C000058004000100240000C014080B584B00F
:10054C0000AF78607B681B68B3F1804F13D10C4B04
:10055C00DB690B4A43F00103D361094BDB6903F000
:10056C000103FB60FB68002200211C2000F023FA31
:10057C001C2000F03CFA00BF1037BD4680BD00BF08
:10058C000010024080B588B000AF786007F110030E
:10059C0000221A605A609A60DA607B681B68204AF5
:1005AC00934239D11F4B9B691E4A43F4804393619C
:1005BC001C4B9B6903F48043FB60FB68194B9B69E4
:1005CC00184A43F004039361164B9B6903F0040330
:1005DC00BB60BB684FF400733B6102237B61032358
:1005EC00FB6107F1100319460F4800F091FA4FF424
:1005FC0080633B6100237B610023BB6107F1100327
:10060C001946094800F084FA00220021252000F048
:10061C00D2F9252000F0EBF900BF2037BD4680BD94
:10062C0000380140001002400008014080B400AFC7
:10063C0000BFBD4680BC704780B400AFFEE780B4FD
:10064C0000AFFEE780B400AFFEE780B400AFFEE77A
:10065C0080B400AF00BFBD4680BC704780B400AF13
:10066C0000BFBD4680BC704780B400AF00BFBD4624
:10067C0080BC704780B500AF00F088F800BF80BD2B
:10068C0080B500AF024801F0F4FF00BF80BD00BF91
:10069C00F000002080B500AF024802F01FFC00BF44
:1006AC0080BD00BFB000002080B400AF00BFBD46CD
:1006BC0080BC7047002103E00B4B5B584350043166
:1006CC000A480B4B42189A42F6D30A4A02E000231E
:1006DC0042F8043B084B9A42F9D3FFF7E5FF03F0CD
:1006EC002DFBFFF72DFD7047FC3D0008000000209E
:1006FC0038000020380000203C010020FEE70000FC
:10070C0080B500AF084B1B68074A43F01003136019
:10071C00032000F045F9002000F008F8FFF79CFEDC
:10072C000023184680BD00BF0020024080B582B077
:10073C0000AF7860124B1A68124B1B7819464FF4B5
:10074C007A73B3FBF1F3B2FBF3F3184600F05DF9E7
:10075C000346002B01D001230EE07B680F2B0AD837
:10076C00002279684FF0FF3000F025F9064A7B68CB
:10077C001360002300E0012318460837BD4680BDF6
:10078C0000000020080000200400002080B400AF0E
:10079C00054B1B781A46054B1B681344034A136020
:1007AC0000BFBD4680BC7047080000203801002007
:1007BC0080B400AF024B1B681846BD4680BC704726
:1007CC003801002080B584B000AF7860FFF7F0FFEF
:1007DC00B8607B68FB60FB68B3F1FF3F05D0094B49
:1007EC001B781A46FB681344FB6000BFFFF7E0FF61
:1007FC000246BB68D31AFA689A42F7D800BF103782
:10080C00BD4680BD0800002080B485B000AF786084
:10081C007B6803F00703FB600C4BDB68BB60BA68BA
:10082C004FF6FF031340BB60FB681A02BB6813430F
:10083C0043F0BF6343F40033BB60044ABB68D3602E
:10084C0000BF1437BD4680BC704700BF00ED00E010
:10085C0080B400AF044BDB681B0A03F00703184697
:10086C00BD4680BC704700BF00ED00E080B483B093
:10087C0000AF0346FB7197F90730002B0BDBFB79BC
:10088C0003F01F02064997F907305B09012000FAB3
:10089C0002F241F8232000BF0C37BD4680BC7047E4
:1008AC0000E100E080B483B000AF03463960FB7117
:1008BC0097F90730002B0ADB3B68DAB20C4997F941
:1008CC0007301201D2B20B4483F800230AE03B68D4
:1008DC00DAB20849FB7903F00F03043B1201D2B2E0
:1008EC000B441A7600BF0C37BD4680BC704700BF66
:1008FC0000E100E000ED00E080B489B000AFF860EA
:10090C00B9607A60FB6803F00703FB61FB69C3F114
:10091C000703042B28BF0423BB61FB690433062B9C
:10092C0002D9FB69033B00E000237B614FF0FF32EF
:10093C00BB6902FA03F3DA43BB681A407B699A403D
:10094C004FF0FF317B6901FA03F3D9437B680B400D
:10095C00134318462437BD4680BC704780B582B01F
:10096C0000AF78607B68013BB3F1807F01D301233A
:10097C000FE00A4A7B68013B53600F214FF0FF30B8
:10098C00FFF790FF054B00229A60044B07221A6078
:10099C00002318460837BD4680BD00BF10E000E0BC
:1009AC0080B582B000AF78607868FFF72DFF00BF8C
:1009BC000837BD4680BD80B586B000AF0346B96030
:1009CC007A60FB7300237B61FFF742FF78617A68E2
:1009DC00B9687869FFF790FF024697F90F30114616
:1009EC001846FFF75FFF00BF1837BD4680BD80B5C6
:1009FC0082B000AF0346FB7197F907301846FFF73A
:100A0C0035FF00BF0837BD4680BD80B582B000AF52
:100A1C0078607868FFF7A2FF034618460837BD4692
:100A2C0080BD000080B584B000AF78600023FB73FC
:100A3C007B6893F82130022B05D07B6804229A63E3
:100A4C000123FB7351E07B681B681A687B681B6889
:100A5C0022F00E021A607B681B681A687B681B68A0
:100A6C0022F001021A607B681B68224A934229D04B
:100A7C007B681B68204A934222D07B681B681F4A04
:100A8C0093421AD07B681B681D4A934212D07B6834
:100A9C001B681C4A93420AD07B681B681A4A934213
:100AAC0002D14FF480130EE04FF080730BE04FF443
:100ABC00803308E04FF4805305E04FF4807302E07C
:100ACC00102300E00123114A53607B68012283F854
:100ADC0021207B68002283F820207B685B6B002B35
:100AEC0003D07B685B6B78689847FB7B18461037A4
:100AFC00BD4680BD080002401C0002403000024090
:100B0C0044000240580002406C00024000000240C9
:100B1C0080B48BB000AF7860396000237B62002317
:100B2C003B6227E101227B6A02FA03F3FB613B681B
:100B3C001B68FA691340BB61BA69FB699A4240F0C1
:100B4C0016813B685B68122B34D0122B0DD8022B0C
:100B5C002BD0022B04D8002B31D0012B1CD048E019
:100B6C00032B43D0112B1BD043E0894A934226D050
:100B7C00874A934206D8874A934220D0864A9342AA
:100B8C001DD036E0854A934219D0854A934216D03F
:100B9C00844A934213D02CE03B68DB683B6228E02C
:100BAC003B68DB6804333B6223E03B68DB6808335B
:100BBC003B621EE03B68DB680C333B6219E03B6830
:100BCC009B68002B02D104233B6212E03B689B68BC
:100BDC00012B05D108233B627B68FA691A6108E096
:100BEC0008233B627B68FA695A6102E000233B628E
:100BFC0000BFBB69FF2B01D87B6801E07B68043325
:100C0C007B61BB69FF2B02D87B6A9B0002E07B6A8D
:100C1C00083B9B003B617B691A680F213B6901FA19
:100C2C0003F3DB431A40396A3B6901FA03F31A43B5
:100C3C007B691A603B685B6803F08053002B00F003
:100C4C009680594B9B69584A43F001039361564B6C
:100C5C009B6903F00103BB60BB68544A7B6A9B0829
:100C6C00023352F82330FB607B6A03F003039B00D2
:100C7C000F2202FA03F3DB43FA681340FB607B6834
:100C8C004B4A934213D07B684A4A93420DD07B68FF
:100C9C00494A934207D07B68484A934201D10323C7
:100CAC0006E0042304E0022302E0012300E0002319
:100CBC007A6A02F0030292009340FA681343FB60D5
:100CCC003A497B6A9B080233FA6841F823203B6857
:100CDC005B6803F48033002B06D0394B1A68384913
:100CEC00BB6913430B6006E0354B1A68BB69DB43E9
:100CFC00334913400B603B685B6803F40033002BF3
:100D0C0006D02F4B5A682E49BB6913434B6006E043
:100D1C002B4B5A68BB69DB43294913404B603B683A
:100D2C005B6803F48013002B06D0254B9A6824498A
:100D3C00BB6913438B6006E0214B9A68BB69DB43AC
:100D4C001F4913408B603B685B6803F40013002B56
:100D5C0006D01B4BDA681A49BB691343CB6006E01B
:100D6C00174BDA68BB69DB4315491340CB607B6AD0
:100D7C0001337B623B681A687B6A22FA03F3002B0F
:100D8C007FF4D0AE00BF2C37BD4680BC704700BF8F
:100D9C000000211000001110000012100000311092
:100DAC000000321000002210001002400000014030
:100DBC0000080140000C01400010014000140140EB
:100DCC000004014080B485B000AF78600B467B8096
:100DDC007B689A687B881340002B02D00123FB733D
:100DEC0001E00023FB73FB7B18461437BD4680BC27
:100DFC00704780B483B000AF78600B467B8013469D
:100E0C007B707B78002B03D07A887B681A6103E0B7
:100E1C007B881A047B681A6100BF0C37BD4680BC06
:100E2C007047000080B584B000AF78607B68002B01
:100E3C0001D101231FE17B6893F83D30DBB2002B1D
:100E4C0006D17B68002283F83C207868FFF736FBDC
:100E5C007B68242283F83D207B681B681A687B68BA
:100E6C001B6822F001021A607B681B681A687B6899
:100E7C001B6842F400421A607B681B681A687B6826
:100E8C001B6822F400421A6001F05EFBF8607B687C
:100E9C005B687B4A934207D8FB687A4A934294BFBB
:100EAC0001230023DBB206E0FB68774A934294BF30
:100EBC0001230023DBB2002B01D00123DBE0FB6814
:100ECC00724AA2FB03239B0CBB607B681B685B68AC
:100EDC0023F03F017B681B68BA680A435A607B6841
:100EEC001B681B6A23F03F017B685B68644A934272
:100EFC0002D8BB68013309E0BB684FF4967202FB61
:100F0C0003F3634AA2FB03239B0901337A6812683B
:100F1C000B4313627B681B68DB6923F44F4222F09E
:100F2C00FF027B685B6856498B420DD8FB68591EE3
:100F3C007B685B685B00B1FBF3F30133C3F30B031A
:100F4C00042B38BF04234FE07B689B68002B11D126
:100F5C00FB68581E7B6859680B465B000B44B0FB62
:100F6C00F3F30133C3F30B03002B0CBF012300235A
:100F7C00DBB212E0FB68581E7B6859680B469B007D
:100F8C000B4499000B44B0FBF3F30133C3F30B0395
:100F9C00002B0CBF01230023DBB2002B01D001235B
:100FAC0022E07B689B68002B0ED1FB68581E7B6887
:100FBC0059680B465B000B44B0FBF3F30133C3F3EE
:100FCC000B0343F400430FE0FB68581E7B68596821
:100FDC000B469B000B4499000B44B0FBF3F301331D
:100FEC00C3F30B0343F44043796809681343CB61A3
:100FFC007B681B681B6823F0C0017B68DA697B681F
:10100C001B6A1A437B681B680A431A607B681B685F
:10101C009B6823F4034323F0FF037A6811697A6811
:10102C00D26811437A6812680B4393607B681B6823
:10103C00DB6823F0FF017B685A697B689B691A4364
:10104C007B681B680A43DA607B681B681A687B68DC
:10105C001B6842F001021A607B6800221A647B68EC
:10106C00202283F83D207B6800221A637B680022D3
:10107C0083F83E20002318461037BD4680BD00BFC4
:10108C00A08601007F841E00FF083D0083DE1B4309
:10109C00D34D621080B588B002AFF8607A601A4602
:1010AC000B467B8113463B81FFF782FB7861FB6823
:1010BC0093F83D30DBB2202B40F0E0807B6900934D
:1010CC00192301227049F86800F08CFC0346002BB0
:1010DC0001D00223D3E0FB6893F83C30012B01D103
:1010EC000223CCE0FB68012283F83C20FB681B68E0
:1010FC001B6803F00103012B07D0FB681B681A68FF
:10110C00FB681B6842F001021A60FB681B681A68D6
:10111C00FB681B6822F400621A60FB68212283F8CA
:10112C003D20FB68102283F83E20FB6800221A64E5
:10113C00FB687A685A62FB683A895A85FB685B8D52
:10114C009AB2FB681A85FB68504ADA6279897B6926
:10115C003A6AF86800F0F6FA0346002B01D0012336
:10116C008DE000233B61FB681B685B693B61FB689E
:10117C001B689B693B613B6966E07A69396AF86870
:10118C0000F006FD0346002B0DD0FB681B6C042BF6
:10119C0007D1FB681B681A68FB681B6842F4007275
:1011AC001A6001236BE0FB685B6A1A78FB681B68AA
:1011BC001A61FB685B6A5A1CFB685A62FB685B8DA0
:1011CC009BB2013B9AB2FB685A85FB681B8D013BB5
:1011DC009AB2FB681A85FB681B685B6903F0040311
:1011EC00042B1BD1FB681B8D002B17D0FB685B6A93
:1011FC001A78FB681B681A61FB685B6A5A1CFB68EF
:10120C005A62FB685B8D9BB2013B9AB2FB685A85B4
:10121C00FB681B8D013B9AB2FB681A857A69396AA7
:10122C00F86800F0F6FC0346002B0DD0FB681B6C35
:10123C00042B07D1FB681B681A68FB681B6842F417
:10124C0000721A6001231AE0FB681B8D002B94D1ED
:10125C00FB681B681A68FB681B6842F400721A6012
:10126C00FB68202283F83D20FB68002283F83E2097
:10127C00FB68002283F83C20002300E00223184680
:10128C001837BD4680BD00BF020010000000FFFFF4
:10129C0080B58CB002AFF8607A601A460B467B8141
:1012AC0013463B8100233B62FFF782FA7862FB68AE
:1012BC0093F83D30DBB2202B40F038827B6A0093F0
:1012CC00192301227E49F86800F08CFB0346002BA1
:1012DC0001D002232BE2FB6893F83C30012B01D1A7
:1012EC00022324E2FB68012283F83C20FB681B6884
:1012FC001B6803F00103012B07D0FB681B681A68FD
:10130C00FB681B6842F001021A60FB681B681A68D4
:10131C00FB681B6822F400621A60FB68222283F8C7
:10132C003D20FB68102283F83E20FB6800221A64E3
:10133C00FB687A685A62FB683A895A85FB685B8D50
:10134C009AB2FB681A85FB685E4ADA6279897B6A15
:10135C003A6BF86800F078FA0346002B01D00123B1
:10136C00E5E1FB681B8D002B13D10023FB61FB68AF
:10137C001B685B69FB61FB681B689B69FB61FB6914
:10138C00FB681B681A68FB681B6842F400721A60E1
:10139C00B9E1FB681B8D012B1DD1FB681B681A681A
:1013AC00FB681B6822F480621A6072B60023BB6172
:1013BC00FB681B685B69BB61FB681B689B69BB6155
:1013CC00BB69FB681B681A68FB681B6842F40072F7
:1013DC001A6062B697E1FB681B8D022B1DD1FB686E
:1013EC001B681A68FB681B6842F400621A6072B6CC
:1013FC0000237B61FB681B685B697B61FB681B6876
:10140C009B697B617B69FB681B681A68FB681B68BE
:10141C0022F480621A6062B675E1FB681B681A6878
:10142C00FB681B6842F480621A6000233B61FB6816
:10143C001B685B693B61FB681B689B693B613B6993
:10144C0061E1FB681B8D032B00F21A81FB681B8D7D
:10145C00012B23D17A6A396BF86800F01BFC034628
:10146C00002B01D0012362E1FB681B681A69FB6841
:10147C005B6AD2B21A70FB685B6A5A1CFB685A62D0
:10148C00FB681B8D013B9AB2FB681A85FB685B8D70
:10149C009BB2013B9AB2FB685A8534E1FB681B8D09
:1014AC00022B50D17B6A00933B6B00220649F868F3
:1014BC0000F098FA0346002B08D0012337E100BF57
:1014CC00020010000000FFFF0400010072B6FB6870
:1014DC001B681A68FB681B6842F400721A60FB6890
:1014EC001B681A69FB685B6AD2B21A70FB685B6A8C
:1014FC005A1CFB685A62FB681B8D013B9AB2FB6855
:10150C001A85FB685B8D9BB2013B9AB2FB685A85CE
:10151C0062B6FB681B681A69FB685B6AD2B21A7008
:10152C00FB685B6A5A1CFB685A62FB681B8D013BAB
:10153C009AB2FB681A85FB685B8D9BB2013B9AB231
:10154C00FB685A85DFE07B6A00933B6B00227A498B
:10155C00F86800F047FA0346002B01D00123E6E0BF
:10156C00FB681B681A68FB681B6822F480621A60AF
:10157C0072B6FB681B681A69FB685B6AD2B21A7098
:10158C00FB685B6A5A1CFB685A62FB681B8D013B4B
:10159C009AB2FB681A85FB685B8D9BB2013B9AB2D1
:1015AC00FB685A85654B1B68DB08654AA2FB032365
:1015BC001A0A13469B001344DA00D31A3B623B6AA7
:1015CC00013B3B623B6A002B17D1FB6800221A637C
:1015DC00FB68202283F83D20FB68002283F83E2024
:1015EC00FB681B6C43F02002FB681A6462B6FB6854
:1015FC00002283F83C20012399E0FB681B685B699F
:10160C0003F00403042BDAD1FB681B681A68FB682F
:10161C001B6842F400721A60FB681B681A69FB684D
:10162C005B6AD2B21A70FB685B6A5A1CFB685A621E
:10163C00FB681B8D013B9AB2FB681A85FB685B8DBE
:10164C009BB2013B9AB2FB685A8562B6FB681B6879
:10165C001A69FB685B6AD2B21A70FB685B6A5A1C27
:10166C00FB685A62FB681B8D013B9AB2FB681A85BA
:10167C00FB685B8D9BB2013B9AB2FB685A8542E0DA
:10168C007A6A396BF86800F005FB0346002B01D031
:10169C0001234CE0FB681B681A69FB685B6AD2B2D9
:1016AC001A70FB685B6A5A1CFB685A62FB681B8DDC
:1016BC00013B9AB2FB681A85FB685B8D9BB2013BC0
:1016CC009AB2FB685A85FB681B685B6903F00403DC
:1016DC00042B18D1FB681B681A69FB685B6AD2B2D1
:1016EC001A70FB685B6A5A1CFB685A62FB681B8D9C
:1016FC00013B9AB2FB681A85FB685B8D9BB2013B80
:10170C009AB2FB685A85FB681B8D002B7FF499AE4F
:10171C00FB68202283F83D20FB68002283F83E20E2
:10172C00FB68002283F83C20002300E002231846CB
:10173C002837BD4680BD00BF04000100000000201A
:10174C0089B5F81480B588B002AFF8607A603B6058
:10175C000B467B81FB68DB6A7B617B69082B06D0BF
:10176C007B69012B03D07B6913F5803F08D1FB68A3
:10177C001B681A68FB681B6842F480721A600BE0E5
:10178C00FB681B6B122B07D1FB681B681A68FB6884
:10179C001B6842F480721A603B6800937B680022DD
:1017AC004FF00111F86800F01DF90346002B0DD025
:1017BC00FB681B681B6803F48073B3F5807F03D14F
:1017CC00FB684FF400721A64032335E0FB681B6955
:1017DC00B3F5804F08D17B89DBB21A46FB681B68D6
:1017EC0002F0FE021A611BE07B89DB11DBB203F015
:1017FC000603DBB263F00F03DAB2FB681B681A61F5
:10180C003B687A680E49F86800F043F90346002BF0
:10181C0001D0012310E07B89DAB2FB681B681A61E6
:10182C003B687A680749F86800F033F90346002BE7
:10183C0001D0012300E0002318461837BD4680BDB7
:10184C00080001000200010080B588B002AFF8600A
:10185C007A603B600B467B81FB68DB6A7B61FB68D3
:10186C001B681A68FB681B6842F480621A607B690B
:10187C00082B06D07B69012B03D07B6913F5803FC5
:10188C0008D1FB681B681A68FB681B6842F48072FD
:10189C001A600BE0FB681B6B112B07D1FB681B68F4
:1018AC001A68FB681B6842F480721A603B680093EC
:1018BC007B6800224FF00111F86800F093F80346A2
:1018CC00002B0DD0FB681B681B6803F48073B3F509
:1018DC00807F03D1FB684FF400721A64032379E014
:1018EC00FB681B69B3F5804F08D17B89DBB243F0F1
:1018FC000103DAB2FB681B681A615FE07B89DB11BC
:10190C00DBB203F00603DBB263F00F03DAB2FB6861
:10191C001B681A613B687A683049F86800F0B9F8BE
:10192C000346002B01D0012354E07B89DAB2FB681B
:10193C001B681A613B687A682949F86800F0A9F8B5
:10194C000346002B01D0012344E000233B61FB68DC
:10195C001B685B693B61FB681B689B693B613B696E
:10196C00FB681B681A68FB681B6842F480721A607B
:10197C003B6800937B6800224FF00111F86800F07F
:10198C0031F80346002B0DD0FB681B681B6803F471
:10199C008073B3F5807F03D1FB684FF400721A6437
:1019AC00032317E07B89DB11DBB203F00603DBB208
:1019BC0063F00E03DAB2FB681B681A613B687A6845
:1019CC000749F86800F065F80346002B01D00123A5
:1019DC0000E0002318461837BD4680BD0800010002
:1019EC000200010080B584B000AFF860B9603B60C4
:1019FC001346FB7125E03B68B3F1FF3F21D0FEF7A6
:101A0C00D7FE0246BB69D31A3A689A4202D33B68A6
:101A1C00002B16D1FB6800221A63FB68202283F886
:101A2C003D20FB68002283F83E20FB681B6C43F0D2
:101A3C002002FB681A64FB68002283F83C20012317
:101A4C0023E0BB681B0CDBB2012B0DD1FB681B68C0
:101A5C005B69DA43BB6813409BB2002B0CBF0123BC
:101A6C000023DBB21A460CE0FB681B689B69DA4367
:101A7C00BB6813409BB2002B0CBF01230023DBB2CD
:101A8C001A46FB799A42B6D0002318461037BD4649
:101A9C0080BD80B584B000AFF860B9607A603B60FF
:101AAC0051E0FB681B685B6903F48063B3F5806FDE
:101ABC0023D1FB681B681A68FB681B6842F4007230
:101ACC001A60FB681B686FF480625A61FB68002225
:101ADC001A63FB68202283F83D20FB68002283F800
:101AEC003E20FB681B6C43F00402FB681A64FB6825
:101AFC00002283F83C20012346E07B68B3F1FF3FD2
:101B0C0021D0FEF755FE02463B68D31A7A689A42FA
:101B1C0002D37B68002B16D1FB6800221A63FB688A
:101B2C00202283F83D20FB68002283F83E20FB68CE
:101B3C001B6C43F02002FB681A64FB68002283F8DC
:101B4C003C20012320E0BB681B0CDBB2012B0CD129
:101B5C00FB681B685B69DA43BB6813409BB2002BC4
:101B6C0014BF01230023DBB20BE0FB681B689B69ED
:101B7C00DA43BB6813409BB2002B14BF0123002334
:101B8C00DBB2002B8DD1002318461037BD4680BD2B
:101B9C0080B584B000AFF860B9607A602DE0F86869
:101BAC0000F0CEF80346002B01D001232DE0BB68DA
:101BBC00B3F1FF3F21D0FEF7FBFD02467B68D31A41
:101BCC00BA689A4202D3BB68002B16D1FB6800227C
:101BDC001A63FB68202283F83D20FB68002283F8FF
:101BEC003E20FB681B6C43F02002FB681A64FB6808
:101BFC00002283F83C20012307E0FB681B685B692B
:101C0C0003F08003802BCAD1002318461037BD4641
:101C1C0080BD80B584B000AFF860B9607A602DE00B
:101C2C00F86800F08DF80346002B01D001232DE05D
:101C3C00BB68B3F1FF3F21D0FEF7BAFD02467B68CB
:101C4C00D31ABA689A4202D3BB68002B16D1FB6830
:101C5C0000221A63FB68202283F83D20FB680022D7
:101C6C0083F83E20FB681B6C43F02002FB681A646F
:101C7C00FB68002283F83C20012307E0FB681B680B
:101C8C005B6903F00403042BCAD1002318461037F8
:101C9C00BD4680BD80B584B000AFF860B9607A6095
:101CAC0042E0FB681B685B6903F01003102B19D131
:101CBC00FB681B686FF010025A61FB6800221A6304
:101CCC00FB68202283F83D20FB68002283F83E202D
:101CDC00FB681A6CFB681A64FB68002283F83C20D2
:101CEC00012329E0FEF764FD02467B68D31ABA682B
:101CFC009A4202D3BB68002B16D1FB6800221A63F0
:101D0C00FB68202283F83D20FB68002283F83E20EC
:101D1C00FB681B6C43F02002FB681A64FB68002212
:101D2C0083F83C20012307E0FB681B685B6903F028
:101D3C004003402BB5D1002318461037BD4680BD5B
:101D4C0080B483B000AF78607B681B685B6903F478
:101D5C008063B3F5806F1BD17B681B686FF4806266
:101D6C005A617B6800221A637B68202283F83D202D
:101D7C007B68002283F83E207B681B6C43F00402D6
:101D8C007B681A647B68002283F83C20012300E006
:101D9C00002318460C37BD4680BC704780B586B012
:101DAC0000AF78607B68002B01D101236CE27B686B
:101DBC001B6803F00103002B00F08780924B5B68DB
:101DCC0003F00C03042B0CD08F4B5B6803F00C035B
:101DDC00082B12D18C4B5B6803F48033B3F5803F36
:101DEC000BD1894B1B6803F40033002B6CD07B6840
:101DFC005B68002B68D1012346E27B685B68B3F516
:101E0C00803F06D1804B1B687F4A43F480331360BC
:101E1C002EE07B685B68002B0CD17B4B1B687A4AED
:101E2C0023F480331360784B1B68774A23F48023A8
:101E3C0013601DE07B685B68B3F5A02F0CD1724B6F
:101E4C001B68714A43F4802313606F4B1B686E4A06
:101E5C0043F4803313600BE06B4B1B686A4A23F42A
:101E6C0080331360684B1B68674A23F4802313602C
:101E7C007B685B68002B13D0FEF79AFC386108E096
:101E8C00FEF796FC02463B69D31A642B01D9032357
:101E9C00FAE15D4B1B6803F40033002BF0D014E027
:101EAC00FEF786FC386108E0FEF782FC02463B69CF
:101EBC00D31A642B01D90323E6E1534B1B6803F4BB
:101ECC000033002BF0D100E000BF7B681B6803F0EF
:101EDC000203002B63D04C4B5B6803F00C03002B0C
:101EEC000BD0494B5B6803F00C03082B1CD1464B01
:101EFC005B6803F48033002B16D1434B1B6803F053
:101F0C000203002B05D07B681B69012B01D0012338
:101F1C00BAE13D4B1B6823F0F8027B685B69DB0080
:101F2C00394913430B603AE07B681B69002B20D0C6
:101F3C00364B01221A60FEF73BFC386108E0FEF7D5
:101F4C0037FC02463B69D31A022B01D903239BE1D0
:101F5C002D4B1B6803F00203002BF0D02A4B1B689F
:101F6C0023F0F8027B685B69DB00274913430B60A5
:101F7C0015E0264B00221A60FEF71AFC386108E0C7
:101F8C00FEF716FC02463B69D31A022B01D9032338
:101F9C007AE11D4B1B6803F00203002BF0D17B6828
:101FAC001B6803F00803002B3AD07B689B69002B5D
:101FBC0019D0174B01221A60FEF7FAFB386108E0C2
:101FCC00FEF7F6FB02463B69D31A022B01D9032319
:101FDC005AE10D4B5B6A03F00203002BF0D0012099
:101FEC0000F0DAFA1CE00A4B00221A60FEF7E0FB64
:101FFC0038610FE0FEF7DCFB02463B69D31A022B7B
:10200C0008D9032340E100BF001002400000424207
:10201C00800442429E4B5B6A03F00203002BE9D121
:10202C007B681B6803F00403002B00F0A6800023E0
:10203C00FB75974BDB6903F08053002B0DD1944B50
:10204C00DB69934A43F08053D361914BDB6903F016
:10205C008053BB60BB680123FB758E4B1B6803F47C
:10206C008073002B18D18B4B1B688A4A43F4807306
:10207C001360FEF79DFB386108E0FEF799FB024602
:10208C003B69D31A642B01D90323FDE0814B1B68F8
:10209C0003F48073002BF0D07B68DB68012B06D136
:1020AC007B4B1B6A7A4A43F0010313622DE07B6879
:1020BC00DB68002B0CD1764B1B6A754A23F00103AD
:1020CC001362734B1B6A724A23F0040313621CE005
:1020DC007B68DB68052B0CD16D4B1B6A6C4A43F09B
:1020EC00040313626A4B1B6A694A43F001031362CF
:1020FC000BE0674B1B6A664A23F001031362644BC7
:10210C001B6A634A23F0040313627B68DB68002BB1
:10211C0015D0FEF74DFB38610AE0FEF749FB02468D
:10212C003B69D31A41F28832934201D90323ABE0C5
:10213C00574B1B6A03F00203002BEED014E0FEF7A2
:10214C0037FB38610AE0FEF733FB02463B69D31AD2
:10215C0041F28832934201D9032395E04C4B1B6A20
:10216C0003F00203002BEED1FB7D012B05D1484B74
:10217C00DB69474A23F08053D3617B68DB69002B12
:10218C0000F08180424B5B6803F00C03082B61D09C
:10219C007B68DB69022B46D13F4B00221A60FEF7AD
:1021AC0007FB386108E0FEF703FB02463B69D31AD4
:1021BC00022B01D9032367E0354B1B6803F0007336
:1021CC00002BF0D17B681B6AB3F5803F08D1304BF4
:1021DC005B6823F400327B689B682D4913434B608A
:1021EC002B4B5B6823F474127B68196A7B685B6AFF
:1021FC000B43274913434B60274B01221A60FEF710
:10220C00D7FA386108E0FEF7D3FA02463B69D31AD5
:10221C00022B01D9032337E01D4B1B6803F000731D
:10222C00002BF0D02FE01C4B00221A60FEF7C0FAF6
:10223C00386108E0FEF7BCFA02463B69D31A022B60
:10224C0001D9032320E0124B1B6803F00073002B11
:10225C00F0D118E07B68DB69012B01D1012313E07D
:10226C000B4B5B68FB60FB6803F480327B681B6A7A
:10227C009A4206D1FB6803F470127B685B6A9A423F
:10228C0001D0012300E0002318461837BD4680BD5D
:10229C0000100240007000406000424280B584B0E3
:1022AC0000AF786039607B68002B01D10123D0E04E
:1022BC006A4B1B6803F007033A689A4210D9674BC4
:1022CC001B6823F0070265493B6813430B60634BA3
:1022DC001B6803F007033A689A4201D00123B8E067
:1022EC007B681B6803F00203002B20D07B681B6803
:1022FC0003F00403002B05D0594B5B68584A43F498
:10230C00E06353607B681B6803F00803002B05D067
:10231C00534B5B68524A43F460535360504B5B68B9
:10232C0023F0F0027B689B684D4913434B607B683C
:10233C001B6803F00103002B40D07B685B68012B0A
:10234C0007D1474B1B6803F40033002B15D1012335
:10235C007FE07B685B68022B07D1414B1B6803F065
:10236C000073002B09D1012373E03D4B1B6803F074
:10237C000203002B01D101236BE0394B5B6823F086
:10238C0003027B685B68364913434B60FEF710FA17
:10239C00F8600AE0FEF70CFA0246FB68D31A41F229
:1023AC008832934201D9032353E02D4B5B6803F031
:1023BC000C027B685B689B009A42EBD1274B1B6835
:1023CC0003F007033A689A4210D2244B1B6823F09F
:1023DC00070222493B6813430B60204B1B6803F038
:1023EC0007033A689A4201D0012332E07B681B68EC
:1023FC0003F00403002B08D0194B5B6823F4E06254
:10240C007B68DB68164913434B607B681B6803F0E1
:10241C000803002B09D0124B5B6823F460527B68D5
:10242C001B69DB000E4913434B6000F021F8014699
:10243C000B4B5B681B0903F00F030A4AD35C21FAB0
:10244C0003F3094A1360094B1B681846FEF76EF933
:10245C00002318461037BD4680BD00BF0020024047
:10246C0000100240DC3D00080000002004000020A9
:10247C0090B48AB000AF2A4B3C1D0FCB84E80F0000
:10248C00284B1B883B800023FB610023BB6100238E
:10249C007B6200237B6100233B62234B5B68FB6107
:1024AC00FB6903F00C03042B02D0082B03D02DE0A6
:1024BC001E4B3B622DE0FB699B0C03F00F0307F1F5
:1024CC002802134413F8243C7B61FB6903F480332A
:1024DC00002B13D0144B5B685B0C03F0010307F16A
:1024EC002802134413F8283CBB617B690F4A02FB9A
:1024FC0003F2BB69B2FBF3F37B6204E07B690C4A29
:10250C0002FB03F37B627B6A3B6202E0074B3B629C
:10251C0000BF3B6A18462837BD4690BC704700BFC9
:10252C00B83D0008C83D00080010024000127A00B7
:10253C0000093D0080B400AF024B1B681846BD4635
:10254C0080BC70470000002080B500AFFFF7F2FFA1
:10255C000146054B5B681B0A03F00703034AD35C77
:10256C0021FA03F3184680BD00100240EC3D000830
:10257C0080B500AFFFF7DEFF0146054B5B68DB0A59
:10258C0003F00703034AD35C21FA03F3184680BD1A
:10259C0000100240EC3D000880B485B000AF7860BC
:1025AC000A4B1B680A4AA2FB03235B0A7A6802FBEC
:1025BC0003F3FB6000BFFB685A1EFA60002BF9D1D5
:1025CC0000BF1437BD4680BC704700BF0000002020
:1025DC00D34D621080B582B000AF78607B68002B61
:1025EC0001D1012341E07B6893F83D30DBB2002B35
:1025FC0006D17B68002283F83C207868FDF79EFFAB
:10260C007B68022283F83D207B681A687B68043360
:10261C001946104600F01AFA7B68012283F846200E
:10262C007B68012283F83E207B68012283F83F20DF
:10263C007B68012283F840207B68012283F84120CB
:10264C007B68012283F842207B68012283F84320B7
:10265C007B68012283F844207B68012283F84520A3
:10266C007B68012283F83D20002318460837BD46BD
:10267C0080BD80B582B000AF78607B681B681B6939
:10268C0003F00203022B22D17B681B68DB6803F08A
:10269C000203022B1BD17B681B686FF002021A61CC
:1026AC007B6801221A777B681B689B6903F0030324
:1026BC00002B03D0786800F0ADF905E0786800F0E5
:1026CC00A0F9786800F0AFF97B6800221A777B6874
:1026DC001B681B6903F00403042B22D17B681B6865
:1026EC00DB6803F00403042B1BD17B681B686FF0C1
:1026FC0004021A617B6802221A777B681B689B694B
:10270C0003F44073002B03D0786800F083F905E0E4
:10271C00786800F076F9786800F085F97B6800221B
:10272C001A777B681B681B6903F00803082B22D1FE
:10273C007B681B68DB6803F00803082B1BD17B68E4
:10274C001B686FF008021A617B6804221A777B6899
:10275C001B68DB6903F00303002B03D0786800F0DF
:10276C0059F905E0786800F04CF9786800F05BF9ED
:10277C007B6800221A777B681B681B6903F01003C7
:10278C00102B22D17B681B68DB6803F01003102B25
:10279C001BD17B681B686FF010021A617B680822E2
:1027AC001A777B681B68DB6903F44073002B03D03A
:1027BC00786800F02FF905E0786800F022F9786865
:1027CC0000F031F97B6800221A777B681B681B6963
:1027DC0003F00103012B0ED17B681B68DB6803F04F
:1027EC000103012B07D17B681B686FF001021A6192
:1027FC00786800F0FDF87B681B681B6903F08003A8
:10280C00802B0ED17B681B68DB6803F08003802B68
:10281C0007D17B681B686FF080021A61786800F042
:10282C0074FA7B681B681B6903F04003402B0ED1C4
:10283C007B681B68DB6803F04003402B07D17B6887
:10284C001B686FF040021A61786800F0F5F87B683D
:10285C001B681B6903F02003202B0ED17B681B68BF
:10286C00DB6803F02003202B07D17B681B686FF01B
:10287C0020021A61786800F03FFA00BF0837BD46A5
:10288C0080BD80B584B000AF786039607B6893F808
:10289C003C30012B01D10223A6E07B68012283F896
:1028AC003C207B68022283F83D207B681B689B6878
:1028BC00FB60FB6823F07703FB60FB6823F47F432A
:1028CC00FB607B681B68FA689A603B681B68402B4E
:1028DC0067D0402B0BD8102B73D0102B02D8002BA9
:1028EC006FD078E0202B6CD0302B6AD073E0702B3B
:1028FC000DD0702B04D8502B33D0602B41D06AE014
:10290C00B3F5805F66D0B3F5005F17D063E07B68EA
:10291C0018683B6899683B685A683B68DB6800F04C
:10292C006EF97B681B689B68FB60FB6843F0770360
:10293C00FB607B681B68FA689A604CE07B681868DF
:10294C003B6899683B685A683B68DB6800F057F94C
:10295C007B681B689A687B681B6842F480429A60AB
:10296C0039E07B6818683B6859683B68DB681A4635
:10297C0000F0CEF87B681B685021184600F025F952
:10298C0029E07B6818683B6859683B68DB681A4625
:10299C0000F0ECF87B681B686021184600F015F914
:1029AC0019E07B6818683B6859683B68DB681A4615
:1029BC0000F0AEF87B681B684021184600F005F962
:1029CC0009E07B681A683B681B681946104600F0E2
:1029DC00FCF800E000BF7B68012283F83D207B6897
:1029EC00002283F83C20002318461037BD4680BDDA
:1029FC0080B483B000AF786000BF0C37BD4680BC9C
:102A0C00704780B483B000AF786000BF0C37BD4610
:102A1C0080BC704780B483B000AF786000BF0C37C7
:102A2C00BD4680BC704780B483B000AF786000BFF7
:102A3C000C37BD4680BC704780B483B000AF786063
:102A4C0000BF0C37BD4680BC7047000080B485B019
:102A5C0000AF786039607B681B68FB607B68294A33
:102A6C0093420BD07B68B3F1804F07D07B68264A2A
:102A7C00934203D07B68254A934208D1FB6823F02C
:102A8C007003FB603B685B68FA681343FB607B6810
:102A9C001C4A93420BD07B68B3F1804F07D07B6804
:102AAC00194A934203D07B68184A934208D1FB68B9
:102ABC0023F44073FB603B68DB68FA681343FB60EC
:102ACC00FB6823F080023B685B691343FB607B6807
:102ADC00FA681A603B689A687B68DA623B681A6825
:102AEC007B689A627B68074A934203D13B681A69F8
:102AFC007B681A637B6801225A6100BF1437BD469C
:102B0C0080BC7047002C01400004004000080040CD
:102B1C0080B487B000AFF860B9607A60FB681B6A5C
:102B2C007B61FB681B6A23F00102FB681A62FB687D
:102B3C009B693B613B6923F0F0033B617B681B01A4
:102B4C003A6913433B617B6923F00A037B617A6921
:102B5C00BB6813437B61FB683A699A61FB687A69CD
:102B6C001A6200BF1C37BD4680BC704780B487B06A
:102B7C0000AFF860B9607A60FB681B6A23F0100242
:102B8C00FB681A62FB689B697B61FB681B6A3B6193
:102B9C007B6923F470437B617B681B037A69134365
:102BAC007B613B6923F0A0033B61BB681B013A6965
:102BBC0013433B61FB687A699A61FB683A691A6254
:102BCC0000BF1C37BD4680BC704780B485B000AFD9
:102BDC00786039607B689B68FB60FB6823F070034E
:102BEC00FB603A68FB68134343F00703FB607B68A8
:102BFC00FA689A6000BF1437BD4680BC704780B439
:102C0C0087B000AFF860B9607A603B60FB689B6886
:102C1C007B617B6923F47F437B613B681A027B6891
:102C2C001A43BB6813437A6913437B61FB687A6967
:102C3C009A6000BF1C37BD4680BC704780B485B01D
:102C4C0000AF786039607B6893F83C30012B01D180
:102C5C00022346E07B68012283F83C207B68022239
:102C6C0083F83D207B681B685B68FB607B681B6896
:102C7C009B68BB60FB6823F07003FB603B681B68C0
:102C8C00FA681343FB607B681B68FA685A607B68C0
:102C9C001B68164A93420ED07B681B68B3F1804FB9
:102CAC0009D07B681B68124A934204D07B681B686E
:102CBC00104A93420CD1BB6823F08003BB603B6885
:102CCC005B68BA681343BB607B681B68BA689A6020
:102CDC007B68012283F83D207B68002283F83C202E
:102CEC00002318461437BD4680BC7047002C0140A9
:102CFC00000400400008004080B483B000AF78604E
:102D0C0000BF0C37BD4680BC704780B483B000AFA9
:102D1C00786000BF0C37BD4680BC704780B582B070
:102D2C0000AF78607B68002B01D101233FE07B680A
:102D3C0093F83930DBB2002B06D17B68002283F884
:102D4C0038207868FDF71EFC7B68242283F8392034
:102D5C007B681B68DA687B681B6822F40052DA60B7
:102D6C00786800F039FB7B681B681A697B681B6804
:102D7C0022F490421A617B681B685A697B681B6855
:102D8C0022F02A025A617B681B68DA687B681B6830
:102D9C0042F40052DA607B680022DA637B682022FE
:102DAC0083F839207B68202283F83A2000231846C8
:102DBC000837BD4680BD80B58AB002AFF860B960F7
:102DCC003B601346FB8000237B61FB6893F8393032
:102DDC00DBB2202B7CD1BB68002B02D0FB88002BF4
:102DEC0001D1012375E0FB6893F83830012B01D138
:102DFC0002236EE0FB68012283F83820FB68002276
:102E0C00DA63FB68212283F83920FDF7D1FC786165
:102E1C00FB68FA889A84FB68FA88DA84FB689B68FA
:102E2C00B3F5805F08D1FB681B69002B04D100232C
:102E3C00FB61BB68BB6103E0BB68FB610023BB614A
:102E4C00FB68002283F838202AE03B6800937B69FA
:102E5C0000228021F86800F05CF90346002B01D0B9
:102E6C00032336E0FB69002B0BD1BB691B881A4688
:102E7C00FB681B68C2F308025A60BB690233BB6172
:102E8C0007E0FB691A78FB681B685A60FB69013321
:102E9C00FB61FB68DB8C9BB2013B9AB2FB68DA846A
:102EAC00FB68DB8C9BB2002BCFD13B6800937B691A
:102EBC0000224021F86800F02CF90346002B01D0C9
:102ECC00032306E0FB68202283F83920002300E06E
:102EDC00022318462037BD4680BD000080B588B05F
:102EEC0000AF78607B681B681B68FB617B681B68A4
:102EFC00DB68BB617B681B685B697B6100233B61A2
:102F0C000023FB60FB6903F00F033B613B69002B63
:102F1C000DD1FB6903F02003002B08D0BB6903F033
:102F2C002003002B03D0786800F0D5F9D1E03B6981
:102F3C00002B00F0B0807B6903F00103002B05D15E
:102F4C00BB6903F49073002B00F0A580FB6903F0C0
:102F5C000103002B0AD0BB6903F48073002B05D04E
:102F6C007B68DB6B43F001027B68DA63FB6903F07F
:102F7C000403002B0AD07B6903F00103002B05D05E
:102F8C007B68DB6B43F002027B68DA63FB6903F05E
:102F9C000203002B0AD07B6903F00103002B05D040
:102FAC007B68DB6B43F004027B68DA63FB6903F03C
:102FBC000803002B0FD0BB6903F02003002B04D1B6
:102FCC007B6903F00103002B05D07B68DB6B43F0BE
:102FDC0008027B68DA637B68DB6B002B78D0FB69BB
:102FEC0003F02003002B07D0BB6903F02003002B58
:102FFC0002D0786800F06FF97B681B685B6903F09E
:10300C004003002B14BF01230023DBB2FB607B6861
:10301C00DB6B03F00803002B02D1FB68002B31D0D3
:10302C00786800F0C0F87B681B685B6903F04003AC
:10303C00002B23D07B681B685A697B681B6822F0C5
:10304C0040025A617B685B6B002B13D07B685B6B17
:10305C00214A5A637B685B6B1846FDF7E3FC034619
:10306C00002B16D07B685B6B5B6B7A68526B1046DF
:10307C0098470EE0786800F043F80AE0786800F0B2
:10308C003FF806E0786800F03BF87B680022DA63D2
:10309C001EE000BF1CE0FB6903F08003002B08D08E
:1030AC00BB6903F08003002B03D0786800F0ACF808
:1030BC000FE0FB6903F04003002B0AD0BB6903F05F
:1030CC004003002B05D0786800F0EDF800BF00E05D
:1030DC0000BF2037BD4680BDED31000880B483B001
:1030EC0000AF786000BF0C37BD4680BC704780B421
:1030FC0083B000AF786000BF0C37BD4680BC704712
:10310C0080B483B000AF786000BF0C37BD4680BC84
:10311C00704780B584B000AFF860B9603B6013466F
:10312C00FB712CE0BB69B3F1FF3F28D0BB69002BCE
:10313C0007D0FDF73DFB02463B68D31ABA699A42A9
:10314C001DD2FB681B68DA68FB681B6822F4D0721E
:10315C00DA60FB681B685A69FB681B6822F0010285
:10316C005A61FB68202283F83920FB68202283F8FF
:10317C003A20FB68002283F8382003230FE0FB6819
:10318C001B681A68BB681340BA689A420CBF0123CB
:10319C000023DBB21A46FB799A42C3D000231846AF
:1031AC001037BD4680BD80B483B000AF78607B68BB
:1031BC001B68DA687B681B6822F49072DA607B68A3
:1031CC001B685A697B681B6822F001025A617B6894
:1031DC00202283F83A2000BF0C37BD4680BC7047D4
:1031EC0080B584B000AF78607B685B6AFB60FB687D
:1031FC000022DA85FB680022DA84F868FFF780FF8A
:10320C0000BF1037BD4680BD80B485B000AF78607C
:10321C007B6893F83930DBB2212B3ED17B689B68FD
:10322C00B3F5805F14D17B681B69002B10D17B68D0
:10323C001B6AFB60FB681B881A467B681B68C2F321
:10324C0008025A607B681B6A9A1C7B681A6208E049
:10325C007B681B6A591C7A6811621A787B681B6838
:10326C005A607B68DB8C9BB2013B9BB27A68194637
:10327C00D184002B0FD17B681B68DA687B681B68D4
:10328C0022F08002DA607B681B68DA687B681B6856
:10329C0042F04002DA60002300E0022318461437A3
:1032AC00BD4680BC704780B582B000AF78607B684B
:1032BC001B68DA687B681B6822F04002DA607B6866
:1032CC00202283F839207868FFF708FF002318467E
:1032DC000837BD4680BD80B584B000AF78607B6890
:1032EC0093F83A30DBB2222B70D17B689B68B3F534
:1032FC00805F17D17B681B69002B13D10023FB6007
:10330C007B689B6ABB607B681B685B689BB2C3F382
:10331C0008039AB2BB681A807B689B6A9A1C7B680C
:10332C009A6226E07B689B6AFB600023BB607B682B
:10333C009B68B3F5805F07D07B689B68002B0AD134
:10334C007B681B69002B06D17B681B685B68DAB253
:10335C00FB681A7008E07B681B685B68DBB203F0E3
:10336C007F03DAB2FB681A707B689B6A5A1C7B6815
:10337C009A627B68DB8D9BB2013B9BB27A681946E3
:10338C00D185002B20D17B681B68DA687B681B68B1
:10339C0022F02002DA607B681B68DA687B681B68A5
:1033AC0022F48072DA607B681B685A697B681B6840
:1033BC0022F001025A617B68202283F83A20786857
:1033CC00FFF795FE002302E0002300E002231846DD
:1033DC001037BD4680BD000080B584B000AF78606A
:1033EC007B681B681B6923F440517B68DA687B6837
:1033FC001B680A431A617B689A687B681B691A43CD
:10340C007B685B691343BB607B681B68DB6823F4D8
:10341C00B05323F00C037A681268B9680B43D3607D
:10342C007B681B685B6923F440717B689A697B68D5
:10343C001B680A435A617B681B682C4A934203D170
:10344C00FFF796F8F86002E0FFF77EF8F860FA688C
:10345C0013469B0013449A001A447B685B689B00DC
:10346C00B2FBF3F3224AA2FB03235B091901FA68AE
:10347C0013469B0013449A001A447B685B689B00BC
:10348C00B2FBF3F21A4BA3FB02035B09642000FBB3
:10349C0003F3D31A1B013233154AA2FB03235B0936
:1034AC0003F0F0031944FA6813469B0013449A0086
:1034BC001A447B685B689B00B2FBF3F20C4BA3FBDA
:1034CC0002035B09642000FB03F3D31A1B013233A4
:1034DC00074AA2FB03235B0903F00F027B681B68FE
:1034EC000A449A6000BF1037BD4680BD00380140C9
:1034FC001F85EB5180B582B000AF00233B710023D8
:10350C007B712523BB71144B1B78144AA2FB03233C
:10351C00DB08DBB23033DBB23B710F4B1A780F4B4D
:10352C00A3FB0213D9080B469B000B445B00D31A78
:10353C00DBB23033DBB27B71FF230A220849094826
:10354C00FFF739FC391DFF2303220648FFF733FC34
:10355C0000BF0837BD4680BD54000020CDCCCCCC7C
:10356C000C000020B000002080B582B000AF2D4AC6
:10357C003B4692E8030083E803002B4B9B782B4AD5
:10358C00A2FB0323DB08DBB23033DBB23B70264BF0
:10359C009A78264BA3FB0213D9080B469B000B44CD
:1035AC005B00D31ADBB23033DBB27B701E4BDB78A3
:1035BC001F4AA2FB03235B09DBB23033DBB2FB7087
:1035CC00194BDB781A4AA2FB03125209642101FB46
:1035DC0002F29B1ADBB2154AA2FB0323DB08DBB217
:1035EC003033DBB23B71104BDA78104BA3FB021378
:1035FC00D9080B469B000B445B00D31ADBB230336B
:10360C00DBB27B71FF230D220A490B48FFF7D3FB7A
:10361C003946FF2308220848FFF7CDFB00BF0837C7
:10362C00BD4680BDCC3D000854000020CDCCCCCC98
:10363C001F85EB5118000020B000002080B582B02F
:10364C0000AF394A3B4692E80300186004331980F6
:10365C0002330A0C1A70354B1B88354AA2FB032324
:10366C005B0B9BB2DBB23033DBB23B702F4B1B8856
:10367C002F4AA2FB0312520B42F2107101FB02F211
:10368C009B1A9BB22B4AA2FB03239B099BB2DBB276
:10369C003033DBB27B70254B1B88264AA2FB03120E
:1036AC0092094FF47A7101FB02F29B1A9BB2224AE7
:1036BC00A2FB03235B099BB2DBB23033DBB2BB70E2
:1036CC001A4B1B881C4AA2FB03125209642101FBF2
:1036DC0002F29B1A9BB2194AA2FB0323DB089BB292
:1036EC00DBB23033DBB2FB70104B1A88134BA3FBED
:1036FC000213D9080B469B000B445B00D31A9BB2F8
:10370C00DBB23033DBB23B71FF230B220C490D488B
:10371C00FFF751FB3946FF2307220A48FFF74BFB03
:10372C0000BF0837BD4680BDD43D00085A000020BC
:10373C005917B7D1D34D62101F85EB51CDCCCCCCE2
:10374C0028000020B000002080B500AFFFF7D2FEAB
:10375C00FF2301220D490E48FFF72DFBFFF704FF55
:10376C00FF23012209490A48FFF725FBFFF766FFF3
:10377C00FF23012205490648FFF71DFBFF23012209
:10378C0004490348FFF717FB00BF80BD340000203D
:10379C00B00000203300002080B584B000AF78600A
:1037AC00FEF7C8FE0246094BA3FB02231A0D7B68E9
:1037BC0002FB03F3FB6000BFFB685A1EFA60002B90
:1037CC00FAD100BF1037BD4680BD00BF83DE1B435E
:1037DC0080B582B000AF0023FB710023BB710023C6
:1037EC007B7134E00123BB7100BF4FF400611C48B6
:1037FC00FDF7E8FA0346002B04D1BB795A1CBA71C9
:10380C00002BF2D11C20FFF7C7FFFB795B00FB718B
:10381C004FF400611248FDF7D5FA0346002B03D094
:10382C00FB7943F00103FB710123BB7100BF4FF423
:10383C0000610B48FDF7C6FA0346002B04D0BB7998
:10384C005A1CBA71002BF2D17B7901337B717B79D5
:10385C00072BC7D9FB7918460837BD4680BD00BF7A
:10386C000008014090B583B000AF01224FF4006115
:10387C002948FDF7BEFA1420FFF78EFF00224FF403
:10388C0000612548FDF7B5FA1420FCF79BFF0122D7
:10389C004FF400612048FDF7ACFA1420FFF77CFFD1
:1038AC004FF400611C48FDF78DFA0346002B2FD115
:1038BC001A4B01221A7000BF4FF400611648FDF735
:1038CC0081FA0346002B07D1144B1B785A1CD1B23A
:1038DC00124A1170002BEFD1104B01221A7000BF4D
:1038EC004FF400610C48FDF76DFA0346002BF7D13D
:1038FC000023FB7109E0FC79FFF76AFF03461A46C7
:10390C00074B1A55FB790133FB71FB79042BF2D968
:10391C0000BF0C37BD4690BD0008014035000020AB
:10392C005400002080B584B002AF00233B7100230B
:10393C007B711023FB70FA1CFF230093012346219B
:10394C000D48FDF7A7FBC820FCF73CFF3A1DFF23F1
:10395C000093022347210848FDF79AFC3B791B0290
:10396C001AB27B791BB213431BB29AB2034B1A8067
:10397C0000BF0837BD4680BD5C0000205A00002007
:10398C0080B582B000AF0346FB71FB7903F00103F5
:10399C00DBB21A464FF400412948FDF72AFAFB79AD
:1039AC005B08DBB203F00103DBB21A4608212548A1
:1039BC00FDF71FFAFB799B08DBB203F00103DBB2C6
:1039CC001A4610211F48FDF714FAFB79DB08DBB20D
:1039DC0003F00103DBB21A4620211A48FDF709FA5D
:1039EC00FB791B09DBB203F00103DBB21A46402161
:1039FC001448FDF7FEF9FB795B09DBB203F0010318
:103A0C00DBB21A4680210F48FDF7F3F9FB799B09CD
:103A1C00DBB203F00103DBB21A464FF480710948A4
:103A2C00FDF7E7F9FB79DB09DBB21A464FF40071BD
:103A3C000448FDF7DEF900BF0837BD4680BD00BF66
:103A4C0000080140000C014080B582B000AF034675
:103A5C00FB71002280211248FDF7CBF90022402196
:103A6C000F48FDF7C6F9002220210D48FDF7C1F9DA
:103A7C00FB791846FFF784FF0120FCF7A3FE012217
:103A8C0080210748FDF7B5F90120FCF79BFE0022C9
:103A9C0080210348FDF7ADF900BF0837BD4680BD56
:103AAC000008014080B582B000AF0346FB710022D4
:103ABC0080211248FDF79DF9012240210F48FDF7A6
:103ACC0098F9002220210D48FDF793F9FB7918464F
:103ADC00FFF756FF0120FCF775FE012280210748F5
:103AEC00FDF787F90120FCF76DFE002280210348C9
:103AFC00FDF77FF900BF0837BD4680BD00080140C7
:103B0C0080B500AF3820FFF79FFF0C20FFF79CFF1C
:103B1C000620FFF799FF0120FFF796FF8020FFF7A3
:103B2C0093FF00BF80BD000080B582B000AF78600D
:103B3C007B681B78424AA2FB0323DB08DBB23033E1
:103B4C00DBB21846FFF7AEFF7B681A783C4BA3FB41
:103B5C000213D9080B469B000B445B00D31ADBB253
:103B6C003033DBB21846FFF79DFF2520FFF79AFF95
:103B7C002020FFF797FF7B6802331B78304AA2FBAB
:103B8C000323DB08DBB23033DBB21846FFF78AFFC6
:103B9C007B6802331A782A4BA3FB0213D9080B4615
:103BAC009B000B445B00D31ADBB23033DBB21846FC
:103BBC00FFF778FF2E20FFF775FF7B6803331B7828
:103BCC00204AA2FB03235B09DBB23033DBB218467D
:103BDC00FFF768FF7B6803331B781A4AA2FB0312BA
:103BEC005209642101FB02F29B1ADBB2144AA2FBBC
:103BFC000323DB08DBB23033DBB21846FFF752FF8E
:103C0C007B6803331A780E4BA3FB0213D9080B46BF
:103C1C009B000B445B00D31ADBB23033DBB218468B
:103C2C00FFF740FFDF20FFF73DFF4320FFF73AFF90
:103C3C004FF47A70FCF7C6FD00BF0837BD4680BD57
:103C4C00CDCCCCCC1F85EB5180B582B000AF0346F8
:103C5C00FB80FB88354AA2FB03235B0B9BB2DBB2D8
:103C6C003033DBB21846FFF71DFFFB882F4AA2FB4F
:103C7C000312520B42F2107101FB02F29B1A9BB21F
:103C8C002B4AA2FB03239B099BB2DBB23033DBB282
:103C9C001846FFF707FFFB88254AA2FB031292097F
:103CAC004FF47A7101FB02F29B1A9BB2214AA2FBE0
:103CBC0003235B099BB2DBB23033DBB21846FFF750
:103CCC00F1FEFB881B4AA2FB03125209642101FB83
:103CDC0002F29B1A9BB2184AA2FB0323DB089BB28D
:103CEC00DBB23033DBB21846FFF7DCFEFA88124B3E
:103CFC00A3FB0213D9080B469B000B445B00D31AA1
:103D0C009BB2DBB23033DBB21846FFF7CBFE4C2054
:103D1C00FFF7C8FE7820FFF7C5FE4FF47A70FCF76A
:103D2C0051FD00BF0837BD4680BD00BF5917B7D144
:103D3C00D34D62101F85EB51CDCCCCCC70B500258A
:103D4C000C4E0D4CA41BA410A54209D100F022F876
:103D5C0000250A4E0A4CA41BA410A54205D170BD27
:103D6C0056F8253098470135EEE756F82530984738
:103D7C000135F2E7F43D0008F43D0008F43D00087D
:103D8C00F83D000803460244934200D1704703F803
:103D9C00011BF9E7F8B500BFF8BC08BC9E4670479C
:0C3DAC00F8B500BFF8BC08BC9E4670478C
:103DB80002030405060708090A0B0C0D0E0F101064
:103DC8000102000000002E00000060430000000017
:103DD800004C78000000000000000000010203040D
:0C3DE800060708090000000001020304A7
:043DF4003101000891
:043DF8000D010008B1
:103DFC000024F400100000000100000068756D69DB
:103E0C00646974793A00000074656D706572617450
:103E1C007572653A000000006C756D696E616E63B9
:083E2C00653A000A20010000C4
:04000005080006C128
:00000001FF
