:020000040800F2
:100000000050002031090008B9080008C5080008A0
:10001000CB080008D1080008D7080008000000003D
:10002000000000000000000000000000115D00085A
:10003000DD08000800000000E15E0008295F0008FC
:100040007909000879090008790900087909000888
:100050007909000879090008790900087909000878
:100060007909000879090008790900087909000868
:100070007909000879090008790900087909000858
:100080007909000879090008790900087909000848
:100090007909000879090008790900087909000838
:1000A00079090008E90800087909000879090008B9
:1000B000FD08000879090008790900087909000895
:1000C0007909000879090008790900087909000808
:1000D0007909000811090008790900087909000860
:1000E0007909000879090008790900080000000072
:1000F0000000000000000000000000000000000000
:0C01000000000000000000005FF808F1A3
:1001100010B5054C237833B9044B13B10448AFF341
:1001200000800123237010BD140000200000000097
:100130004470000808B5034B1BB103490348AFF3F3
:10014000008008BD00000000180000204470000876
:1001500080B582B000AF00F011FC00F06DF800F047
:1001600055F900F0AFF800F0DBF800F025F906F0E3
:1001700001FE204A3B4692E80300186004331980D0
:100180003B4693E8030006F021F903F063FA1A4AAC
:100190000821012003F09CFB0246184B1A60184A04
:1001A0000221012003F094FB0246164B1A60164A06
:1001B0000021164803F0B4FA0246154B1A60154A9E
:1001C0000021154803F0ACFA0246144B1A60144A99
:1001D0000021144803F0A4FA0246134B1A60134A94
:1001E0000021134803F09CFA0246124B1A6003F0F8
:1001F00063FAFEE7C07000088471000868190020E7
:100200009C710008541A0020F4700008F1040008E2
:100210006419002018710008010500084C1A00201C
:100220003C71000875050008501A00206071000834
:10023000C9050008C019002080B590B000AF07F1D3
:10024000180328220021184606F0F3FE3B1D002269
:100250001A605A609A60DA601A610123BB614FF438
:100260008033FB6100233B620123BB6202237B637B
:100270004FF48033BB634FF4E013FB6307F11803C3
:10028000184601F09DFE0346002B01D000F0CEF988
:100290000F237B600223BB600023FB604FF480636D
:1002A0003B6100237B613B1D0221184602F008F9E7
:1002B0000346002B01D000F0B9F900BF4037BD461E
:1002C00080BD000080B500AF124B134A1A60114B7D
:1002D000124A5A600F4B00229A600E4B0022DA60DD
:1002E0000C4B4FF480421A610A4B00225A61094BB1
:1002F00000229A61074B0022DA61064B00221A6243
:10030000044800F06FFE0346002B01D000F08EF988
:1003100000BF80BD6C19002000580040A08601007D
:1003200080B586B000AF07F1080300221A605A605A
:100330009A60DA603B4600221A605A601D4B4FF00B
:1003400080421A601B4B00225A601A4B00229A60AE
:10035000184B4FF6FF72DA60164B00221A61154BEC
:1003600000229A61134802F077FA0346002B01D06D
:1003700000F05CF94FF48053BB6007F108031946A5
:100380000C4802F013FC0346002B01D000F04EF99C
:1003900000233B6000237B603B461946054802F082
:1003A000D9FD0346002B01D000F040F900BF1837FB
:1003B000BD4680BD041A002080B500AF114B124A23
:1003C0001A60104B4FF416525A600E4B00229A607E
:1003D0000C4B0022DA600B4B00221A61094B0C22F5
:1003E0005A61084B00229A61064B0022DA610548E7
:1003F00002F020FE0346002B01D000F017F900BFE9
:1004000080BD00BFC41900200038014080B588B00D
:1004100000AF07F1100300221A605A609A60DA6098
:10042000304B9B692F4A43F0200393612D4B9B690E
:1004300003F02003FB60FB682A4B9B69294A43F0C9
:1004400004039361274B9B6903F00403BB60BB6803
:10045000244B9B69234A43F008039361214B9B691A
:1004600003F008037B607B68002248F6E0011E4829
:1004700000F09FFD00224FF47E711C4800F099FDB2
:1004800048F2E0033B6101237B610023BB6102234F
:10049000FB6107F110031946134800F019FC4FF4F3
:1004A00000633B6111237B610023BB610223FB617D
:1004B00007F1100319460C4800F00AFC4FF47E7354
:1004C0003B6101237B610023BB610223FB6107F1D8
:1004D00010031946054800F0FBFB00BF2037BD465E
:1004E00080BD00BF0010024000080140000C014028
:1004F00080B582B000AF7860012003F0BBF9FBE764
:1005000080B586B000AF786000233B6100237B613B
:1005100000233B7300237B73802006F0CFFB134B3B
:10052000186807F11001FF23002203F0CBFA3B69A2
:10053000184606F065FCC02006F0C0FB7B69184633
:1005400006F0BAFC0A4B186807F10C01FF230022E1
:1005500003F0B8FA882006F0B1FB07F10C03184647
:1005600006F01CFC012003F085F9D5E7681900208E
:10057000541A002080B584B000AF78600023BB60BF
:100580000023FB6005F092FF06F076F805F060FFAF
:100590000346184606F002F80346BB6006F03EF834
:1005A0000346184606F0B2F90346FB60054B18688F
:1005B00007F10801FF23002203F010FA012003F0E5
:1005C00059F9DFE76819002080B584B000AF786082
:1005D00000233B7300237B7306F0ACFA084B1B78B7
:1005E0003B73074B5B787B73064B186807F10C0174
:1005F000FF23002203F0F2F9012003F03BF9EBE7BF
:1006000038190020541A002080B582B000AF7860FD
:100610007B681B68044A934201D100F0C5F900BF12
:100620000837BD4680BD00BF002C014080B400AF3C
:1006300000BFBD4680BC704780B485B000AF154B8D
:100640009B69144A43F001039361124B9B6903F0C9
:100650000103BB60BB680F4BDB690E4A43F080535C
:10066000D3610C4BDB6903F080537B607B680A4BE2
:100670005B68FB60FB6823F0E063FB60FB6843F0B2
:100680000073FB60044AFB68536000BF1437BD462B
:1006900080BC7047001002400000014080B588B067
:1006A00000AF786007F1100300221A605A609A6068
:1006B000DA607B681B68164A934224D1154B9B690C
:1006C000144A43F008039361124B9B6903F008033B
:1006D000FB60FB684FF440633B6112237B610323A3
:1006E000FB6107F1100319460B4800F0F1FA094BC2
:1006F000DB69084A43F48003D361064BDB6903F4EA
:100700008003BB60BB6800BF2037BD4680BD00BF13
:100710000058004000100240000C014080B584B039
:1007200000AF78607B681B68B3F1804F13D10C4B2E
:10073000DB690B4A43F00103D361094BDB6903F02A
:100740000103FB60FB68002200211C2000F01FFA5F
:100750001C2000F038FA00BF1037BD4680BD00BF36
:100760000010024080B588B000AF786007F1100338
:1007700000221A605A609A60DA607B681B68204A1F
:10078000934239D11F4B9B691E4A43F480439361C6
:100790001C4B9B6903F48043FB60FB68194B9B690E
:1007A000184A43F004039361164B9B6903F004035A
:1007B000BB60BB684FF400733B6102237B61032382
:1007C000FB6107F1100319460F4800F081FA4FF45E
:1007D00080633B6100237B610023BB6107F1100351
:1007E0001946094800F074FA00220021252000F083
:1007F000CEF9252000F0E7F900BF2037BD4680BDC7
:1008000000380140001002400008014080B58CB063
:1008100000AF78600023FB620023BB62002279688E
:10082000192000F0B4F9192000F0CDF91E4B9B6996
:100830001D4A43F4006393611B4B9B6903F40063FF
:10084000FB60FB6807F1100207F11403114618461C
:1008500001F0B4FF01F09EFFF862FB6A134AA2FBAD
:1008600003239B0C013BBB62114B124A1A60104BD5
:1008700040F2E732DA600E4ABB6A53600C4B00224A
:100880001A610B4B00229A60094801F0E5FF03460C
:10089000002B04D1064802F02FF8034600E00123A4
:1008A00018463037BD4680BD0010024083DE1B4332
:1008B000581A0020002C014080B400AF00BFBD4694
:1008C00080BC704780B400AFFEE780B400AFFEE7A5
:1008D00080B400AFFEE780B400AFFEE780B400AFA5
:1008E00000BFBD4680BC704780B500AF024802F033
:1008F00055F800BF80BD00BF581A002080B500AF7A
:10090000024802F04BF800BF80BD00BF041A00206F
:1009100080B500AF024802F0DBFB00BF80BD00BF26
:10092000C419002080B400AF00BFBD4680BC704732
:10093000002103E00B4B5B58435004310A480B4B3A
:1009400042189A42F6D30A4A02E0002342F8043BD6
:10095000084B9A42F9D3FFF7E5FF06F03BFBFFF7A0
:10096000F7FB7047D471000800000020140000203D
:1009700014000020E81A0020FEE7000080B500AF58
:10098000084B1B68074A43F010031360032000F074
:10099000F3F80020FFF73AFFFFF74EFE002318465A
:1009A00080BD00BF0020024080B400AF054B1B7823
:1009B0001A46054B1B681344034A136000BFBD462B
:1009C00080BC704708000020A01A002080B400AF4F
:1009D000024B1B681846BD4680BC7047A01A002019
:1009E00080B584B000AF7860FFF7F0FFB8607B6837
:1009F000FB60FB68B3F1FF3F05D0094B1B781A463B
:100A0000FB681344FB6000BFFFF7E0FF0246BB68D2
:100A1000D31AFA689A42F7D800BF1037BD4680BD96
:100A20000800002080B485B000AF78607B6803F0D8
:100A30000703FB600C4BDB68BB60BA684FF6FF0333
:100A40001340BB60FB681A02BB68134343F0BF63EB
:100A500043F40033BB60044ABB68D36000BF143763
:100A6000BD4680BC704700BF00ED00E080B400AF21
:100A7000044BDB681B0A03F007031846BD4680BC25
:100A8000704700BF00ED00E080B483B000AF0346C4
:100A9000FB7197F90730002B0BDBFB7903F01F028A
:100AA000064997F907305B09012000FA02F241F884
:100AB000232000BF0C37BD4680BC704700E100E03A
:100AC00080B483B000AF03463960FB7197F90730FB
:100AD000002B0ADB3B68DAB20C4997F907301201A8
:100AE000D2B20B4483F800230AE03B68DAB208492B
:100AF000FB7903F00F03043B1201D2B20B441A76C8
:100B000000BF0C37BD4680BC704700BF00E100E06D
:100B100000ED00E080B489B000AFF860B9607A60A1
:100B2000FB6803F00703FB61FB69C3F10703042BB8
:100B300028BF0423BB61FB690433062B02D9FB6980
:100B4000033B00E000237B614FF0FF32BB6902FAF8
:100B500003F3DA43BB681A407B699A404FF0FF31D8
:100B60007B6901FA03F3D9437B680B4013431846B2
:100B70002437BD4680BC704780B582B000AF786036
:100B80007868FFF74FFF00BF0837BD4680BD80B5CE
:100B900086B000AF0346B9607A60FB7300237B61C7
:100BA000FFF764FF78617A68B9687869FFF7B2FF88
:100BB000024697F90F3011461846FFF781FF00BF34
:100BC0001837BD4680BD80B582B000AF0346FB71CB
:100BD00097F907301846FFF757FF00BF0837BD46A3
:100BE00080BD000080B584B000AF78600023FB7347
:100BF0007B6893F82130022B05D07B6804229A632E
:100C00000123FB7351E07B681B681A687B681B68D3
:100C100022F00E021A607B681B681A687B681B68EA
:100C200022F001021A607B681B68224A934229D095
:100C30007B681B68204A934222D07B681B681F4A4E
:100C400093421AD07B681B681D4A934212D07B687E
:100C50001B681C4A93420AD07B681B681A4A93425D
:100C600002D14FF480130EE04FF080730BE04FF48D
:100C7000803308E04FF4805305E04FF4807302E0C6
:100C8000102300E00123114A53607B68012283F89E
:100C900021207B68002283F820207B685B6B002B7F
:100CA00003D07B685B6B78689847FB7B18461037EE
:100CB000BD4680BD080002401C00024030000240DA
:100CC00044000240580002406C0002400000024014
:100CD00080B48BB000AF7860396000237B62002362
:100CE0003B6227E101227B6A02FA03F3FB613B6866
:100CF0001B68FA691340BB61BA69FB699A4240F00C
:100D000016813B685B68122B34D0122B0DD8022B56
:100D10002BD0022B04D8002B31D0012B1CD048E063
:100D2000032B43D0112B1BD043E0894A934226D09A
:100D3000874A934206D8874A934220D0864A9342F4
:100D40001DD036E0854A934219D0854A934216D089
:100D5000844A934213D02CE03B68DB683B6228E076
:100D60003B68DB6804333B6223E03B68DB680833A5
:100D70003B621EE03B68DB680C333B6219E03B687A
:100D80009B68002B02D104233B6212E03B689B6806
:100D9000012B05D108233B627B68FA691A6108E0E0
:100DA00008233B627B68FA695A6102E000233B62D8
:100DB00000BFBB69FF2B01D87B6801E07B6804336F
:100DC0007B61BB69FF2B02D87B6A9B0002E07B6AD8
:100DD000083B9B003B617B691A680F213B6901FA64
:100DE00003F3DB431A40396A3B6901FA03F31A4300
:100DF0007B691A603B685B6803F08053002B00F04E
:100E00009680594B9B69584A43F001039361564BB6
:100E10009B6903F00103BB60BB68544A7B6A9B0873
:100E2000023352F82330FB607B6A03F003039B001C
:100E30000F2202FA03F3DB43FA681340FB607B687E
:100E40004B4A934213D07B684A4A93420DD07B6849
:100E5000494A934207D07B68484A934201D1032311
:100E600006E0042304E0022302E0012300E0002363
:100E70007A6A02F0030292009340FA681343FB601F
:100E80003A497B6A9B080233FA6841F823203B68A1
:100E90005B6803F48033002B06D0394B1A6838495D
:100EA000BB6913430B6006E0354B1A68BB69DB4333
:100EB000334913400B603B685B6803F40033002B3D
:100EC00006D02F4B5A682E49BB6913434B6006E08E
:100ED0002B4B5A68BB69DB43294913404B603B6885
:100EE0005B6803F48013002B06D0254B9A682449D5
:100EF000BB6913438B6006E0214B9A68BB69DB43F7
:100F00001F4913408B603B685B6803F40013002BA0
:100F100006D01B4BDA681A49BB691343CB6006E065
:100F2000174BDA68BB69DB4315491340CB607B6A1A
:100F300001337B623B681A687B6A22FA03F3002B59
:100F40007FF4D0AE00BF2C37BD4680BC704700BFD9
:100F500000002110000011100000121000003110DC
:100F6000000032100000221000100240000001407A
:100F700000080140000C0140001001400014014035
:100F80000004014080B485B000AF78600B467B80E0
:100F90007B689A687B881340002B02D00123FB7387
:100FA00001E00023FB73FB7B18461437BD4680BC71
:100FB000704780B483B000AF78600B467B801346E7
:100FC0007B707B78002B03D07A887B681A6103E002
:100FD0007B881A047B681A6100BF0C37BD4680BC51
:100FE0007047000080B584B000AF78607B68002B4C
:100FF00001D101231FE17B6893F83D30DBB2002B68
:1010000006D17B68002283F83C207868FFF746FB16
:101010007B68242283F83D207B681B681A687B6804
:101020001B6822F001021A607B681B681A687B68E3
:101030001B6842F400421A607B681B681A687B6870
:101040001B6822F400421A6001F090FBF8607B6894
:101050005B687B4A934207D8FB687A4A934294BF05
:1010600001230023DBB206E0FB68774A934294BF7A
:1010700001230023DBB2002B01D00123DBE0FB685E
:10108000724AA2FB03239B0CBB607B681B685B68F6
:1010900023F03F017B681B68BA680A435A607B688B
:1010A0001B681B6A23F03F017B685B68644A9342BC
:1010B00002D8BB68013309E0BB684FF4967202FBAB
:1010C00003F3634AA2FB03239B0901337A68126886
:1010D0000B4313627B681B68DB6923F44F4222F0E9
:1010E000FF027B685B6856498B420DD8FB68591E2E
:1010F0007B685B685B00B1FBF3F30133C3F30B0365
:10110000042B38BF04234FE07B689B68002B11D170
:10111000FB68581E7B6859680B465B000B44B0FBAC
:10112000F3F30133C3F30B03002B0CBF01230023A4
:10113000DBB212E0FB68581E7B6859680B469B00C7
:101140000B4499000B44B0FBF3F30133C3F30B03DF
:10115000002B0CBF01230023DBB2002B01D00123A5
:1011600022E07B689B68002B0ED1FB68581E7B68D1
:1011700059680B465B000B44B0FBF3F30133C3F338
:101180000B0343F400430FE0FB68581E7B6859686B
:101190000B469B000B4499000B44B0FBF3F3013367
:1011A000C3F30B0343F44043796809681343CB61ED
:1011B0007B681B681B6823F0C0017B68DA697B6869
:1011C0001B6A1A437B681B680A431A607B681B68AA
:1011D0009B6823F4034323F0FF037A6811697A685C
:1011E000D26811437A6812680B4393607B681B686E
:1011F000DB6823F0FF017B685A697B689B691A43AF
:101200007B681B680A43DA607B681B681A687B6826
:101210001B6842F001021A607B6800221A647B6836
:10122000202283F83D207B6800221A637B6800221D
:1012300083F83E20002318461037BD4680BD00BF0E
:10124000A08601007F841E00FF083D0083DE1B4353
:10125000D34D621080B588B002AFF86008461146E1
:101260001A4603467B810B463B811346FB80FFF702
:10127000ADFB7861FB6893F83D30DBB2202B40F08A
:10128000D9807B690093192301226D49F86800F029
:10129000BBFC0346002B01D00223CCE0FB6893F893
:1012A0003C30012B01D10223C5E0FB68012283F809
:1012B0003C20FB681B681B6803F00103012B07D06F
:1012C000FB681B681A68FB681B6842F001021A6021
:1012D000FB681B681A68FB681B6822F400621A60CE
:1012E000FB68212283F83D20FB68402283F83E20E2
:1012F000FB6800221A64FB683A6A5A62FB68BA8C7F
:101300005A85FB685B8D9AB2FB681A85FB684D4A6B
:10131000DA62F8883A8979897B690193BB6A00931C
:101320000346F86800F0F2FA0346002B52D001237E
:1013300081E07A69B96AF86800F03CFD0346002B49
:101340000DD0FB681B6C042B07D1FB681B681A6867
:10135000FB681B6842F400721A6001236BE0FB68B3
:101360005B6A1A78FB681B681A61FB685B6A5A1C27
:10137000FB685A62FB681B8D013B9AB2FB681A85B9
:10138000FB685B8D9BB2013B9AB2FB685A85FB6898
:101390001B685B6903F00403042B1BD1FB681B8DE6
:1013A000002B17D0FB685B6A1A78FB681B681A6110
:1013B000FB685B6A5A1CFB685A62FB681B8D013B29
:1013C0009AB2FB681A85FB685B8D9BB2013B9AB2AF
:1013D000FB685A85FB681B8D002BAAD17A69B96A14
:1013E000F86800F028FD0346002B0DD0FB681B6C4D
:1013F000042B07D1FB681B681A68FB681B6842F462
:1014000000721A60012316E0FB681B681A68FB680B
:101410001B6842F400721A60FB68202283F83D20AA
:10142000FB68002283F83E20FB68002283F83C2002
:10143000002300E0022318461837BD4680BD00BFD8
:10144000020010000000FFFF80B58CB002AFF86012
:10145000084611461A4603467B810B463B811346DC
:10146000FB8000233B62FFF7B1FA7862FB6893F8D8
:101470003D30DBB2202B40F03D827B6A0093192384
:1014800001228149F86800F0BFFB0346002B01D020
:10149000022330E2FB6893F83C30012B01D1022398
:1014A00029E2FB68012283F83C20FB681B681B686B
:1014B00003F00103012B07D0FB681B681A68FB6867
:1014C0001B6842F001021A60FB681B681A68FB681F
:1014D0001B6822F400621A60FB68222283F83D2018
:1014E000FB68402283F83E20FB6800221A64FB68F8
:1014F0003A6B5A62FB68BA8E5A85FB685B8D9AB26A
:10150000FB681A85FB68614ADA62F8883A8979894A
:101510007B6A0193BB6B00930346F86800F08CFA7A
:101520000346002B01D00123E5E1FB681B8D002B56
:1015300013D10023FB61FB681B685B69FB61FB68DF
:101540001B689B69FB61FB69FB681B681A68FB6889
:101550001B6842F400721A60B9E1FB681B8D012B15
:101560001DD1FB681B681A68FB681B6822F4806247
:101570001A6072B60023BB61FB681B685B69BB61C4
:10158000FB681B689B69BB61BB69FB681B681A68C9
:10159000FB681B6842F400721A6062B697E1FB6850
:1015A0001B8D022B1DD1FB681B681A68FB681B682A
:1015B00042F400621A6072B600237B61FB681B680C
:1015C0005B697B61FB681B689B697B617B69FB686E
:1015D0001B681A68FB681B6822F480621A6062B696
:1015E00075E1FB681B681A68FB681B6842F480623F
:1015F0001A6000233B61FB681B685B693B61FB6809
:101600001B689B693B613B6961E1FB681B8D032B98
:1016100000F21A81FB681B8D012B23D17A6AB96B0A
:10162000F86800F049FC0346002B01D0012362E179
:10163000FB681B681A69FB685B6AD2B21A70FB68A8
:101640005B6A5A1CFB685A62FB681B8D013B9AB2AD
:10165000FB681A85FB685B8D9BB2013B9AB2FB6805
:101660005A8534E1FB681B8D022B50D17B6A0093B5
:10167000BB6B00220649F86800F0C6FA0346002B4F
:1016800008D0012337E100BF020010000000FFFF77
:101690000400010072B6FB681B681A68FB681B68CF
:1016A00042F400721A60FB681B681A69FB685B6A87
:1016B000D2B21A70FB685B6A5A1CFB685A62FB68FC
:1016C0001B8D013B9AB2FB681A85FB685B8D9BB250
:1016D000013B9AB2FB685A8562B6FB681B681A69BF
:1016E000FB685B6AD2B21A70FB685B6A5A1CFB68C3
:1016F0005A62FB681B8D013B9AB2FB681A85FB6836
:101700005B8D9BB2013B9AB2FB685A85DFE07B6A36
:101710000093BB6B00227A49F86800F075FA034623
:10172000002B01D00123E6E0FB681B681A68FB6808
:101730001B6822F480621A6072B6FB681B681A6923
:10174000FB685B6AD2B21A70FB685B6A5A1CFB6862
:101750005A62FB681B8D013B9AB2FB681A85FB68D5
:101760005B8D9BB2013B9AB2FB685A85654B1B6847
:10177000DB08654AA2FB03231A0A13469B001344A5
:10178000DA00D31A3B623B6A013B3B623B6A002BA7
:1017900017D1FB6800221A63FB68202283F83D20E2
:1017A000FB68002283F83E20FB681B6C43F020029C
:1017B000FB681A6462B6FB68002283F83C200123B0
:1017C00099E0FB681B685B6903F00403042BDAD122
:1017D000FB681B681A68FB681B6842F400721A6099
:1017E000FB681B681A69FB685B6AD2B21A70FB68F7
:1017F0005B6A5A1CFB685A62FB681B8D013B9AB2FC
:10180000FB681A85FB685B8D9BB2013B9AB2FB6853
:101810005A8562B6FB681B681A69FB685B6AD2B2BC
:101820001A70FB685B6A5A1CFB685A62FB681B8D66
:10183000013B9AB2FB681A85FB685B8D9BB2013B4A
:101840009AB2FB685A8542E07A6AB96BF86800F090
:1018500033FB0346002B01D001234CE0FB681B68DF
:101860001A69FB685B6AD2B21A70FB685B6A5A1C21
:10187000FB685A62FB681B8D013B9AB2FB681A85B4
:10188000FB685B8D9BB2013B9AB2FB685A85FB6893
:101890001B685B6903F00403042B18D1FB681B6809
:1018A0001A69FB685B6AD2B21A70FB685B6A5A1CE1
:1018B000FB685A62FB681B8D013B9AB2FB681A8574
:1018C000FB685B8D9BB2013B9AB2FB685A85FB6853
:1018D0001B8D002B7FF499AEFB68202283F83D20FE
:1018E000FB68002283F83E20FB68002283F83C203E
:1018F000002300E0022318462837BD4680BD00BF04
:10190000040001000000002089B5F81480B588B0FB
:1019100002AFF860084611461A4603467B810B4623
:101920003B811346FB80FB681B681A68FB681B68D9
:1019300042F480721A607B6A00933B6A00224FF087
:101940000111F86800F060F90346002B0DD0FB6828
:101950001B681B6803F48073B3F5807F03D1FB68B9
:101960004FF400721A6403235FE07B89DBB21A46EE
:10197000FB681B6802F0FE021A617B6A3A6A2D4915
:10198000F86800F098F90346002B01D001234CE0E1
:1019900000237B61FB681B685B697B61FB681B68DC
:1019A0009B697B617B697A6A396AF86800F002FAA0
:1019B0000346002B0DD0FB681B6C042B07D1FB6882
:1019C0001B681A68FB681B6842F400721A600123E6
:1019D0002BE0FB88012B05D13B89DAB2FB681B6841
:1019E0001A6121E03B891B0A9BB2DAB2FB681B68D3
:1019F0001A617A6A396AF86800F0DCF90346002B4C
:101A00000DD0FB681B6C042B07D1FB681B681A68A0
:101A1000FB681B6842F400721A60012305E03B89F1
:101A2000DAB2FB681B681A61002318461837BD46F6
:101A300080BD00BF0200010080B588B002AFF86031
:101A4000084611461A4603467B810B463B811346E6
:101A5000FB80FB681B681A68FB681B6842F48062A5
:101A60001A60FB681B681A68FB681B6842F4807286
:101A70001A607B6A00933B6A00224FF00111F868FC
:101A800000F0C2F80346002B0DD0FB681B681B68F2
:101A900003F48073B3F5807F03D1FB684FF40072C9
:101AA0001A640323AAE07B89DBB21A46FB681B6831
:101AB00002F0FE021A617B6A3A6A5249F86800F045
:101AC000FAF80346002B01D0012397E000237B6145
:101AD000FB681B685B697B61FB681B689B697B61BA
:101AE0007B697A6A396AF86800F064F90346002B6A
:101AF0000DD0FB681B6C042B07D1FB681B681A68B0
:101B0000FB681B6842F400721A60012376E0FB88D0
:101B1000012B05D13B89DAB2FB681B681A6121E011
:101B20003B891B0A9BB2DAB2FB681B681A617A6AAE
:101B3000396AF86800F03EF90346002B0DD0FB68C7
:101B40001B6C042B07D1FB681B681A68FB681B68B9
:101B500042F400721A60012350E03B89DAB2FB685C
:101B60001B681A617A6A396AF86800F023F903463B
:101B7000002B0DD0FB681B6C042B07D1FB681B6886
:101B80001A68FB681B6842F400721A60012335E092
:101B9000FB681B681A68FB681B6842F480721A6055
:101BA0007B6A00933B6A00224FF00111F86800F055
:101BB0002BF80346002B0DD0FB681B681B6803F451
:101BC0008073B3F5807F03D1FB684FF400721A6411
:101BD000032313E07B89DBB243F00103DAB2FB6835
:101BE0001B681A617B6A3A6A0649F86800F063F874
:101BF0000346002B01D0012300E0002318461837CC
:101C0000BD4680BD0200010080B584B000AFF86021
:101C1000B9603B601346FB7125E03B68B3F1FF3FC1
:101C200021D0FEF7D3FE0246BB69D31A3A689A4226
:101C300002D33B68002B16D1FB6800221A63FB68B5
:101C4000202283F83D20FB68002283F83E20FB68B9
:101C50001B6C43F02002FB681A64FB68002283F8C7
:101C60003C20012323E0BB681B0CDBB2012B0DD110
:101C7000FB681B685B69DA43BB6813409BB2002BAF
:101C80000CBF01230023DBB21A460CE0FB681B6883
:101C90009B69DA43BB6813409BB2002B0CBF012346
:101CA0000023DBB21A46FB799A42B6D000231846CD
:101CB0001037BD4680BD80B584B000AFF860B96014
:101CC0007A603B6051E0FB681B685B6903F48063EA
:101CD000B3F5806F23D1FB681B681A68FB681B682B
:101CE00042F400721A60FB681B686FF480625A61EC
:101CF000FB6800221A63FB68202283F83D20FB6802
:101D0000002283F83E20FB681B6C43F00402FB6852
:101D10001A64FB68002283F83C20012346E07B68BC
:101D2000B3F1FF3F21D0FEF751FE02463B68D31AC4
:101D30007A689A4202D37B68002B16D1FB68002296
:101D40001A63FB68202283F83D20FB68002283F899
:101D50003E20FB681B6C43F02002FB681A64FB68A2
:101D6000002283F83C20012320E0BB681B0CDBB27F
:101D7000012B0CD1FB681B685B69DA43BB6813401D
:101D80009BB2002B14BF01230023DBB20BE0FB68E6
:101D90001B689B69DA43BB6813409BB2002B14BFDE
:101DA00001230023DBB2002B8DD10023184610370E
:101DB000BD4680BD80B584B000AFF860B9607A6080
:101DC0002DE0F86800F0CEF80346002B01D0012387
:101DD0002DE0BB68B3F1FF3F21D0FEF7F7FD0246CF
:101DE0007B68D31ABA689A4202D3BB68002B16D11B
:101DF000FB6800221A63FB68202283F83D20FB6801
:101E0000002283F83E20FB681B6C43F02002FB6835
:101E10001A64FB68002283F83C20012307E0FB687A
:101E20001B685B6903F08003802BCAD1002318462E
:101E30001037BD4680BD80B584B000AFF860B96092
:101E40007A602DE0F86800F08DF80346002B01D091
:101E500001232DE0BB68B3F1FF3F21D0FEF7B6FDB3
:101E600002467B68D31ABA689A4202D3BB68002B39
:101E700016D1FB6800221A63FB68202283F83D20FC
:101E8000FB68002283F83E20FB681B6C43F02002B5
:101E9000FB681A64FB68002283F83C20012307E0FA
:101EA000FB681B685B6903F00403042BCAD10023A1
:101EB00018461037BD4680BD80B584B000AFF860CD
:101EC000B9607A6042E0FB681B685B6903F010034D
:101ED000102B19D1FB681B686FF010025A61FB6868
:101EE00000221A63FB68202283F83D20FB68002251
:101EF00083F83E20FB681A6CFB681A64FB680022BA
:101F000083F83C20012329E0FEF760FD02467B6850
:101F1000D31ABA689A4202D3BB68002B16D1FB6869
:101F200000221A63FB68202283F83D20FB68002210
:101F300083F83E20FB681B6C43F02002FB681A64A8
:101F4000FB68002283F83C20012307E0FB681B6844
:101F50005B6903F04003402BB5D1002318461037CE
:101F6000BD4680BD80B483B000AF78607B681B68DD
:101F70005B6903F48063B3F5806F1BD17B681B68DA
:101F80006FF480625A617B6800221A637B682022AA
:101F900083F83D207B68002283F83E207B681B6C21
:101FA00043F004027B681A647B68002283F83C20BB
:101FB000012300E0002318460C37BD4680BC704763
:101FC00080B586B000AF78607B68002B01D101231B
:101FD0006CE27B681B6803F00103002B00F0878034
:101FE000924B5B6803F00C03042B0CD08F4B5B68A7
:101FF00003F00C03082B12D18C4B5B6803F4803385
:10200000B3F5803F0BD1894B1B6803F40033002BE1
:102010006CD07B685B68002B68D1012346E27B684B
:102020005B68B3F5803F06D1804B1B687F4A43F461
:10203000803313602EE07B685B68002B0CD17B4BF8
:102040001B687A4A23F480331360784B1B68774A05
:1020500023F4802313601DE07B685B68B3F5A02F39
:102060000CD1724B1B68714A43F4802313606F4B91
:102070001B686E4A43F4803313600BE06B4B1B68A4
:102080006A4A23F480331360684B1B68674A23F461
:10209000802313607B685B68002B13D0FEF796FCEF
:1020A000386108E0FEF792FC02463B69D31A642BC4
:1020B00001D90323FAE15D4B1B6803F40033002BC5
:1020C000F0D014E0FEF782FC386108E0FEF77EFCF9
:1020D00002463B69D31A642B01D90323E6E1534B33
:1020E0001B6803F40033002BF0D100E000BF7B68D5
:1020F0001B6803F00203002B63D04C4B5B6803F0BA
:102100000C03002B0BD0494B5B6803F00C03082B2E
:102110001CD1464B5B6803F48033002B16D1434B34
:102120001B6803F00203002B05D07B681B69012BA1
:1021300001D00123BAE13D4B1B6823F0F8027B6814
:102140005B69DB00394913430B603AE07B681B692C
:10215000002B20D0364B01221A60FEF737FC386185
:1021600008E0FEF733FC02463B69D31A022B01D983
:1021700003239BE12D4B1B6803F00203002BF0D0DF
:102180002A4B1B6823F0F8027B685B69DB00274958
:1021900013430B6015E0264B00221A60FEF716FC75
:1021A000386108E0FEF712FC02463B69D31A022BA5
:1021B00001D903237AE11D4B1B6803F00203002BB6
:1021C000F0D17B681B6803F00803002B3AD07B68D2
:1021D0009B69002B19D0174B01221A60FEF7F6FB02
:1021E000386108E0FEF7F2FB02463B69D31A022B86
:1021F00001D903235AE10D4B5B6A03F00203002B64
:10220000F0D0012000F00AFB1CE00A4B00221A600B
:10221000FEF7DCFB38610FE0FEF7D8FB02463B69B6
:10222000D31A022B08D9032340E100BF001002405B
:1022300000004242800442429E4B5B6A03F002036C
:10224000002BE9D17B681B6803F00403002B00F02E
:10225000A6800023FB75974BDB6903F08053002BAE
:102260000DD1944BDB69934A43F08053D361914B7A
:10227000DB6903F08053BB60BB680123FB758E4BA9
:102280001B6803F48073002B18D18B4B1B688A4AA0
:1022900043F480731360FEF799FB386108E0FEF7A2
:1022A00095FB02463B69D31A642B01D90323FDE059
:1022B000814B1B6803F48073002BF0D07B68DB68D4
:1022C000012B06D17B4B1B6A7A4A43F00103136250
:1022D0002DE07B68DB68002B0CD1764B1B6A754ABE
:1022E00023F001031362734B1B6A724A23F0040349
:1022F00013621CE07B68DB68052B0CD16D4B1B6AFD
:102300006C4A43F0040313626A4B1B6A694A43F048
:10231000010313620BE0674B1B6A664A23F001035B
:102320001362644B1B6A634A23F0040313627B68E5
:10233000DB68002B15D0FEF749FB38610AE0FEF799
:1023400045FB02463B69D31A41F28832934201D9D8
:102350000323ABE0574B1B6A03F00203002BEED0C4
:1023600014E0FEF733FB38610AE0FEF72FFB02466C
:102370003B69D31A41F28832934201D9032395E095
:102380004C4B1B6A03F00203002BEED1FB7D012BAB
:1023900005D1484BDB69474A23F08053D3617B6802
:1023A000DB69002B00F08180424B5B6803F00C037B
:1023B000082B61D07B68DB69022B46D13F4B0022A2
:1023C0001A60FEF703FB386108E0FEF7FFFA0246E9
:1023D0003B69D31A022B01D9032367E0354B1B68F5
:1023E00003F00073002BF0D17B681B6AB3F5803FCC
:1023F00008D1304B5B6823F400327B689B682D4921
:1024000013434B602B4B5B6823F474127B68196A8F
:102410007B685B6A0B43274913434B60274B0122C0
:102420001A60FEF7D3FA386108E0FEF7CFFA0246E9
:102430003B69D31A022B01D9032337E01D4B1B68DC
:1024400003F00073002BF0D02FE01C4B00221A6029
:10245000FEF7BCFA386108E0FEF7B8FA02463B69BD
:10246000D31A022B01D9032320E0124B1B6803F07F
:102470000073002BF0D118E07B68DB69012B01D1E0
:10248000012313E00B4B5B68FB60FB6803F48032B5
:102490007B681B6A9A4206D1FB6803F470127B6862
:1024A0005B6A9A4201D0012300E0002318461837E6
:1024B000BD4680BD001002400070004060004242F6
:1024C00080B584B000AF786039607B68002B01D1A3
:1024D0000123D0E06A4B1B6803F007033A689A4275
:1024E00010D9674B1B6823F0070265493B6813430B
:1024F0000B60634B1B6803F007033A689A4201D0F4
:102500000123B8E07B681B6803F00203002B20D096
:102510007B681B6803F00403002B05D0594B5B68F4
:10252000584A43F4E06353607B681B6803F0080378
:10253000002B05D0534B5B68524A43F46053536001
:10254000504B5B6823F0F0027B689B684D49134356
:102550004B607B681B6803F00103002B40D07B6855
:102560005B68012B07D1474B1B6803F40033002B3A
:1025700015D101237FE07B685B68022B07D1414BBB
:102580001B6803F00073002B09D1012373E03D4B5E
:102590001B6803F00203002B01D101236BE0394BD0
:1025A0005B6823F003027B685B68364913434B602A
:1025B000FEF70CFAF8600AE0FEF708FA0246FB683C
:1025C000D31A41F28832934201D9032353E02D4BB1
:1025D0005B6803F00C027B685B689B009A42EBD15E
:1025E000274B1B6803F007033A689A4210D2244B2A
:1025F0001B6823F0070222493B6813430B60204B02
:102600001B6803F007033A689A4201D0012332E0C5
:102610007B681B6803F00403002B08D0194B5B6830
:1026200023F4E0627B68DB68164913434B607B68E8
:102630001B6803F00803002B09D0124B5B6823F4DE
:1026400060527B681B69DB000E4913434B6000F04E
:1026500021F801460B4B5B681B0903F00F030A4A84
:10266000D35C21FA03F3094A1360094B1B6818462F
:10267000FEF7CCF8002318461037BD4680BD00BFDA
:102680000020024000100240B47100080000002049
:102690000400002090B48AB000AF2A4B3C1D0FCB41
:1026A00084E80F00284B1B883B800023FB6100233C
:1026B000BB6100237B6200237B6100233B62234BD1
:1026C0005B68FB61FB6903F00C03042B02D0082B51
:1026D00003D02DE01E4B3B622DE0FB699B0C03F009
:1026E0000F0307F12802134413F8243C7B61FB69B4
:1026F00003F48033002B13D0144B5B685B0C03F0A6
:10270000010307F12802134413F8283CBB617B69DD
:102710000F4A02FB03F2BB69B2FBF3F37B6204E0F6
:102720007B690C4A02FB03F37B627B6A3B6202E03B
:10273000074B3B6200BF3B6A18462837BD4690BC3A
:10274000704700BFC8700008D87000080010024031
:1027500000127A0000093D0080B400AF024B1B68F4
:102760001846BD4680BC70470000002080B500AF11
:10277000FFF7F2FF0146054B5B681B0A03F00703F6
:10278000034AD35C21FA03F3184680BD00100240CF
:10279000C471000880B500AFFFF7DEFF0146054BAE
:1027A0005B68DB0A03F00703034AD35C21FA03F3F7
:1027B000184680BD00100240C471000880B483B088
:1027C00000AF786039607B680F221A60114B5B683C
:1027D00003F003027B685A600E4B5B6803F0F00263
:1027E0007B689A600B4B5B6803F4E0627B68DA609D
:1027F000084B5B68DB0803F4E0627B681A61064BF8
:102800001B6803F007023B681A6000BF0C37BD4627
:1028100080BC7047001002400020024080B485B0A8
:1028200000AF78600A4B1B680A4AA2FB03235B0ACD
:102830007A6802FB03F3FB6000BFFB685A1EFA6074
:10284000002BF9D100BF1437BD4680BC704700BFD4
:1028500000000020D34D621080B582B000AF7860D8
:102860007B68002B01D1012341E07B6893F83D3068
:10287000DBB2002B06D17B68002283F83C2078680D
:10288000FDF74CFF7B68022283F83D207B681A68C5
:102890007B6804331946104600F064FA7B68012215
:1028A00083F846207B68012283F83E207B68012262
:1028B00083F83F207B68012283F840207B68012257
:1028C00083F841207B68012283F842207B68012243
:1028D00083F843207B68012283F844207B6801222F
:1028E00083F845207B68012283F83D2000231846A9
:1028F0000837BD4680BD000080B485B000AF786069
:102900007B6893F83D30DBB2012B01D001233AE024
:102910007B68022283F83D207B681B68DA687B684D
:102920001B6842F00102DA607B681B68184A934218
:102930000ED07B681B68B3F1804F09D07B681B68A1
:10294000144A934204D07B681B68134A934211D106
:102950007B681B689B6803F00703FB60FB68062B22
:1029600010D07B681B681A687B681B6842F0010204
:102970001A6007E07B681B681A687B681B6842F076
:1029800001021A60002318461437BD4680BC704708
:10299000002C0140000400400008004080B582B0D7
:1029A00000AF78607B681B681B6903F00203022B91
:1029B00022D17B681B68DB6803F00203022B1BD16A
:1029C0007B681B686FF002021A617B6801221A772C
:1029D0007B681B689B6903F00303002B03D07868B6
:1029E00000F0A4F905E0786800F097F9786800F045
:1029F000A6F97B6800221A777B681B681B6903F0C5
:102A00000403042B22D17B681B68DB6803F00403FA
:102A1000042B1BD17B681B686FF004021A617B6872
:102A200002221A777B681B689B6903F44073002BB2
:102A300003D0786800F07AF905E0786800F06DF965
:102A4000786800F07CF97B6800221A777B681B6845
:102A50001B6903F00803082B22D17B681B68DB6825
:102A600003F00803082B1BD17B681B686FF008027A
:102A70001A617B6804221A777B681B68DB6903F0A4
:102A80000303002B03D0786800F050F905E0786864
:102A900000F043F9786800F052F97B6800221A7759
:102AA0007B681B681B6903F01003102B22D17B6825
:102AB0001B68DB6803F01003102B1BD17B681B68BD
:102AC0006FF010021A617B6808221A777B681B6816
:102AD000DB6903F44073002B03D0786800F026F91B
:102AE00005E0786800F019F9786800F028F97B684B
:102AF00000221A777B681B681B6903F00103012B16
:102B00000ED17B681B68DB6803F00103012B07D142
:102B10007B681B686FF001021A617868FDF774FD2D
:102B20007B681B681B6903F08003802B0ED17B68D8
:102B30001B68DB6803F08003802B07D17B681B6870
:102B40006FF080021A61786800F06BFA7B681B688E
:102B50001B6903F04003402B0ED17B681B68DB68C8
:102B600003F04003402B07D17B681B686FF04002E5
:102B70001A61786800F0ECF87B681B681B6903F049
:102B80002003202B0ED17B681B68DB6803F0200339
:102B9000202B07D17B681B686FF020021A617868D0
:102BA00000F036FA00BF0837BD4680BD80B584B05E
:102BB00000AF786039607B6893F83C30012B01D11D
:102BC0000223A6E07B68012283F83C207B68022276
:102BD00083F83D207B681B689B68FB60FB6823F0E3
:102BE0007703FB60FB6823F47F43FB607B681B6813
:102BF000FA689A603B681B68402B67D0402B0BD863
:102C0000102B73D0102B02D8002B6FD078E0202B24
:102C10006CD0302B6AD073E0702B0DD0702B04D8A1
:102C2000502B33D0602B41D06AE0B3F5805F66D083
:102C3000B3F5005F17D063E07B6818683B6899685C
:102C40003B685A683B68DB6800F065F97B681B6885
:102C50009B68FB60FB6843F07703FB607B681B6845
:102C6000FA689A604CE07B6818683B6899683B6832
:102C70005A683B68DB6800F04EF97B681B689A680D
:102C80007B681B6842F480429A6039E07B68186870
:102C90003B6859683B68DB681A4600F0C5F87B68FA
:102CA0001B685021184600F01CF929E07B68186861
:102CB0003B6859683B68DB681A4600F0E3F87B68BC
:102CC0001B686021184600F00CF919E07B68186851
:102CD0003B6859683B68DB681A4600F0A5F87B68DA
:102CE0001B684021184600F0FCF809E07B681A6870
:102CF0003B681B681946104600F0F3F800E000BF7F
:102D00007B68012283F83D207B68002283F83C2009
:102D1000002318461037BD4680BD80B483B000AF95
:102D2000786000BF0C37BD4680BC704780B483B06C
:102D300000AF786000BF0C37BD4680BC704780B4E0
:102D400083B000AF786000BF0C37BD4680BC7047D1
:102D500080B483B000AF786000BF0C37BD4680BC44
:102D60007047000080B485B000AF786039607B6840
:102D70001B68FB607B68294A93420BD07B68B3F1E8
:102D8000804F07D07B68264A934203D07B68254A50
:102D9000934208D1FB6823F07003FB603B685B68DB
:102DA000FA681343FB607B681C4A93420BD07B6834
:102DB000B3F1804F07D07B68194A934203D07B68F8
:102DC000184A934208D1FB6823F44073FB603B68C8
:102DD000DB68FA681343FB60FB6823F080023B6802
:102DE0005B691343FB607B68FA681A603B689A680A
:102DF0007B68DA623B681A687B689A627B68074A7C
:102E0000934203D13B681A697B681A637B6801228D
:102E10005A6100BF1437BD4680BC7047002C01408A
:102E2000000400400008004080B487B000AFF860A4
:102E3000B9607A60FB681B6A7B61FB681B6A23F0E0
:102E40000102FB681A62FB689B693B613B6923F0E6
:102E5000F0033B617B681B013A6913433B617B696B
:102E600023F00A037B617A69BB6813437B61FB68CB
:102E70003A699A61FB687A691A6200BF1C37BD46DD
:102E800080BC704780B487B000AFF860B9607A60EA
:102E9000FB681B6A23F01002FB681A62FB689B69DF
:102EA0007B61FB681B6A3B617B6923F470437B6138
:102EB0007B681B037A6913437B613B6923F0A003A2
:102EC0003B61BB681B013A6913433B61FB687A694C
:102ED0009A61FB683A691A6200BF1C37BD4680BC24
:102EE000704780B485B000AF786039607B689B68BC
:102EF000FB60FB6823F07003FB603A68FB681343D8
:102F000043F00703FB607B68FA689A6000BF1437E0
:102F1000BD4680BC704780B487B000AFF860B96030
:102F20007A603B60FB689B687B617B6923F47F432D
:102F30007B613B681A027B681A43BB6813437A695A
:102F400013437B61FB687A699A6000BF1C37BD46FA
:102F500080BC704780B485B000AF786039607B6812
:102F600093F83C30012B01D1022346E07B6801221B
:102F700083F83C207B68022283F83D207B681B6835
:102F80005B68FB607B681B689B68BB60FB6823F029
:102F90007003FB603B681B68FA681343FB607B6847
:102FA0001B68FA685A607B681B68164A93420ED009
:102FB0007B681B68B3F1804F09D07B681B68124A9D
:102FC000934204D07B681B68104A93420CD1BB68C3
:102FD00023F08003BB603B685B68BA681343BB6047
:102FE0007B681B68BA689A607B68012283F83D2081
:102FF0007B68002283F83C20002318461437BD4626
:1030000080BC7047002C01400004004000080040D4
:1030100080B483B000AF786000BF0C37BD4680BC81
:10302000704780B483B000AF786000BF0C37BD46F6
:1030300080BC704780B582B000AF78607B68002BA1
:1030400001D101233FE07B6893F83930DBB2002BDC
:1030500006D17B68002283F838207868FDF782FB70
:103060007B68242283F839207B681B68DA687B68D8
:103070001B6822F40052DA60786800F05DFA7B6821
:103080001B681A697B681B6822F490421A617B688E
:103090001B685A697B681B6822F02A025A617B68A8
:1030A0001B68DA687B681B6842F40052DA607B6850
:1030B0000022DA637B68202283F839207B68202293
:1030C00083F83A20002318460837BD4680BD00002B
:1030D00080B588B000AF78607B681B681B68FB61B7
:1030E0007B681B68DB68BB617B681B685B697B6115
:1030F00000233B610023FB60FB6903F00F033B618E
:103100003B69002B0DD1FB6903F02003002B08D095
:10311000BB6903F02003002B03D0786800F08BF923
:10312000D1E03B69002B00F0B0807B6903F0010324
:10313000002B05D1BB6903F49073002B00F0A58030
:10314000FB6903F00103002B0AD0BB6903F4807311
:10315000002B05D07B68DB6B43F001027B68DA63F0
:10316000FB6903F00403002B0AD07B6903F0010321
:10317000002B05D07B68DB6B43F002027B68DA63CF
:10318000FB6903F00203002B0AD07B6903F0010303
:10319000002B05D07B68DB6B43F004027B68DA63AD
:1031A000FB6903F00803002B0FD0BB6903F0200379
:1031B000002B04D17B6903F00103002B05D07B6851
:1031C000DB6B43F008027B68DA637B68DB6B002B08
:1031D00078D0FB6903F02003002B07D0BB6903F014
:1031E0002003002B02D0786800F025F97B681B686B
:1031F0005B6903F04003002B14BF01230023DBB203
:10320000FB607B68DB6B03F00803002B02D1FB68DB
:10321000002B31D0786800F076F87B681B685B691A
:1032200003F04003002B23D07B681B685A697B683E
:103230001B6822F040025A617B685B6B002B13D045
:103240007B685B6B214A5A637B685B6B1846FDF7B2
:10325000C9FC0346002B16D07B685B6B5B6B7A68FE
:10326000526B104698470EE0786800F043F80AE089
:10327000786800F03FF806E0786800F03BF87B687B
:103280000022DA631EE000BF1CE0FB6903F080034C
:10329000002B08D0BB6903F08003002B03D07868B3
:1032A00000F062F80FE0FB6903F04003002B0AD046
:1032B000BB6903F04003002B05D0786800F0A3F849
:1032C00000BF00E000BF2037BD4680BD413300088D
:1032D00080B483B000AF786000BF0C37BD4680BCBF
:1032E000704780B483B000AF786000BF0C37BD4634
:1032F00080BC704780B483B000AF786000BF0C37EB
:10330000BD4680BC704780B483B000AF78607B68F6
:103310001B68DA687B681B6822F49072DA607B684D
:103320001B685A697B681B6822F001025A617B683E
:10333000202283F83A2000BF0C37BD4680BC70477E
:1033400080B584B000AF78607B685B6AFB60FB6827
:103350000022DA85FB680022DA84F868FFF7CAFFEA
:1033600000BF1037BD4680BD80B485B000AF786027
:103370007B6893F83930DBB2212B3ED17B689B68A8
:10338000B3F5805F14D17B681B69002B10D17B687B
:103390001B6AFB60FB681B881A467B681B68C2F3CC
:1033A00008025A607B681B6A9A1C7B681A6208E0F4
:1033B0007B681B6A591C7A6811621A787B681B68E3
:1033C0005A607B68DB8C9BB2013B9BB27A681946E2
:1033D000D184002B0FD17B681B68DA687B681B687F
:1033E00022F08002DA607B681B68DA687B681B6801
:1033F00042F04002DA60002300E00223184614374E
:10340000BD4680BC704780B582B000AF78607B68F5
:103410001B68DA687B681B6822F04002DA607B6810
:10342000202283F839207868FFF752FF00231846DE
:103430000837BD4680BD80B584B000AF78607B683A
:1034400093F83A30DBB2222B70D17B689B68B3F5DE
:10345000805F17D17B681B69002B13D10023FB60B1
:103460007B689B6ABB607B681B685B689BB2C3F32D
:1034700008039AB2BB681A807B689B6A9A1C7B68B7
:103480009A6226E07B689B6AFB600023BB607B68D6
:103490009B68B3F5805F07D07B689B68002B0AD1DF
:1034A0007B681B69002B06D17B681B685B68DAB2FE
:1034B000FB681A7008E07B681B685B68DBB203F08E
:1034C0007F03DAB2FB681A707B689B6A5A1C7B68C0
:1034D0009A627B68DB8D9BB2013B9BB27A6819468E
:1034E000D185002B20D17B681B68DA687B681B685C
:1034F00022F02002DA607B681B68DA687B681B6850
:1035000022F48072DA607B681B685A697B681B68EA
:1035100022F001025A617B68202283F83A20786801
:10352000FFF7DFFE002302E0002300E0022318463D
:103530001037BD4680BD000080B584B000AF786014
:103540007B681B681B6923F440517B68DA687B68E1
:103550001B680A431A617B689A687B681B691A4377
:103560007B685B691343BB607B681B68DB6823F483
:10357000B05323F00C037A681268B9680B43D36028
:103580007B681B685B6923F440717B689A697B6880
:103590001B680A435A617B681B682C4A934203D11B
:1035A000FFF7F8F8F86002E0FFF7E0F8F860FA6873
:1035B00013469B0013449A001A447B685B689B0087
:1035C000B2FBF3F3224AA2FB03235B091901FA6859
:1035D00013469B0013449A001A447B685B689B0067
:1035E000B2FBF3F21A4BA3FB02035B09642000FB5E
:1035F00003F3D31A1B013233154AA2FB03235B09E1
:1036000003F0F0031944FA6813469B0013449A0030
:103610001A447B685B689B00B2FBF3F20C4BA3FB84
:1036200002035B09642000FB03F3D31A1B0132334E
:10363000074AA2FB03235B0903F00F027B681B68A8
:103640000A449A6000BF1037BD4680BD0038014073
:103650001F85EB5180B485B000AFEFF30583BB60ED
:10366000BB68002B0FD1EFF310837B607B68002BCE
:1036700009D1104B1B68022B09D1EFF311833B607A
:103680003B68002B03D06FF00503FB600CE0094B97
:103690001B68002B05D1074B01221A600023FB6039
:1036A00002E04FF0FF33FB60FB6818461437BD465D
:1036B00080BC70473000002080B584B000AFEFF3CD
:1036C0000583BB60BB68002B0FD1EFF310837B60D9
:1036D0007B68002B09D1114B1B68022B09D1EFF33A
:1036E00011833B603B68002B03D06FF00503FB6048
:1036F0000EE00A4B1B68012B07D1084B02221A600F
:1037000001F08AFA0023FB6002E04FF0FF33FB6018
:10371000FB6818461037BD4680BD00BF3000002052
:1037200080B592B004AFF860B9607A6000237B6125
:10373000EFF305837B627B6A002B40F09480EFF30C
:1037400010833B623B6A002B40F08D80484B1B6826
:10375000022B06D1EFF31183FB61FB69002B40F0D4
:103760008280FB68002B7ED080233B631823FB62A2
:103770000023FB7607F11B037B634FF0FF33BB6233
:103780007B68002B45D07B681B68002B02D07B68D0
:103790001B687B637B689B69002B02D07B689B69FD
:1037A000FB62FB6A002B08D0FB6A382B05D87B68CC
:1037B0005B6803F00103002B01D0002354E07B6819
:1037C0005B69002B03D07B685B699B083B637B686C
:1037D0009B68002B0ED07B68DB685B2B0AD97B686B
:1037E0001B69002B06D07B685B69002B02D001238C
:1037F000BB6210E07B689B68002B0CD17B68DB68A8
:10380000002B08D17B681B69002B04D10023BB620D
:1038100001E00023BB62BB6A012B10D17B681B69EE
:103820007A68926802920193FB6A0093BB683A6BD4
:10383000796BF86801F028F803467B6113E0BB6AF6
:10384000002B10D13B6B9AB207F114030193FB6A72
:103850000093BB68796BF86801F06FF80346012BA1
:1038600001D000237B617B6918463837BD4680BD97
:103870003000002080B586B000AF7860EFF305839C
:103880003B613B69002B0FD1EFF31083FB60FB68BA
:10389000002B09D10D4B1B68022B09D1EFF31183CB
:1038A000BB60BB68002B03D06FF005037B6107E0B2
:1038B00000237B617B68002B02D0786801F078F9E7
:1038C0007B6918461837BD4680BD00BF3000002018
:1038D00080B58CB002AFF860B9607A6000237B627B
:1038E000EFF30583BB61BB69002B70D1EFF310834D
:1038F0007B617B69002B6AD1374B1B68022B05D19A
:10390000EFF311833B613B69002B60D1FB68002B17
:103910005DD0BB68002B5AD04FF0FF333B627B6811
:10392000002B29D07B689B68002B12D07B68DB685A
:103930004F2B0ED97B681B69002B0AD07B685A6914
:10394000FB68B96801FB03F39A4202D301233B628F
:1039500014E07B689B68002B10D17B68DB68002B30
:103960000CD17B681B69002B08D17B685B69002B3D
:1039700004D100233B6201E000233B623B6A012B40
:103980000CD17B681A697B689968002300930B4609
:10399000B968F86800F052FA786208E03B6A002BD8
:1039A00005D10022B968F86800F0BAFA78627B6A3B
:1039B000002B0CD07B68002B03D07B681B68FB615D
:1039C00001E00023FB61F969786A00F001FF7B6A7E
:1039D00018462837BD4680BD3000002080B58AB02B
:1039E00000AFF860B9603B601346FB71FB683B6257
:1039F00000237B62EFF30583FB61FB69002B0FD192
:103A0000EFF31083BB61BB69002B09D12B4B1B6803
:103A1000022B2ED1EFF311837B617B69002B28D021
:103A20003B6A002B05D0BB68002B02D03B68002B03
:103A300003D06FF003037B6239E000233B6107F1A1
:103A400010020023B968386A00F0C4FB0346012B5A
:103A500003D06FF002037B6229E03B69002B26D084
:103A6000174B4FF080521A60BFF34F8FBFF36F8F29
:103A70001DE03B6A002B02D0BB68002B03D16FF026
:103A800003037B6214E000233A68B968386A00F0E7
:103A9000A7FA0346012B0BD03B68002B03D06FF035
:103AA00001037B6204E06FF002037B6200E000BF71
:103AB0007B6A18462837BD4680BD00BF3000002015
:103AC00004ED00E080B58AB000AFF860B9607A60BC
:103AD0003B60FB683B6200237B62EFF30583FB6185
:103AE000FB69002B0FD1EFF31083BB61BB69002B87
:103AF00009D12B4B1B68022B2ED1EFF311837B6175
:103B00007B69002B28D03B6A002B05D0BB68002BBB
:103B100002D03B68002B03D06FF003037B6238E0D8
:103B200000233B6107F110031A46B968386A00F0B8
:103B3000C1FC0346012B03D06FF002037B6228E037
:103B40003B69002B25D0174B4FF080521A60BFF312
:103B50004F8FBFF36F8F1CE03B6A002B02D0BB6816
:103B6000002B03D16FF003037B6213E03A68B9685E
:103B7000386A00F0C3FB0346012B0BD03B68002BD7
:103B800003D06FF001037B6204E06FF002037B62FD
:103B900000E000BF7B6A18462837BD4680BD00BFE5
:103BA0003000002004ED00E080B485B000AFF86084
:103BB000B9607A60FB68064A1A60BB68054A1A60F9
:103BC0007B6880221A6000BF1437BD4680BC7047F6
:103BD000340000209000002080B485B000AFF86071
:103BE000B9607A60FB68074A1A60BB68064A1A60C7
:103BF0007B684FF480721A6000BF1437BD4680BCEA
:103C0000704700BF90020020EC02002080B483B017
:103C100000AF78607B6803F108027B685A607B68BC
:103C20004FF0FF329A607B6803F108027B68DA602C
:103C30007B6803F108027B681A617B6800221A60C6
:103C400000BF0C37BD4680BC704780B483B000AF66
:103C500078607B6800221A6100BF0C37BD4680BCCB
:103C6000704780B485B000AF786039607B685B686E
:103C7000FB603B68FA685A60FB689A683B689A6028
:103C8000FB689B683A685A60FB683A689A603B68D0
:103C90007A681A617B681B685A1C7B681A6000BFCF
:103CA0001437BD4680BC704780B485B000AF7860E3
:103CB00039603B681B68BB60BB68B3F1FF3F03D151
:103CC0007B681B69FB600CE07B680833FB6002E0EB
:103CD000FB685B68FB60FB685B681B68BA689A42BC
:103CE000F6D2FB685A683B685A603B685B683A6882
:103CF0009A603B68FA689A60FB683A685A603B6869
:103D00007A681A617B681B685A1C7B681A6000BF5E
:103D10001437BD4680BC704780B485B000AF786072
:103D20007B681B69FB607B685B687A6892689A6055
:103D30007B689B687A6852685A60FB685B687A683F
:103D40009A4203D17B689A68FB685A607B680022BC
:103D50001A61FB681B685A1EFB681A60FB681B68C7
:103D600018461437BD4680BC7047000080B584B04B
:103D700000AF786039607B68FB60FB68002B09D17D
:103D80004FF0500383F31188BFF36F8FBFF34F8F52
:103D9000BB60FEE702F050F8FB681A68FB68DB6B5B
:103DA000F968096C01FB03F31A44FB685A60FB686D
:103DB00000229A63FB681A68FB689A60FB681A68BD
:103DC000FB68DB6B013BF968096C01FB03F31A44E8
:103DD000FB68DA60FB68FF2283F84420FB68FF225F
:103DE00083F845203B68002B14D1FB681B69002B2E
:103DF0001AD0FB681033184601F092F90346002BE5
:103E000012D00D4B4FF080521A60BFF34F8FBFF3AB
:103E10006F8F09E0FB6810331846FFF7F7FEFB6869
:103E200024331846FFF7F2FE02F034F80123184657
:103E30001037BD4680BD00BF04ED00E080B58EB0F8
:103E400002AFF860B9607A603B60FB68002B09D173
:103E50004FF0500383F31188BFF36F8FBFF34F8F81
:103E6000BB62FEE73B68002B09D14FF0500383F3A0
:103E70001188BFF36F8FBFF34F8F7B62FEE77B68C4
:103E8000002B02D0BB68002B01D0012300E00023EF
:103E9000002B09D14FF0500383F31188BFF36F8FCC
:103EA000BFF34F8F3B62FEE77B68002B02D1BB68FC
:103EB000002B01D1012300E00023002B09D14FF09A
:103EC000500383F31188BFF36F8FBFF34F8FFB61F4
:103ED000FEE750237B617B69502B09D04FF05003E4
:103EE00083F31188BFF36F8FBFF34F8FBB61FEE782
:103EF0003B68FB62FB6A002B0DD0FB6A012283F852
:103F0000462097F83820FB6A009313467A68B96810
:103F1000F86800F042F8FB6A18463037BD4680BDAD
:103F200080B58AB002AFF860B9601346FB71FB68D8
:103F3000002B09D14FF0500383F31188BFF36F8F2B
:103F4000BFF34F8F3B61FEE7BB68002B02D100231C
:103F5000FB6104E0FB68BA6802FB03F3FB61FB69E9
:103F60005033184602F05EF8B861BB69002B0FD0E1
:103F7000BB6950337B61BB69002283F84620FA7924
:103F8000BB69009313467A69B968F86800F005F8D0
:103F9000BB6918462037BD4680BD80B584B000AFF0
:103FA000F860B9607A60FB70BB68002B03D1BB6915
:103FB000BA691A6002E0BB697A681A60BB69FA687C
:103FC000DA63BB69BA681A640121B869FFF7CEFEEB
:103FD000BB69FA7883F84C2000BF1037BD4680BD1E
:103FE00080B58EB000AFF860B9607A603B600023A6
:103FF0007B63FB683B633B6B002B09D14FF05003A5
:1040000083F31188BFF36F8FBFF34F8FBB62FEE75F
:10401000BB68002B03D13B6B1B6C002B01D1012330
:1040200000E00023002B09D14FF0500383F31188E7
:10403000BFF36F8FBFF34F8F7B62FEE73B68022BAE
:1040400003D13B6BDB6B012B01D1012300E000238B
:10405000002B09D14FF0500383F31188BFF36F8F0A
:10406000BFF34F8F3B62FEE701F014FA0346002BCB
:1040700002D17B68002B01D1012300E00023002B3B
:1040800009D14FF0500383F31188BFF36F8FBFF353
:104090004F8FFB61FEE701F0CFFE3B6B9A6B3B6BF2
:1040A000DB6B9A4202D33B68022B29D13A68B9688C
:1040B000386B00F07CFAF8623B6B5B6A002B10D027
:1040C0003B6B2433184601F02BF80346002B13D02A
:1040D0003F4B4FF080521A60BFF34F8FBFF36F8F8B
:1040E0000AE0FB6A002B07D0394B4FF080521A6070
:1040F000BFF34F8FBFF36F8F01F0CCFE012363E05E
:104100007B68002B03D101F0C5FE00235CE07B6BD4
:10411000002B06D107F11403184601F063F80123C0
:104120007B6301F0B7FE00F0DBFD01F085FE3B6B29
:1041300093F844305BB2B3F1FF3F03D13B6B0022F5
:1041400083F844203B6B93F845305BB2B3F1FF3FFB
:1041500003D13B6B002283F8452001F09BFE3A1D02
:1041600007F114031146184601F052F80346002BDC
:1041700024D1386B00F013FB0346002B18D03B6BA7
:1041800010337A681146184600F07CFF386B00F057
:104190009EFA00F0B3FD0346002B7FF47CAF0C4B7E
:1041A0004FF080521A60BFF34F8FBFF36F8F72E7EB
:1041B000386B00F08CFA00F0A1FD6CE7386B00F072
:1041C00086FA00F09BFD002318463837BD4680BDB7
:1041D00004ED00E080B58EB000AFF860B9607A60A1
:1041E0003B60FB683B633B6B002B09D14FF05003F6
:1041F00083F31188BFF36F8FBFF34F8F7B62FEE7AE
:10420000BB68002B03D13B6B1B6C002B01D101233E
:1042100000E00023002B09D14FF0500383F31188F5
:10422000BFF36F8FBFF34F8F3B62FEE73B68022BFC
:1042300003D13B6BDB6B012B01D1012300E0002399
:10424000002B09D14FF0500383F31188BFF36F8F18
:10425000BFF34F8FFB61FEE701F0A8FEEFF3118281
:104260004FF0500383F31188BFF36F8FBFF34F8F6D
:10427000BA617B61BB69FB623B6B9A6B3B6BDB6B2F
:104280009A4202D33B68022B2CD13B6B93F845300A
:1042900087F82B303A68B968386B00F088F997F9DD
:1042A0002B30B3F1FF3F12D13B6B5B6A002B16D072
:1042B0003B6B2433184600F033FF0346002B0ED02F
:1042C0007B68002B0BD07B6801221A6007E097F80F
:1042D0002B300133DBB25AB23B6B83F8452001230C
:1042E0007B6301E000237B63FB6A3B613B6983F3F3
:1042F00011887B6B18463837BD4680BD80B58CB0C1
:1043000000AFF860B9607A600023FB62FB68BB62B3
:10431000BB6A002B09D14FF0500383F31188BFF320
:104320006F8FBFF34F8F3B62FEE7BB68002B03D15B
:10433000BB6A1B6C002B01D1012300E00023002B82
:1043400009D14FF0500383F31188BFF36F8FBFF390
:104350004F8FFB61FEE701F09DF80346002B02D171
:104360007B68002B01D1012300E00023002B09D141
:104370004FF0500383F31188BFF36F8FBFF34F8F5C
:10438000BB61FEE701F058FDBB6A9B6B7B627B6AF9
:10439000002B1FD0B968B86A00F073F97B6A5A1E07
:1043A000BB6A9A63BB6A1B69002B0FD0BB6A1033D0
:1043B000184600F0B5FE0346002B07D03C4B4FF0EB
:1043C00080521A60BFF34F8FBFF36F8F01F062FD11
:1043D000012369E07B68002B03D101F05BFD002322
:1043E00062E0FB6A002B06D107F11003184600F0CB
:1043F000F9FE0123FB6201F04DFD00F071FC01F0BC
:104400001BFDBB6A93F844305BB2B3F1FF3F03D1AD
:10441000BB6A002283F84420BB6A93F845305BB244
:10442000B3F1FF3F03D1BB6A002283F8452001F0BE
:1044300031FD3A1D07F110031146184600F0E8FE61
:104440000346002B23D1B86A00F093F90346002BF2
:1044500017D0BB6A24337A681146184600F012FE62
:10446000B86A00F034F900F049FC0346002B89D10A
:104470000F4B4FF080521A60BFF34F8FBFF36F8F17
:1044800080E7B86A00F023F900F038FC7AE7B86AF0
:1044900000F01DF900F032FCB86A00F06AF903463A
:1044A000002B3FF46FAF002318463037BD4680BD68
:1044B00004ED00E080B58EB000AFF860B9607A60BE
:1044C000FB683B633B6B002B09D14FF0500383F338
:1044D0001188BFF36F8FBFF34F8F3B62FEE7BB685E
:1044E000002B03D13B6B1B6C002B01D1012300E09F
:1044F0000023002B09D14FF0500383F31188BFF341
:104500006F8FBFF34F8FFB61FEE701F04FFDEFF3BD
:1045100011824FF0500383F31188BFF36F8FBFF305
:104520004F8FBA617B61BB69FB623B6B9B6BBB626C
:10453000BB6A002B2FD03B6B93F8443087F82730B1
:10454000B968386B00F09DF8BB6A5A1E3B6B9A63E2
:1045500097F92730B3F1FF3F12D13B6B1B69002B5A
:1045600016D03B6B1033184600F0DAFD0346002BE3
:104570000ED07B68002B0BD07B6801221A6007E00D
:1045800097F827300133DBB25AB23B6B83F84420F3
:1045900001237B6301E000237B63FB6A3B613B6992
:1045A00083F311887B6B18463837BD4680BD80B5D4
:1045B00086B000AFF860B9607A6000237B61FB6869
:1045C0009B6B3B61FB681B6C002B0DD1FB681B6870
:1045D000002B4DD1FB685B68184600F079FF7861CD
:1045E000FB6800225A6043E07B68002B19D1FB680E
:1045F0009868FB681B6C1A46B96802F00FFDFB68EF
:104600009A68FB681B6C1A44FB689A60FB689A689E
:10461000FB685B689A422BD3FB681A68FB689A6058
:1046200026E0FB68D868FB681B6C1A46B96802F084
:10463000F5FCFB68DA68FB681B6C5B421A44FB689C
:10464000DA60FB68DA68FB681B689A4207D2FB688D
:104650005A68FB681B6C5B421A44FB68DA607B6833
:10466000022B05D13B69002B02D03B69013B3B612A
:104670003B695A1CFB689A637B6918461837BD462C
:1046800080BD80B582B000AF786039607B681B6CFC
:10469000002B18D07B68DA687B681B6C1A447B6837
:1046A000DA607B68DA687B685B689A4203D37B6870
:1046B0001A687B68DA607B68D9687B681B6C1A466D
:1046C000386802F0ABFC00BF0837BD4680BD80B53E
:1046D00084B000AF786001F0AFFB7B6893F84530A1
:1046E000FB7311E07B685B6A002B12D07B6824337C
:1046F000184600F015FD0346002B01D000F0E8FD40
:10470000FB7B013BDBB2FB7397F90F30002BE9DC3D
:1047100000E000BF7B68FF2283F8452001F0BAFB70
:1047200001F08AFB7B6893F84430BB7311E07B682F
:104730001B69002B12D07B681033184600F0F0FC88
:104740000346002B01D000F0C3FDBB7B013BDBB275
:10475000BB7397F90E30002BE9DC00E000BF7B68EB
:10476000FF2283F8442001F095FB00BF1037BD46BF
:1047700080BD80B584B000AF786001F05DFB7B68E0
:104780009B6B002B02D10123FB6001E00023FB6047
:1047900001F080FBFB6818461037BD4680BD80B530
:1047A00084B000AF786001F047FB7B689A6B7B6850
:1047B000DB6B9A4202D10123FB6001E00023FB6026
:1047C00001F068FBFB6818461037BD4680BD00004D
:1047D00080B485B000AF786039600023FB6014E0DE
:1047E0000E4AFB6852F83330002B0BD10B49FB68A3
:1047F0003A6841F83320094AFB68DB0013447A68C1
:104800005A6005E0FB680133FB60FB68072BE7D9C2
:1048100000BF1437BD4680BC704700BFA41A0020FB
:1048200080B586B000AFF860B9607A60FB687B61E4
:1048300001F002FB7B6993F844305BB2B3F1FF3FB8
:1048400003D17B69002283F844207B6993F84530CB
:104850005BB2B3F1FF3F03D17B69002283F84520AF
:1048600001F018FB7B699B6B002B06D17B6924331D
:104870007A68B968184600F029FC7869FFF727FFC5
:1048800000BF1837BD4680BD80B58EB004AFF8605C
:10489000B9607A603B607B6B002B09D14FF050030D
:1048A00083F31188BFF36F8FBFF34F8F3B62FEE737
:1048B000BB6B002B09D14FF0500383F31188BFF37A
:1048C0006F8FBFF34F8FFB61FEE75C233B613B695A
:1048D0005C2B09D04FF0500383F31188BFF36F8F27
:1048E000BFF34F8FBB61FEE7BB6B002B1ED07B6B12
:1048F000002B1BD0BB6B7B627B6A7A6B1A637B6A73
:10490000022283F85920002303937B6A029307F164
:10491000140301933B6B00933B687A68B968F868AD
:1049200000F050F8786A00F0D3F801E000237B61D2
:104930007B6918462837BD4680BD80B58CB004AF72
:10494000F860B9603B601346FB80FB889B0018460B
:1049500001F068FB78617B69002B0ED05C2001F0D0
:1049600061FBF861FB69002B03D0FB697A691A636C
:1049700005E0786901F018FC01E00023FB61FB69A8
:10498000002B17D0FB69002283F85920FA880023F6
:104990000393FB690293FB6A0193BB6A00933B6834
:1049A000B968F86800F00EF8F86900F091F8012392
:1049B000BB6102E04FF0FF33BB61BB691846203793
:1049C000BD4680BD80B588B000AFF860B9607A6040
:1049D0003B603B6B186B7B689B001A46A52102F07D
:1049E00028FB3B6B1A6B7B6803F18043013B9B0008
:1049F0001344BB61BB6923F00703BB61BB6903F0D0
:104A00000703002B09D04FF0500383F31188BFF345
:104A10006F8FBFF34F8F7B61FEE70023FB6112E0D6
:104A2000BA68FB69134419783A6BFB691344343351
:104A30000A461A70BA68FB6913441B78002B06D02B
:104A4000FB690133FB61FB690F2BE9D900E000BF73
:104A50003B6B002283F84320BB6A372B01D93723F5
:104A6000BB623B6BBA6ADA623B6BBA6ADA643B6B75
:104A700000221A653B6B04331846FFF7E6F83B6BE0
:104A800018331846FFF7E1F83B6B3A6B1A61BB6AC3
:104A9000C3F138023B6B9A613B6B3A6B5A623B6BDA
:104AA00000225A653B6B002283F858203A68F96867
:104AB000B86901F0D7F802463B6B1A60FB6A002B1D
:104AC00002D0FB6A3A6B1A6000BF2037BD4680BD3A
:104AD00080B582B000AF786001F0AEF92D4B1B6855
:104AE00001332C4A13602C4B1B68002B09D12A4A36
:104AF0007B681360274B1B68012B10D100F00CFC66
:104B00000DE0264B1B68002B09D1234B1B68DA6A8A
:104B10007B68DB6A9A4202D81F4A7B681360204B8D
:104B20001B6801331E4A13601D4B1A687B685A6468
:104B30007B68DA6A1B4B1B689A4203D97B68DB6A85
:104B4000184A13607B68DA6A13469B0013449B0083
:104B5000154A1A447B68043319461046FFF781F85A
:104B600001F098F90D4B1B68002B0ED00A4B1B6807
:104B7000DA6A7B68DB6A9A4207D20C4B4FF08052AC
:104B80001A60BFF34F8FBFF36F8F00BF0837BD466A
:104B900080BD00BFC00B0020EC060020CC0B002025
:104BA000DC0B0020C80B0020F006002004ED00E024
:104BB00080B584B000AF78600023FB607B68002B79
:104BC00016D0134B1B68002B09D04FF0500383F312
:104BD0001188BFF36F8FBFF34F8FBB60FEE700F00C
:104BE0007FF80021786800F0DFFC00F087F8F860BB
:104BF000FB68002B07D1074B4FF080521A60BFF3C0
:104C00004F8FBFF36F8F00BF1037BD4680BD00BF11
:104C1000E80B002004ED00E080B58AB004AF00236B
:104C2000BB6000237B603A46391D07F10803184634
:104C3000FEF7BAFF39687B68BA68029201930023D5
:104C4000009300230A4620492048FFF71DFE024634
:104C50001F4B1A601E4B1B68002B02D001237B6187
:104C600001E000237B617B69012B02D100F0F0FCA5
:104C700078617B69012B15D14FF0500383F31188C4
:104C8000BFF36F8FBFF34F8F3B61124B4FF0FF327B
:104C90001A60114B01221A60104B00221A6001F0B9
:104CA0005BF80DE07B69B3F1FF3F09D14FF0500392
:104CB00083F31188BFF36F8FBFF34F8FFB60FEE765
:104CC00000BF1837BD4680BDDC700008E9520008FF
:104CD000E40B0020E00B0020CC0B0020C40B0020D4
:104CE00080B400AF044B1B680133034A136000BF5C
:104CF000BD4680BC704700BFE80B002080B584B083
:104D000000AF0023FB600023BB60414B1B68002BFE
:104D100009D14FF0500383F31188BFF36F8FBFF3B6
:104D20004F8F3B60FEE701F087F8394B1B68013B72
:104D3000374A1360364B1B68002B62D1354B1B681A
:104D4000002B5ED02FE0344BDB68DB68FB60FB6838
:104D500018331846FEF7E0FFFB6804331846FEF7E9
:104D6000DBFFFB68DA6A2D4B1B689A4203D9FB68AC
:104D7000DB6A2A4A1360FB68DA6A13469B00134415
:104D80009B00274A1A44FB68043319461046FEF775
:104D900068FFFB68DA6A234B1B68DB6A9A4202D31E
:104DA000214B01221A601C4B1B68002BCBD1FB68E6
:104DB000002B01D000F04AFB1C4B1B687B607B681A
:104DC000002B10D000F044F80346002B02D0164B05
:104DD00001221A607B68013B7B607B68002BF1D16C
:104DE000124B00221A60104B1B68002B09D00123C4
:104DF000BB600F4B4FF080521A60BFF34F8FBFF371
:104E00006F8F01F047F8BB6818461037BD4680BD6C
:104E1000E80B0020C00B0020800B0020C80B0020F6
:104E2000F0060020EC060020D40B0020D00B002060
:104E300004ED00E080B483B000AF044B1B687B60DE
:104E40007B6818460C37BD4680BC7047C40B0020F9
:104E500080B586B000AF00237B61514B1B68002BEF
:104E600040F08D804F4B1B6801333B614D4A3B69DD
:104E700013603B69002B1FD14B4B1B681B68002B39
:104E800009D04FF0500383F31188BFF36F8FBFF346
:104E90004F8F3B60FEE7444B1B68FB60434B1B6836
:104EA000414A1360414AFB681360414B1B68013360
:104EB0003F4A136000F0CAFA3E4B1B683A699A42B7
:104EC0004ED3394B1B681B68002B01D1012300E036
:104ED0000023002B04D0374B4FF0FF321A603FE025
:104EE000314B1B68DB68DB68BB60BB685B687B6061
:104EF0003A697B689A4203D22E4A7B6813602FE09E
:104F0000BB6804331846FEF707FFBB689B6A002B9B
:104F100004D0BB6818331846FEF7FEFEBB68DA6A99
:104F2000254B1B689A4203D9BB68DB6A224A13608F
:104F3000BB68DA6A13469B0013449B001F4A1A445D
:104F4000BB68043319461046FEF78BFEBB68DA6A6D
:104F50001B4B1B68DB6A9A42B3D301237B61B0E72A
:104F6000174B1B68DA6A154913469B0013449B00D4
:104F70000B441B68012B07D901237B6104E0114B13
:104F80001B6801330F4A13600F4B1B68002B01D0C5
:104F900001237B617B6918461837BD4680BD00BF81
:104FA000E80B0020C40B0020780B00207C0B0020B5
:104FB000D80B0020E00B0020C80B0020F0060020DA
:104FC000EC060020D00B0020D40B002080B485B06C
:104FD00000AF274B1B68002B03D0264B01221A6021
:104FE00040E0244B00221A60234B1B68FB600FE05B
:104FF000FB68002B09D14FF0500383F31188BFF3F6
:105000006F8FBFF34F8F7B60FEE7FB68013BFB6058
:105010001A49FA6813469B0013449B000B441B6813
:10502000002BE5D0FA6813469B0013449B00134AFB
:105030001344BB60BB685B685A68BB685A60BB6856
:105040005A68BB6808339A4204D1BB685B685A68E7
:10505000BB685A60BB685B68DB68094A1360064A34
:10506000FB68136000BF1437BD4680BC704700BFAB
:10507000E80B0020D40B0020C80B0020F006002015
:10508000EC06002080B584B000AF786039607B68A2
:10509000002B09D14FF0500383F31188BFF36F8FBA
:1050A000BFF34F8FFB60FEE7074B1B6818331946B1
:1050B0007868FEF7F9FD0121386800F075FA00BF45
:1050C0001037BD4680BD00BFEC06002080B586B01D
:1050D00000AFF860B9607A60FB68002B09D14FF02F
:1050E000500383F31188BFF36F8FBFF34F8F7B6142
:1050F000FEE70A4B1B6818331946F868FEF7B1FD46
:105100007B68002B02D04FF0FF33BB607968B86832
:1051100000F04AFA00BF1837BD4680BDEC060020FB
:1051200080B586B000AF78607B68DB68DB683B6188
:105130003B69002B09D14FF0500383F31188BFF373
:105140006F8FBFF34F8FFB60FEE73B691833184644
:10515000FEF7E2FD1D4B1B68002B1DD13B6904339C
:105160001846FEF7D9FD3B69DA6A194B1B689A426B
:1051700003D93B69DB6A164A13603B69DA6A134656
:105180009B0013449B00134A1A443B69043319469D
:105190001046FEF766FD05E03B69183319460E48D8
:1051A000FEF75FFD3B69DA6A0C4B1B68DB6A9A42CB
:1051B00005D901237B610A4B01221A6001E000231B
:1051C0007B617B6918461837BD4680BDE80B00201F
:1051D000C80B0020F0060020800B0020EC06002009
:1051E000D40B002080B483B000AF7860064B1A68FF
:1051F0007B681A60054B1A687B685A6000BF0C37E1
:10520000BD4680BC704700BFD80B0020C40B0020F7
:1052100080B588B000AF786039607B68002B09D119
:105220004FF0500383F31188BFF36F8FBFF34F8F9D
:105230003B61FEE73B68002B09D14FF0500383F33D
:105240001188BFF36F8FBFF34F8FFB60FEE700F055
:10525000F3FD1D4B1B68BB617B685B68BA69D31AA1
:105260007B613B681B68B3F1FF3F02D10023FB6108
:1052700023E07B681A68154B1B689A4207D07B684D
:105280005B68BA699A4202D30123FB6115E03B686F
:105290001B687A699A420BD23B681A687B69D21AFA
:1052A0003B681A607868FFF79DFF0023FB6104E00C
:1052B0003B6800221A600123FB6100F0EBFDFB69F3
:1052C00018462037BD4680BDC40B0020D80B0020F7
:1052D00080B400AF034B01221A6000BFBD4680BC02
:1052E000704700BFD40B002080B582B000AF78605B
:1052F00000F052F8064B1B68012BF9D9054B4FF013
:1053000080521A60BFF34F8FBFF36F8FF0E700BF7B
:10531000F006002004ED00E080B582B000AF00236D
:105320007B600CE07A6813469B0013449B00124A92
:1053300013441846FEF76AFC7B6801337B607B6888
:10534000372BEFD90D48FEF761FC0D48FEF75EFCE8
:105350000C48FEF75BFC0C48FEF758FC0B48FEF7C8
:1053600055FC0B4B054A1A600A4B054A1A6000BFF0
:105370000837BD4680BD00BFF0060020500B00205E
:10538000640B0020800B0020940B0020AC0B00204D
:10539000780B00207C0B002080B582B000AF19E0B4
:1053A00000F04AFD0F4BDB68DB687B607B680433F1
:1053B0001846FEF7B1FC0C4B1B68013B0A4A136010
:1053C0000A4B1B68013B094A136000F063FD7868D3
:1053D00000F00EF8054B1B68002BE1D100BF083729
:1053E000BD4680BD940B0020C00B0020A80B002000
:1053F00080B584B000AF78607B6893F85930002B9B
:1054000008D17B681B6B184600F0CEFE786800F070
:10541000CBFE17E07B6893F85930012B03D17868F5
:1054200000F0C2FE0EE07B6893F85930022B09D0E1
:105430004FF0500383F31188BFF36F8FBFF34F8F8B
:10544000FB60FEE700BF1037BD4680BD80B483B06F
:1054500000AF0E4B1B681B68002B01D1012300E03D
:105460000023002B04D00A4B4FF0FF321A6008E0F3
:10547000064B1B68DB68DB687B607B685B68044A03
:10548000136000BF0C37BD4680BC7047780B00200E
:10549000E00B002080B483B000AF0B4B1B68002BE7
:1054A00002D101237B6008E0084B1B68002B02D16E
:1054B00002237B6001E000237B607B6818460C3789
:1054C000BD4680BC704700BFCC0B0020E80B00201D
:1054D00080B586B000AF78607B683B6100237B615C
:1054E0007B68002B54D02D4B1B683A699A4209D037
:1054F0004FF0500383F31188BFF36F8FBFF34F8FCB
:10550000FB60FEE73B691B6D002B09D14FF0500398
:1055100083F31188BFF36F8FBFF34F8FBB60FEE73C
:105520003B691B6D5A1E3B691A653B69DA6A3B6928
:10553000DB6C9A422CD03B691B6D002B28D13B6958
:1055400004331846FEF7E8FB3B69DA6C3B69DA6224
:105550003B69DB6AC3F138023B699A613B69DA6AED
:105560000F4B1B689A4203D93B69DB6A0C4A1360F4
:105570003B69DA6A13469B0013449B00094A1A44AC
:105580003B69043319461046FEF76BFB01237B6130
:105590007B6918461837BD4680BD00BFEC06002069
:1055A000C80B0020F006002080B584B000AF786002
:1055B0003960214B1B68FB60204B1B680433184685
:1055C000FEF7AAFB7B68B3F1FF3F0AD13B68002BD3
:1055D00007D01A4B1B68043319461948FEF741FBE4
:1055E00026E0FA687B681344BB60144B1B68BA68FA
:1055F0005A60BA68FB689A4209D2124B1A680F4B7C
:105600001B68043319461046FEF74EFB10E00E4BA4
:105610001A680A4B1B68043319461046FEF744FB10
:105620000A4B1B68BA689A4202D2084ABB681360E8
:1056300000BF1037BD4680BDC40B0020EC06002023
:10564000AC0B00207C0B0020780B0020E00B00202E
:1056500080B58AB004AF00237B6100F0C3FA1C4B15
:105660001B68002B21D00023FB600023BB603A1D88
:1056700007F1080107F10C031846FEF7ADFA796847
:10568000BB68FA68029201930223009300230A4642
:1056900010491148FFF7F8F80246104B1A600F4BFB
:1056A0001B68002B01D001237B617B69002B09D192
:1056B0004FF0500383F31188BFF36F8FBFF34F8F09
:1056C0003B61FEE77B6918461837BD4680BD00BFC9
:1056D0001C0C0020E4700008F9570008200C002082
:1056E00080B58AB000AFF860B9607A603B60002393
:1056F0007B62FB68002B09D14FF0500383F31188C4
:10570000BFF36F8FBFF34F8F3B62FEE7194B1B68F0
:10571000002B2AD0BB683B617B687B61FB68BB6167
:10572000BB68052B18DCFFF7B5FE0346022B09D139
:10573000104B186807F1100100233A6BFEF750FC7C
:10574000786212E00B4B186807F110010023002269
:10575000FEF746FC786208E0064B186807F1100176
:1057600000233A68FEF736FD78627B6A18462837D0
:10577000BD4680BD1C0C002080B588B002AF7860AB
:1057800039601C4B1B68DB68DB687B617B69043319
:105790001846FEF7C1FA7B69DB69012B21D17B69D1
:1057A0009A697B68D1187B683A68786900F0C8F814
:1057B0000346002B15D00023009300237A680021B4
:1057C0007869FFF78DFF38613B69002B09D14FF0F5
:1057D000500383F31188BFF36F8FBFF34F8FFB60CC
:1057E000FEE77B695B6A7869984700BF1837BD465A
:1057F00080BD00BF140C002080B584B000AF78607D
:1058000007F10803184600F057F8F860BB6819461E
:10581000F86800F003F800F0D5F8F1E780B584B03F
:1058200000AF78603960FFF75BFA07F108031846AC
:1058300000F066F8F860BB68002B30D13B68002BA5
:105840000AD17A68FB689A4206D8FFF757FAF968D6
:105850007868FFF791FF24E03B68002B08D0134BDA
:105860001B681B68002B0CBF01230023DBB23B60CD
:105870000F4B18687A68FB68D31A3A681946FEF726
:10588000CFFFFFF73BFA0346002B0AD1094B4FF03D
:1058900080521A60BFF34F8FBFF36F8F01E0FFF7A5
:1058A0002DFA00BF1037BD4680BD00BF180C002088
:1058B0001C0C002004ED00E080B485B000AF7860DF
:1058C0000E4B1B681B68002B0CBF01230023DBB2AF
:1058D0001A467B681A607B681B68002B05D1074B52
:1058E0001B68DB681B68FB6001E00023FB60FB6852
:1058F00018461437BD4680BC704700BF140C00200A
:1059000080B584B000AF7860FFF794FAF8600B4B75
:105910001B68FA689A4205D200F004F97B680122FC
:105920001A6002E07B6800221A60044AFB68136078
:10593000FB6818461037BD4680BD00BF240C002010
:1059400080B586B000AFF860B9607A603B60002334
:105950007B61FB68BA685A60FB68FA681A61BA68CA
:105960007B689A4212D87A683B68D21AFB689B69B6
:105970009A4202D301237B611BE0104B1A68FB683B
:10598000043319461046FEF78FF912E07A683B6837
:105990009A4206D2BA683B689A4202D301237B61DD
:1059A00007E0074B1A68FB68043319461046FEF7F8
:1059B0007BF97B6918461837BD4680BD180C00205E
:1059C000140C002080B58EB002AF99E07B68002BEC
:1059D00017DA3B1D0433FB62FB6A002B09D14FF041
:1059E000500383F31188BFF36F8FBFF34F8FFB61B9
:1059F000FEE7FB6A1B68FA6A5068FA6A9268114609
:105A000098477B68002B7ADBFB68BB62BB6A5B69EB
:105A1000002B04D0BB6A04331846FEF77DF93B46E1
:105A20001846FFF76DFF78627B68092B68D801A2E2
:105A300052F823F05D5A00085D5A00085D5A0008CC
:105A4000015B0008B75A0008ED5A00085D5A0008CB
:105A50005D5A0008015B0008B75A0008BA68BB6AC3
:105A60009B69D118BB687A6AB86AFFF769FF034679
:105A7000002B45D0BB6A5B6AB86A9847BB6ADB6992
:105A8000012B3DD1BA68BB6A9B691A44002300937D
:105A900000230021B86AFFF723FE38623B6A002B1F
:105AA0002ED14FF0500383F31188BFF36F8FBFF3F4
:105AB0004F8FBB61FEE7BA68BB6A9A61BB6A9B699C
:105AC000002B09D14FF0500383F31188BFF36F8F80
:105AD000BFF34F8F7B61FEE7BB6A9A697B6AD1187F
